S00E0000534C415645312E737265636A
S11300000C9434000C9451000C9451000C94510045
S11300100C9451000C9451000C9451000C94510018
S11300200C9451000C9451000C9451000C948109CF
S11300300C9451000C9464090C944B050C945100DD
S11300400C9424050C9451000C9451000C94510010
S11300500C9451000C9451000C9451000C945100D8
S11300600C94A1020C94510011241FBECFEFD8E0D0
S1130070DEBFCDBF11E0A0E0B1E0E4EAF3E102C0ED
S113008005900D92A630B107D9F721E0A6E0B1E0C2
S113009001C01D92AE34B207E1F70E942B070C9405
S11300A0D0090C9400001092B000E1EBF0E0108253
S11300B01092B20081E087BB82E0808308951092A1
S11300C0B1000895E0910901F0910A01808190E066
S11300D00090070102C0969587950A94E2F7817013
S11300E008958F929F92AF92BF92CF92DF92EF9238
S11300F0FF921F93CF93DF93182F4A015B01E9010D
S1130100C12CD12C76011BC0B89B06C081E087BBF3
S11301102FEFD21AE20AF20A8091B200A7019601E7
S1130120280F311D411D511D281539054A055B0550
S113013030F0288339834A835B8380E00FC00E94B8
S113014062008113E1CF8091B200C80ED11CE11C82
S1130150F11CC882D982EA82FB8281E0DF91CF91CF
S11301601F91FF90EF90DF90CF90BF90AF909F9042
S11301708F900895EF920F931F93CF93DF9300977F
S113018071F06115710559F02115310541F0011522
S1130190110529F0483018F457E05E1520F4109248
S11301A0060180E02DC070930C0160930B01109345
S11301B00A010093090140930801E0920701EC0150
S11301C0A881E1E0F0E0EF0102C0CC0FDD1F4A9509
S11301D0E2F7AE015A2F542BDC015C93EB018881CA
S11301E0409548234883D9018C9102C0EE0FFF1F2C
S11301F0EA94E2F7E095E823EC9381E0809306012A
S1130200DF91CF911F910F91EF900895EF92FF929C
S11302101F93CF93DF93CDB7DEB728970FB6F8942B
S1130220DEBF0FBECDBF19821A821B821C821D82C3
S11302301E821F821886009709F483C02FEF3FEFB8
S1130240FC013183208310910601112309F47CC041
S11302507C01E0910B01F0910C01408121E030E040
S1130260C9010090080102C0880F991F0A94E2F79F
S1130270809584238083FAE0FA95F1F700C0E09139
S11302800B01F0910C014081C9010090080102C0EA
S1130290880F991F0A94E2F7842B808385E38A955B
S11302A0F1F70000E0910B01F0910C0180810090C6
S11302B0080102C0220F331F0A94E2F72095282375
S11302C020830E9453009E012F5F3F4F40E65AEE69
S11302D060E070E081E00E947100182F811103C07A
S11302E00E945F0031C01092B20081E087BB9E0182
S11302F02B5F3F4F40E65AEE60E070E080E00E94E2
S11303007100182F811103C00E945F001DC00E945C
S11303105F008D819E81AF81B885B695A79597952D
S11303208795AC01BD0141505109610971094F3FE5
S11303305F4F6105710538F4F7019183808311E003
S113034003C010E001C010E0812F28960FB6F89486
S1130350DEBF0FBECDBFDF91CF911F91FF90EF9015
S1130360089585EC8093BC00089580911401883031
S1130370C1F580911301811134C080911201811162
S113038004C080911101882321F1809110018823F8
S113039069F00895822F90E0FC01EB5CFE4F308100
S11303A0FC01EB5DFE4F30832F5F01C020E028305D
S11303B088F381E0809310010895822F90E0FC017E
S11303C0EB5CFE4F3081FC01E35DFE4F30832F5F19
S11303D001C020E0283088F381E08093120110925C
S11303E00F0108951816F4F42FB7F894109214011D
S11303F01092130110921201109211011092100127
S113040010920F0110920E0110920D0197B19F7C72
S113041097B9880F8093BA0085E48093BC002FBFFE
S113042081E0089580E008959FB7F89480911201C7
S113043081110DC020911001222349F02091110156
S1130440211105C020910F01211101C081E09FBF3E
S11304500895AC01892B09F449C06FB7F8948091D1
S113046012018823D1F080911101882369F015C00D
S1130470292F30E0FA01E20FF31FD901A35DBE4F2B
S11304808C9180839F5F01C090E0983088F3109234
S1130490120181E08093110127C08091100188230B
S11304A001F18091110181111EC080910F018823F7
S11304B071F080E019C0822F90E0FA01E80FF91F73
S11304C0DC01AB5DBE4F8C9180832F5F01C020E0C7
S11304D0283088F31092100181E08093110182E0AA
S11304E003C080E001C080E06FBF089580E00895FC
S11304F0BC01892B21F18FB7F894909111019923B4
S113050021F090910F01992379F08FBF80E0089535
S1130510292F30E0FB01E20FF31F4081F901E35E74
S1130520FE4F40839F5F01C090E0983088F391E0D4
S113053090930F01109211018FBF81E0089580E024
S113054008951F920F920FB60F9211242F933F9389
S11305504F935F936F937F938F939F93AF93BF93C7
S1130560EF93FF938091B900887F803A09F449C0E2
S113057068F4883639F128F48823C1F0803611F103
S113058094C0803831F1883821F18FC0883B09F458
S113059064C028F4883AF1F1803BE1F186C0803CE4
S11305A009F472C0883C09F46FC07FC01092140132
S11305B01092130110920E0110920D0185ED80939B
S11305C0BC007DC010921401109213010E94B1016D
S11305D076C080911401883070F4E0911401F0E049
S11305E08091BB00EB5CFE4F8083809114018F5F90
S11305F08093140103C081E0809313010E94B10130
S11306005EC00E94B50110921401109213010E9461
S1130610B10155C080910F0180930E0120E011C0FB
S1130620822F90E030910E01332329F0FC01E35E28
S1130630FE4F308101C030E0FC01EB5EFE4F3083A1
S11306402F5F283068F381E080930D0180911501BC
S11306508093BB000E94B10132C080910D018830AB
S113066070F4E0910D01F0E0EB5EFE4F8081809329
S1130670BB0080910D018F5F80930D0102C0109229
S1130680BB000E94B1011BC080910E01882331F090
S113069080910D01883010F010920F0110920E011C
S11306A010920D010E94B1010AC01092140110921F
S11306B0130110920E0110920D010E94B101FF91DD
S11306C0EF91BF91AF919F918F917F916F915F91C6
S11306D04F913F912F910F900FBE0F901F9018953F
S11306E04817590721F4621721F080E0089580E04B
S11306F0089581E0089515BCEEE6F0E080818C7FDA
S11307008083E0914601F0914701908180914101FD
S11307108095892380830895CF93C82F0E947B03FB
S113072014BC16BCC7BD83E085BBCC23E1F0CF3F2E
S113073051F4E0914601F09147019081809141018B
S1130740892B808310C0E0914601F091470190818C
S113075080914101892B8083EEE6F0E08081836003
S1130760808383E085BDCF9108958130A1F4E09129
S11307704401F0914501908180914001892B80834F
S1130780E0914201F0914301908180913F01809575
S1130790892380830895E0914401F091450190817B
S11307A080914001809589238083E0914201F091FA
S11307B04301908180913F01892B808308952F927A
S11307C03F924F925F926F927F928F929F92AF92DD
S11307D0BF92CF92DF92EF92FF920F931F93CF932A
S11307E0DF931F92CDB7DEB7009709F49CC0611563
S11307F0710509F49AC02115310509F498C0011551
S1130800110509F496C0C114D10409F494C0A114CB
S1130810B10409F492C0483008F091C057E05E1565
S113082008F48FC0581508F48EC089822601490146
S1130830342E3B016C012E2DA401632D0E94700304
S1130840282E811182C02981A201632DC6010E9434
S11308507003F82E81117BC02981A2016E2DC40181
S11308600E947003811174C06FB7F89481E055C081
S11308707092470160924601109345010093440130
S1130880B0924301A092420181E090E0AC01032CBC
S113089002C0440F551F0A94E2F7409341019C01A2
S11308A00E2C02C0220F331F0A94E2F7209340015A
S11308B0098002C0880F991F0A94E2F780933F01D0
S11308C0F6019081942B9083F4019081922B908374
S11308D0F2019081982B9083F301908140954923F4
S11308E04083F8019081209529232083F50190818C
S11308F080958923808314BC15BC16BCEEE6F0E019
S113090080818C7F808383E085BB81E080930001BC
S113091010923E0180933D0180E08111A9CF6FBF09
S1130920FF24F39415C0F12C13C0F12C11C0F12C49
S11309300FC0F12C0DC0F12C0BC0F12C09C0F12C0F
S113094007C0F12C05C0F12C03C0F12C01C0F22C1E
S11309508F2D0F90DF91CF911F910F91FF90EF900A
S1130960DF90CF90BF90AF909F908F907F906F90CB
S11309705F904F903F902F9008951F93CF93DF93F4
S113098090913D019923D9F08230C0F4D62FC82F1D
S11309901FB7F89481E00DC00E947B038C2F0E9446
S11309A0B503C0930001D0933E018D2F0E948C03A8
S11309B080E08111F1CF1FBF91E001C090E0892F49
S11309C0DF91CF911F910895CF9380913D018823AA
S11309D001F1CFB7F89481E019C010923E010E9452
S11309E07B03E0914401F0914501908180914001A5
S11309F0809589238083E0914201F09143019081A5
S1130A0080913F0180958923808380E08111E5CF27
S1130A10CFBFCF910895FC01892BA9F02FB7F8948B
S1130A2081E00EC080910001808380913E0181832A
S1130A3090913E0181E0911101C080E0828380E0C9
S1130A408111F0CF2FBF08951F920F920FB60F920E
S1130A5011248F939F93EF93FF9380913D018823FB
S1130A6089F080913E01882369F080913E018F3F97
S1130A7049F0E0914601F091470190818091410154
S1130A80892B8083FF91EF919F918F910F900FBEDF
S1130A900F901F9018951F920F920FB60F9211246A
S1130AA08F939F93EF93FF9380913D01882371F07F
S1130AB080913E018F3F51F0E0914601F091470152
S1130AC0908180914101809589238083FF91EF91EA
S1130AD09F918F910F900FBE0F901F901895CF93F9
S1130AE0DF9300D0CDB7DEB78FEF9FEF9A83898372
S1130AF0CE0101960E940601882349F0E1E0F1E06D
S1130B0081E0808389819A819283818307C0E1E0B7
S1130B10F1E010828FEF9FEF92838183E1E0F1E0B7
S1130B2083818F5F83830F900F90DF91CF9108951E
S1130B30CF93DF93CDB7DEB728970FB6F894DEBF17
S1130B400FBECDBFBE016F5F7F4F0E948B08CE01E9
S1130B5001960E94780228960FB6F894DEBF0FBE65
S1130B60CDBFDF91CF910895EF92FF920F93CF9372
S1130B70DF93CDB7DEB728970FB6F894DEBF0FBE6C
S1130B80CDBF262FFC0141816081E12CF12C00E0D6
S1130B90CE0101960E944D08CE0101960E9498054F
S1130BA028960FB6F894DEBF0FBECDBFDF91CF916C
S1130BB00F91FF90EF900895EF92FF920F93CF93D0
S1130BC0DF93CDB7DEB72C970FB6F894DEBF0FBE18
S1130BD0CDBFFC012181213021F064E00E94B405E5
S1130BE01DC0E1E0F1E020812987318142814A87FB
S1130BF03B8733813C87222311F020E001C027E0AA
S1130C00FC0141816081CE0109967C0104E00897D2
S1130C100E944D08CE0101960E9498052C960FB6AD
S1130C20F894DEBF0FBECDBFDF91CF910F91FF903F
S1130C30EF900895EF92FF920F93CF93DF93CDB788
S1130C40DEB72F970FB6F894DEBF0FBECDBF7C0181
S1130C501C861D861E861F86FC018181843039F125
S1130C6028F4813039F0833041F01EC0853059F0CA
S1130C708F37D1F420E000E01FC00E9459098C870F
S1130C8020E001E019C080914801882399F0CE0149
S1130C9009960E940B0589858C878A858D878B85AB
S1130CA08E8720E003E008C024E000E005C028E0CF
S1130CB000E002C028E000E0F70141816081CE013C
S1130CC00C967C010B970E944D08CE0101960E9460
S1130CD098052F960FB6F894DEBF0FBECDBFDF91F7
S1130CE0CF910F91FF90EF900895CF93DF93EC0194
S1130CF088818330B1F028F4813059F0823069F072
S1130D0068C0853009F447C030F1863009F448C022
S1130D1060C0CE010E941A0660C0CE010E94DC05AC
S1130D205CC08981843029F468E0CE010E94B40556
S1130D3054C0833029F064E0CE010E94B4054DC054
S1130D4061E0CE010E94B405882309F446C08B817A
S1130D500E943A0942C08981853029F064E0CE01BD
S1130D600E94B4053AC080914801811105C068E031
S1130D70CE010E94B40531C061E0CE010E94B405E9
S1130D80882359F16C819B8181E0913009F080E0E6
S1130D900E94BD0422C064E0CE010E94B4051DC0BF
S1130DA08981853011F08F3779F461E0CE010E949A
S1130DB0B405882391F00E94E40489818F3769F493
S1130DC080E00E943A0909C064E0CE010E94B405A3
S1130DD004C063E0CE010E94B405DF91CF91089571
S1130DE01F93CF93DF93CDB7DEB760970FB6F89418
S1130DF0DEBF0FBECDBF0E941402882311F1CE01C5
S1130E0001960E942902182F8823D9F0BE01675F3A
S1130E107F4FCE0101960E94B608123031F462E091
S1130E20CE0109960E94B4050CC0882331F0682FC6
S1130E30CE0109960E94B40504C0CE0109960E9411
S1130E40750660960FB6F894DEBF0FBECDBFDF9176
S1130E50CF911F9108956894EE24E1F806E210E022
S1130E6027E230E043E068E270E087E290E00E942D
S1130E70BA0043E065E270E084E290E00E94F20888
S1130E8080E00E943A09812C0F2EF5E2AF2EB12C9E
S1130E90F02D0F2EF4E2CF2ED12CF02D0F2EF7E0F3
S1130EA0EF2EF02D0BE210E02AE230E041E065E2A3
S1130EB070E084E290E00E94DF03809348010E9486
S1130EC0E40481E10E94F20178940E94F0060E94F9
S1130ED06F050E94F006C0E009C00E94F0068FE989
S1130EE09FE00197F1F700C00000CF5FCC33A8F377
S1130EF0ECCF9C0190E005C0F901E90FF11D1082CF
S1130F009F5F9617C8F30895CF93DF93DC0190E0B9
S1130F100BC0292F30E0FD01E20FF31FEB01C20FDC
S1130F20D31F288120839F5F941798F3DF91CF917B
S1130F3008958150863010F481E0089580E008958A
S1130F409FEF980F963020F08F3721F481E00895B9
S1130F5081E0089580E00895893010F481E00895D7
S1130F6080E008950F931F93CF93DF93009709F4C4
S1130F7066C0EC011881812F0E949907882309F427
S1130F8060C00981802F0E94A007882309F45BC0F8
S1130F902A81263008F059C0822F07C0FE01E80FCD
S1130FA0F11D9381911153C08F5F8530B8F31330D5
S1130FB0C1F028F4113049F0123059F04AC015300C
S1130FC019F1C8F0163089F144C0211144C080E001
S1130FD05FC00150023008F040C0211140C080E0E1
S1130FE057C003500230E8F52130E9F58B81853B89
S1130FF0E0F580E04DC00530D1F52230D1F58B818C
S11310008230C8F580E044C00630B9F52530B9F522
S11310108B818230B0F58E8190E0982F88272F81C4
S1131020822B892B81F180E033C08BEF800F8230DB
S113103010F00F3751F521112AC080E029C086E055
S113104027C083E025C084E023C085E021C086E07A
S11310501FC083E01DC085E01BC084E019C085E08B
S113106017C084E015C085E013C086E011C084E099
S11310700FC085E00DC086E00BC084E009C085E0A8
S113108007C086E005C086E003C084E001C085E0B7
S1131090DF91CF911F910F910895CF92DF92EF923C
S11310A0FF920F931F93CF93DF93009711F1122FA9
S11310B0D42EC62EEC01822F0E94AC078823D9F0CF
S11310C00530D8F4002319F0E114F104C1F0C8820A
S11310D0D9821A830B83249664E0CE010E94790797
S11310E0002379F0402FB701CE010E94840780E0ED
S11310F009C086E007C086E005C085E003C086E03D
S113110001C080E0DF91CF911F910F91FF90EF908C
S1131110DF90CF900895CF93DF93DC01EB01892B0F
S113112011F1209701F18C91888311968C9111977C
S1131130898312968C9112978A8313968C911397B4
S11311408B8390E00EC0292F30E0F9013496AF0173
S11311504C0F5D1F2A0F3B1FF9018481FA01808324
S11311609F5F943080F3DF91CF910895FC01892B28
S113117011F16115710509F18081DB018C93818185
S113118011968C931197828112968C9390E00DC0E6
S1131190292F30E0DF01A20FB31F13968C91DB01DE
S11311A0A20FB31F13968C939F5F953088F3CB01E6
S11311B00E94B207089586E0089586E00895282FD6
S11311C030E0A0EDB7E00E94C10924EB30E040E03C
S11311D050E00E949F09DA01C9018053984FAF4F34
S11311E0BF4F0895009709F43FC061157105F1F1EF
S11311F04830F0F570934D0160934C0121E030E0EC
S113120002C0220F331F4A95E2F720934B01FC01E1
S11312103081322B3083FB01808120952823208369
S1131220A0E8B0E01C92E1E8F0E0108210928500A2
S1131230109284008FE39CE990938700809386004A
S113124080ED97E0909389008093880083E086BBCB
S113125092E09C939AE1908380936F0010924A01EC
S113126081E080934901089580E0089580E0089525
S113127080E00895CF93909149019923B9F0853B7B
S1131280A0F4C82F0E94DF089C018FB7F89491E066
S113129007C03093890020938800C0934A0190E0EE
S11312A09111F7CF8FBF91E001C090E0892FCF91CA
S11312B008952FB7F89491E003C080914A0190E01B
S11312C09111FBCF2FBF08951F920F920FB60F926B
S11312D011248F939F93EF93FF93E0914C01F0912E
S11312E04D01309729F0908180914B01892B8083A7
S11312F0FF91EF919F918F910F900FBE0F901F90D0
S113130018951F920F920FB60F9211248F939F93EB
S1131310EF93FF93E0914C01F0914D01309731F040
S1131320908180914B01809589238083FF91EF9177
S11313309F918F910F900FBE0F901F901895A1E26F
S11313401A2EAA1BBB1BFD010DC0AA1FBB1FEE1F3B
S1131350FF1FA217B307E407F50720F0A21BB30B86
S1131360E40BF50B661F771F881F991F1A9469F702
S113137060957095809590959B01AC01BD01CF015E
S11313800895A29FB001B39FC001A39F700D811D5A
S11313901124911DB29F700D811D1124911D08957A
S10713A0F894FFCFEB
S10913A40100FFFF000040
S9030000FC
