S00E0000534C415645312E737265636A
S11300000C948D000C94AA000C94AA000C94AA00E1
S11300100C94AA000C94AA000C94AA000C94AA00B4
S11300200C94AA000C94AA000C94AA000C949A03B1
S11300300C94AA000C947D030C94AA000C94AA00BE
S11300400C94AA000C94AA000C94AA000C94AA0084
S11300500C94AA000C94AA000C94AA000C94AA0074
S11300600C948E020C94AA00AA02EA02EA02EA02A2
S1130070EA02EA02EA02EA02AA02EA02EA02EA025C
S1130080EA02EA02EA02EA02AA02EA02EA02EA024C
S1130090EA02EA02EA02EA02AA02EA02EA02EA023C
S11300A0EA02EA02EA02EA02B002EA02EA02EA0226
S11300B0EA02EA02EA02EA02EA02EA02EA02EA02DC
S11300C0EA02EA02EA02EA02B002EA02EA02EA0206
S11300D0EA02EA02EA02EA02EA02EA02EA02EA02BC
S11300E0EA02EA02EA02EA02BB02EA02EA02EA02DB
S11300F0EA02EA02EA02EA02BF02EA02EA02EA02C7
S1130100EA02EA02EA02EA02BF02EA02EA02EA02B6
S1130110EA02EA02EA02EA02D20211241FBECFEF87
S1130120D8E0DEBFCDBF11E0A0E0B1E0E2EEF7E041
S113013002C005900D92A430B107D9F721E0A4E0E4
S1130140B1E001C01D92A331B207E1F70E94480259
S11301500C94EF030C9400001092B000E1EBF0E07B
S113016010821092B20081E087BB82E08083089500
S11301701092B1000895E0910701F0910801808187
S113018090E00090050102C0969587950A94E2F7E5
S1130190817008958F929F92AF92BF92CF92DF9217
S11301A0EF92FF921F93CF93DF93182F4A015B01C5
S11301B0E901C12CD12C76011BC0B89B06C081E09B
S11301C087BB2FEFD21AE20AF20A8091B200A7018C
S11301D09601280F311D411D511D281539054A0569
S11301E05B0530F0288339834A835B8380E00FC04A
S11301F00E94BB008113E1CF8091B200C80ED11CD4
S1130200E11CF11CC882D982EA82FB8281E0DF9181
S1130210CF911F91FF90EF90DF90CF90BF90AF9060
S11302209F908F900895EF920F931F93CF93DF9336
S1130230009771F06115710559F02115310541F0F0
S11302400115110529F0483018F457E05E1520F423
S11302501092040180E02DC070930A01609309019B
S1130260109308010093070140930601E0920501F1
S1130270EC01A881E1E0F0E0EF0102C0CC0FDD1F4A
S11302804A95E2F7AE015A2F542BDC015C93EB0143
S11302908881409548234883D9018C9102C0EE0F90
S11302A0FF1FEA94E2F7E095E823EC9381E0809362
S11302B00401DF91CF911F910F91EF900895EF9278
S11302C0FF921F93CF93DF93CDB7DEB728970FB676
S11302D0F894DEBF0FBECDBF19821A821B821C8226
S11302E01D821E821F821886009709F483C02FEF97
S11302F03FEFFC013183208310910401112309F4A1
S11303007CC07C01E0910901F0910A01408121E067
S113031030E0C9010090060102C0880F991F0A94B9
S1130320E2F7809584238083FAE0FA95F1F700C020
S1130330E0910901F0910A014081C9010090060190
S113034002C0880F991F0A94E2F7842B808385E307
S11303508A95F1F70000E0910901F0910A0180818A
S11303600090060102C0220F331F0A94E2F7209581
S1130370282320830E94AC009E012F5F3F4F40E65C
S11303805AEE60E070E081E00E94CA00182F8111EB
S113039003C00E94B80031C01092B20081E087BB54
S11303A09E012B5F3F4F40E65AEE60E070E080E034
S11303B00E94CA00182F811103C00E94B8001DC0FA
S11303C00E94B8008D819E81AF81B885B695A795AE
S11303D097958795AC01BD01415051096109710997
S11303E04F3F5F4F6105710538F4F70191838083B6
S11303F011E003C010E001C010E0812F28960FB671
S1130400F894DEBF0FBECDBFDF91CF911F91FF9057
S1130410EF90089597B19F7C97B9880F8093BA00A5
S113042085E48093BC0008952FB7F89491E007C049
S1130430E0E0F1E0808361837283438390E0911173
S1130440F7CF2FBF08954FB7F89481E030E020E054
S11304500AC090910B0180E0992329F020910C01AE
S113046010920B0131E08111F4CF4FBF332379F0A7
S11304702F3611F02F3421F48AE50E945303089596
S1130480233611F0233419F480E00E9453030895B5
S1130490CF93DF9300D0CDB7DEB78FEF9FEF9A8372
S11304A089836894EE24E1F806E210E027E230E064
S11304B043E068E270E087E290E00E94130143E0C9
S11304C065E270E084E290E00E940B0380E00E9409
S11304D0530381E10E940A0278940E942302CE0110
S11304E001960E945F01811106C08FEF9FEF9A83EE
S11304F0898310E001C011E00E94720369817A814E
S1130500482F812F0E9414022FEF8DEE92E021508C
S113051080409040E1F700C00000DFCF1F920F92AF
S11305200FB60F9211248F939F93AF93BF93EF93C2
S1130530FF938091B900E82FE87F8E2F90E0FC01B3
S1130540E056F109E935F10508F044C0EC5CFF4FD1
S11305500C94DA0310920D0185EC8093BC003DC02D
S11305608091BB0080930C0181E080930B0185ECAA
S11305708093BC0032C085EC8093BC002EC01092E6
S11305800D01E0910D01F0E0E050FF4F8081809378
S1130590BB0080910D018F5F80930D0185EC8093EA
S11305A0BC001BC080910D01843070F4E0910D01FA
S11305B0F0E0E050FF4F80818093BB0080910D01FB
S11305C08F5F80930D0102C01092BB0085EC809375
S11305D0BC0003C085EC8093BC00FF91EF91BF91F8
S11305E0AF919F918F910F900FBE0F901F90189510
S11305F0282F30E0A0EDB7E00E94E00324EB30E0C8
S113060040E050E00E94B803DA01C9018053984FDA
S1130610AF4FBF4F0895009709F43FC061157105AE
S1130620F1F14830F0F5709312016093110121E06B
S113063030E002C0220F331F4A95E2F720931001E5
S1130640FC013081322B3083FB01808120952823EB
S11306502083A0E8B0E01C92E1E8F0E01082109260
S11306608500109284008FE39CE990938700809327
S1130670860080ED97E0909389008093880083E062
S113068086BB92E09C939AE1908380936F001092D2
S11306900F0181E080930E01089580E0089580E0C9
S11306A0089580E00895CF9390910E019923B9F0B5
S11306B0853BA0F4C82F0E94F8029C018FB7F894E0
S11306C091E007C03093890020938800C0930F0104
S11306D090E09111F7CF8FBF91E001C090E0892F96
S11306E0CF9108952FB7F89491E003C080910F0142
S11306F090E09111FBCF2FBF08951F920F920FB678
S11307000F9211248F939F93EF93FF93E091110124
S1130710F0911201309729F0908180911001892B7A
S11307208083FF91EF919F918F910F900FBE0F9057
S11307301F9018951F920F920FB60F9211248F934A
S11307409F93EF93FF93E0911101F0911201309781
S113075031F0908180911001809589238083FF91ED
S1130760EF919F918F910F900FBE0F901F9018954E
S1130770A1E21A2EAA1BBB1BFD010DC0AA1FBB1FA1
S1130780EE1FFF1FA217B307E407F50720F0A21B13
S1130790B30BE40BF50B661F771F881F991F1A9480
S11307A069F760957095809590959B01AC01BD01AA
S11307B0CF010895EE0FFF1F0590F491E02D0994E9
S11307C0A29FB001B39FC001A39F700D811D11248E
S11307D0911DB29F700D811D1124911D0895F894EF
S10507E0FFCF45
S10707E200FFFF0011
S9030000FC
