S0120000535049204D41535445522E737265633A
S11300000C9434000C9451000C9451000C94510045
S11300100C9451000C9451000C9451000C94510018
S11300200C9451000C9451000C9451000C94510008
S11300300C9451000C9451000C9451000C945100F8
S11300400C9451000C9451000C9451000C945100E8
S11300500C9451000C9451000C9451000C945100D8
S11300600C9451000C94510011241FBECFEFD8E022
S1130070DEBFCDBF11E0A0E0B1E0ECE8F5E002C0E6
S113008005900D92A83AB107D9F721E0A8EAB1E0AA
S113009001C01D92AC3AB207E1F70E94F4000C943F
S11300A0C4020C9400008AB18C6F8AB984B1836055
S11300B084B908959BB1282F30E0220F331F220FFB
S11300C0331F9370292B2BB995B19C7F829586950C
S11300D086958370892B85B9089587B18F7E87B9FA
S11300E088B1806188B90895811105C081E091E0EB
S11300F00E94C10108958AE391E00E94C10108951C
S1130100CF93DF931F92CDB7DEB71982CE0101964C
S11301100E942E02813099F489810E945A008981BB
S11301200E944E0189E591E00E94C101898190E01D
S11301300E94CE0188E191E00E94C10106C0823094
S113014021F489E691E00E94C1010F90DF91CF91E3
S113015008950F931F93CF93DF938091A8018F5F2E
S11301608093A8018931E0F01092A80181E00E94F7
S113017068018C0182E00E946801EC0189E991E048
S11301800E94C101C8010E94CE0180EA91E00E9450
S1130190C101CE010E94CE0187E391E00E94C1011A
S11301A0DF91CF911F910F910895349913C08091DD
S11301B00001882379F02FE788E391E02150804003
S11301C09040E1F700C00000349904C0109200018F
S11301D081E0089596B1892F807194FF04C081E075
S11301E08093000180E0089560E875E280E090E08B
S11301F00E9484010E9425010E9453000E946D0008
S113020080E00E947400C0E00E94D500882339F089
S113021081E0C8270E9427028C2F0E947400C1111C
S113022003C00E94800002C00E94A9008FE39CE9E1
S11302300197F1F700C00000E7CF85B18B7F85B946
S1130240089585B1846085B9089584B18C6284B9B8
S113025084B18F7E84B985B1846085B983E58CBD12
S11302608DB58E7F8DBD08958EBD0DB407FEFDCF77
S11302708EB50895CF93C82F0E941D018C2F0E9424
S1130280340185E38A95F1F700008FEF0E94340171
S1130290C82F0E9421018C2FCF910895CF93C82F8E
S11302A00E941D0185E38A95F1F7000080E20E9417
S11302B0340185E38A95F1F700008C2F0E94340104
S11302C085E38A95F1F700000E942101CF910895FA
S11302D0CF93813041F480E10E943A01C82F81E13B
S11302E00E943A0107C082E10E943A01C82F83E1CB
S11302F00E943A012C2F30E0322F2227A901482BEB
S1130300CA019370CF910895DC01CB01880F991F26
S1130310AA1FBB1F880F991FAA1FBB1F9C01AD01F9
S1130320220F331F441F551F220F331F441F551F15
S113033060E074E284EF90E00E949302215031095E
S11303403093C5002093C4001092C00088E18093CC
S1130350C10086E08093C20008959091C00095FF8B
S1130360FCCF8093C60008958091C0008823E4F7F1
S11303708091C60008958091C000881F8827881F37
S11303800895CF93DF93EC0103C00E94AD01219641
S113039088818111FACFDF91CF9108951F93CF9374
S11303A0DF9300D000D01F92CDB7DEB7AC01892B0C
S11303B091F580E30E94AD0141C09A01ADECBCEC23
S11303C00E94B502969587959695879596958795FB
S11303D09C01220F331F880F991F880F991F880FC4
S11303E0991F820F931F9A01281B390BC901805D45
S11303F0E1E0F0E0EC0FFD1FE10FF11D80839A01B5
S11304000E94B502AC015695479556954795569569
S113041047951F5F01C010E04115510569F0153083
S113042060F20AC01150E1E0F0E0EC0FFD1FE10FB3
S1130430F11D80810E94AD011111F4CF0F900F9036
S11304400F900F900F90DF91CF911F91089510920C
S1130450AB011092AA011092A90108950F931F9362
S1130460CF938C010E94BB01882309F458C00E94D9
S1130470B401C82F80ED8C0F8A3040F58C2F0E9478
S1130480AD012091AA013091AB01C901880F991FD8
S1130490220F331F220F331F220F331F820F931F8C
S11304A08C0F911DC0979093AB018093AA0121E01A
S11304B02093A9018F3F910589F180F187E391E0B1
S11304C00E94C1010E94270282E029C0CD3011F0B0
S11304D0CA3081F48091A901882309F187E391E06E
S11304E00E94C1018091AA01F80180830E94270221
S11304F081E015C0C83011F0CF3741F487E391E0B3
S11305000E94C1010E94270282E009C087E391E0B2
S11305100E94C1010E94270282E001C080E0CF91C5
S11305201F910F910895A1E21A2EAA1BBB1BFD0176
S11305300DC0AA1FBB1FEE1FFF1FA217B307E407BE
S1130540F50720F0A21BB30BE40BF50B661F771F16
S1130550881F991F1A9469F76095709580959095F6
S11305609B01AC01BD01CF010895A29FB001B39FCF
S1130570C001A39F700D811D1124911DB29F700DA8
S10F0580811D1124911D0895F894FFCFF3
S113058C010D0A4D6F646F2055415254202D3E20AD
S113059C4C4544732F5350490D0A496E6772657369
S11305AC6520756E206E756D65726F2064652030E4
S11305BC2061203235353A0D0A000D0A4D6F646FF7
S11305CC20414443202D3E20506F74656E63696F47
S11305DC6D6574726F730D0A0056616C6F722065D1
S11305EC6E766961646F3A200056616C6F72206993
S11305FC6E76616C69646F2E20496E6772657365E3
S113060C20756E206E756D65726F206465203020C8
S113061C61203235353A0D0A00504F54313A2000DE
S10B062C09504F54323A20003A
S9030000FC
