:100000000C948D000C94AA000C94AA000C94AA00E5
:100010000C94AA000C94AA000C94AA000C949103CE
:100020000C94AA000C94AA000C94AA000C94AA00A8
:100030000C94AA000C94AA000C94AA000C94AA0098
:100040000C94AA000C94AA000C94AA000C94AA0088
:100050000C94AA000C94AA000C94AA000C94AA0078
:100060000C9492010C94AA00AE01EE01EE01EE0197
:10007000EE01EE01EE01EE01AE01EE01EE01EE0148
:10008000EE01EE01EE01EE01AE01EE01EE01EE0138
:10009000EE01EE01EE01EE01AE01EE01EE01EE0128
:1000A000EE01EE01EE01EE01B401EE01EE01EE0112
:1000B000EE01EE01EE01EE01EE01EE01EE01EE01C8
:1000C000EE01EE01EE01EE01B401EE01EE01EE01F2
:1000D000EE01EE01EE01EE01EE01EE01EE01EE01A8
:1000E000EE01EE01EE01EE01BF01EE01EE01EE01C7
:1000F000EE01EE01EE01EE01C301EE01EE01EE01B3
:10010000EE01EE01EE01EE01C301EE01EE01EE01A2
:10011000EE01EE01EE01EE01D60111241FBECFEF7C
:10012000D8E0DEBFCDBF11E0A0E0B1E0EEE6F8E040
:1001300002C005900D92AC33B107D9F721E0ACE3D2
:10014000B1E001C01D92AF35B207E1F70E944B014B
:100150000C9435040C94000098EF980F903780F4BD
:1001600097B19F7C97B998B19F7C98B91092BD00C8
:10017000880F8093BA0085EC8093BC0081E00895DD
:1001800080E008950F93009741F06115710529F003
:100190004115510511F0283030F010923E011092B7
:1001A0003D0180E022C050933E0140933D0141E07B
:1001B00050E0FA0102C0EE0FFF1F2A95E2F79F01FF
:1001C000E0933C01FC014081522F50954523408330
:1001D000002331F0FB018081282B208381E005C0C2
:1001E000FB0180815823508381E00F910895E091B5
:1001F0003D01F0913E01309739F0908180913C01B2
:10020000892319F081E0089580E00895DA012FB77D
:10021000F89491E00BC0E0E0F1E0808361831596F3
:100220009C91159792839C91938390E09111F3CFC9
:100230002FBF08954FB7F89481E030E020E00AC066
:1002400090913F0180E0992329F020914001109284
:100250003F0131E08111F4CF4FBF3323D9F026366F
:1002600011F0263431F464EF71E081E00E9456030E
:100270000895223611F0223431F464EF71E080E009
:100280000E9456030895283711F0283519F481E0AB
:100290000E945D030895CF93DF93CDB7DEB76B97D0
:1002A0000FB6F894DEBF0FBECDBF84E1E6E0F1E00B
:1002B000DE01119601900D928A95E1F700E020E0B1
:1002C00046E250E068E270E087E290E00E94C200FF
:1002D000811102C010E001C011E061E0CE01019681
:1002E0000E94D5028111126082E10E94AC007894D4
:1002F00001E00E941A0110FF03C00E94F700082FBE
:10030000CE0145960E947E03AE014B5E5F4F602F8B
:10031000812F0E9406018FE39CE90197F1F700C04D
:100320000000E7CF1F920F920FB60F9211248F9308
:100330009F93AF93BF93EF93FF938091B900E82F02
:10034000E87F8E2F90E0FC01E056F109E935F105D8
:1003500008F044C0EC5CFF4F0C9420041092410163
:1003600085EC8093BC003DC08091BB008093400130
:1003700081E080933F0185EC8093BC0032C085EC26
:100380008093BC002EC010924101E0914101F0E049
:10039000E050FF4F80818093BB00809141018F5FCF
:1003A0008093410185EC8093BC001BC0809141018A
:1003B000843070F4E0914101F0E0E050FF4F808123
:1003C0008093BB00809141018F5F8093410102C007
:1003D0001092BB0085EC8093BC0003C085EC809339
:1003E000BC00FF91EF91BF91AF919F918F910F90C2
:1003F0000FBE0F901F901895FF920F931F93CF93EE
:10040000DF938C01892B91F1F12C2BC0CF2DD0E003
:10041000FE01EE0FFF1FEF5DFE4F20813181D801FD
:100420000E9426049B01AC0160E074E284EF90E03E
:100430000E94FE03822FBA01A901425051096109AD
:1004400071094F3F51056105710550F4815080934A
:10045000B300C65EDE4F88818093B10081E007C0A3
:10046000F39486E08F1590F680E001C080E0DF9184
:10047000CF911F910F91FF900895A0E032C02A2FD5
:1004800030E0F901E55BFE4F41E050E0008802C03A
:10049000440F551F0A94E2F7682F70E00A2E02C03D
:1004A000769567950A94E2F760FF0DC0F9013496DE
:1004B000EE0FFF1FE55BFE4F0190F081E02D908174
:1004C000492B40830DC0F9013496EE0FFF1FE55B09
:1004D000FE4F0190F081E02D9081409549234083AB
:1004E000AF5FA43060F2089580910401813039F447
:1004F000E0914301F0E0ED5CFE4F808106C0E091A9
:100500004301F0E0E15DFE4F80810E943D020895CD
:10051000DF92EF92FF920F931F93CF93DF93982F69
:10052000809142018823C9F19230A0F5211103C0C6
:100530006115710589F1E22EEA018B01F92EDFB612
:10054000F89481E022C0E0E7F0E090819D7F908305
:100550001092B1001092B200CE010E94FC018111F4
:1005600002C0DFBE1AC0E4E4F1E0F082D283C183AE
:1005700014830383E68281E0858382E087BBE0E722
:10058000F0E090819260908380E08111DCCFDFBE4B
:1005900081E003C080E001C080E0DF91CF911F9136
:1005A0000F91FF90EF90DF900895009709F474C0C9
:1005B000623008F073C040E020C0242F30E0F90121
:1005C000EE0FFF1FE80FF91F0190F081E02DEF2BD8
:1005D00009F466C0D9011496AA0FBB1FA80FB91F52
:1005E000ED91FC91EF2B09F45DC0FC01E20FF31FCC
:1005F0002089283008F058C04F5F4430F0F224E1E1
:10060000FC01ABE4B1E001900D922A95E1F7609313
:100610000401613011F488E001C084E08093050199
:1006200040E01AC0242F30E0F901EE0FFF1FE55B18
:10063000FE4F0190F081E02D5081D901A55BBE4FA6
:1006400081E090E050960C9002C0880F991F0A94A8
:10065000E2F7852B80834F5F443020F382E0809364
:10066000B0001092B1001092B200E0E7F0E080819B
:100670008D7F808380E00E943D0210924301E4E47C
:10068000F1E081E08083128211821482138215824C
:10069000168280934201089580E0089580E00895D5
:1006A00080E0089580E0089580E00895AB0121E0A6
:1006B00060E070E00E94880208952FB7F89491E0FE
:1006C00010C0E0E7F0E090819D7F90831092B10030
:1006D000E4E4F1E015821682148213821282118200
:1006E00090E09111EECF2FBF90914201992329F014
:1006F000882319F080E00E943D020895009781F060
:100700003FB7F89421E009C027E0E4E4F1E0DC0120
:1007100001900D922A95E1F720E02111F5CF3FBF1E
:1007200008951F920F920FB60F9211242F933F93AB
:100730004F935F936F937F938F939F93AF93BF93E9
:10074000EF93FF9380914901882309F446C080917B
:100750004401813071F4809143018F5F80934301A4
:100760009091430180910501981790F010924301F8
:100770000FC080914301811106C080910501815015
:100780008093430105C080914301815080934301D0
:100790000E94740280914A0181111FC0809147011B
:1007A00090914801892B39F0E4E4F1E08381948150
:1007B0000197948383838091470190914801892B0D
:1007C00061F4E0E7F0E080818D7F80831092B100DA
:1007D000E4E4F1E0158212821182FF91EF91BF9162
:1007E000AF919F918F917F916F915F914F913F91C9
:1007F0002F910F900FBE0F901F901895A1E21A2E07
:10080000AA1BBB1BFD010DC0AA1FBB1FEE1FFF1FB4
:10081000A217B307E407F50720F0A21BB30BE40B04
:10082000F50B661F771F881F991F1A9469F760954B
:100830007095809590959B01AC01BD01CF01089505
:10084000EE0FFF1F0590F491E02D0994A29FB001D7
:10085000B39FC001A39F700D811D1124911DB29FF4
:0E086000700D811D1124911D0895F894FFCF95
:10086E000001000101082A002A002A002A002B009C
:10087E002B002B002B0002030405010203040506C6
:10088E00070100080020004000800000010004095C
:0C089E000C060301030206040C0809000C
:00000001FF
