S00E0000534C415645322E7372656369
S11300000C9434000C9451000C9451000C94510045
S11300100C9451000C9451000C9451000C94190848
S11300200C9451000C9451000C9451000C946206F1
S11300300C9451000C9445060C9451000C945100FE
S11300400C9451000C9451000C9451000C945100E8
S11300500C9451000C9451000C9451000C945100D8
S11300600C9443010C94510011241FBECFEFD8E02F
S1130070DEBFCDBF11E0A0E0B1E0E2E7F1E102C0F4
S113008005900D92AA33B107D9F721E0AAE3B1E0B4
S113009001C01D92A239B207E1F70E9410040C942A
S11300A0B7080C94000085EC8093BC0008958091FF
S11300B041018830C1F580914001811134C08091A3
S11300C03F01811104C080913E01882321F1809178
S11300D03D01882369F00895822F90E0FC01EE59D8
S11300E0FE4F3081FC01EE5AFE4F30832F5F01C07A
S11300F020E0283088F381E080933D010895822F29
S113010090E0FC01EE59FE4F3081FC01E65AFE4FAF
S113011030832F5F01C020E0283088F381E0809392
S11301203F0110923C0108951816F4F42FB7F89487
S1130130109241011092400110923F0110923E0131
S113014010923D0110923C0110923B0110923A0131
S113015097B19F7C97B9880F8093BA0085E4809308
S1130160BC002FBF81E0089580E008959FB7F89404
S113017080913F0181110DC020913D01222349F05E
S113018020913E01211105C020913C01211101C0A3
S113019081E09FBF0895AC01892B09F449C06FB772
S11301A0F89480913F018823D1F080913E01882307
S11301B069F015C0292F30E0FA01E20FF31FD901CD
S11301C0A65ABE4F8C9180839F5F01C090E0983007
S11301D088F310923F0181E080933E0127C0809113
S11301E03D01882301F180913E0181111EC080915F
S11301F03C01882371F080E019C0822F90E0FA015D
S1130200E80FF91FDC01AE5ABE4F8C9180832F5F3B
S113021001C020E0283088F310923D0181E08093F2
S11302203E0182E003C080E001C080E06FBF08951A
S113023080E00895BC01892B21F18FB7F894909147
S11302403E01992321F090913C01992379F08FBFCD
S113025080E00895292F30E0FB01E20FF31F408175
S1130260F901E65BFE4F40839F5F01C090E0983048
S113027088F391E090933C0110923E018FBF81E09E
S1130280089580E008951F920F920FB60F921124E3
S11302902F933F934F935F936F937F938F939F938A
S11302A0AF93BF93EF93FF938091B900887F803A17
S11302B009F449C068F4883639F128F48823C1F078
S11302C0803611F194C0803831F1883821F18FC023
S11302D0883B09F464C028F4883AF1F1803BE1F1E9
S11302E086C0803C09F472C0883C09F46FC07FC0AA
S11302F0109241011092400110923B0110923A0178
S113030085ED8093BC007DC01092410110924001A4
S11303100E94530076C080914101883070F4E091CE
S11303204101F0E08091BB00EE59FE4F8083809143
S113033041018F5F8093410103C081E080934001BC
S11303400E9453005EC00E94570010924101109217
S113035040010E94530055C080913C0180933B01B1
S113036020E011C0822F90E030913B01332329F02B
S1130370FC01E65BFE4F308101C030E0FC01EE5B26
S1130380FE4F30832F5F283068F381E080933A0179
S1130390809142018093BB000E94530032C080913F
S11303A03A01883070F4E0913A01F0E0EE5BFE4FE0
S11303B080818093BB0080913A018F5F80933A01E2
S11303C002C01092BB000E9453001BC080913B01ED
S11303D0882331F080913A01883010F010923C016A
S11303E010923B0110923A010E9453000AC01092ED
S11303F041011092400110923B0110923A010E9477
S11304005300FF91EF91BF91AF919F918F917F9195
S11304106F915F914F913F912F910F900FBE0F906D
S11304201F9018950F93009741F06115710529F0FD
S11304304115510511F0283030F010926C011092E2
S11304406B0180E022C050936C0140936B0141E04A
S113045050E0FA0102C0EE0FFF1F2A95E2F79F0158
S1130460E0936A01FC014081522F5095452340835B
S1130470002331F0FB018081282B208381E005C01B
S1130480FB0180815823508381E00F910895E0910E
S11304906B01F0916C01309739F0908180916A0181
S11304A0892319F081E0089580E0089580916F0117
S11304B080930001882321F00E9447028093010168
S11304C0E0E0F1E082818F5F82830895CF93DF9330
S11304D0CDB7DEB728970FB6F894DEBF0FBECDBFF9
S11304E0BE016F5F7F4F0E946C05CE0101960E9492
S11304F01A0128960FB6F894DEBF0FBECDBFDF9168
S1130500CF910895EF92FF920F93CF93DF93CDB7DE
S1130510DEB728970FB6F894DEBF0FBECDBF262FE7
S1130520FC0141816081E12CF12C00E0CE010196B7
S11305300E942E05CE0101960E94660228960FB6EF
S1130540F894DEBF0FBECDBFDF91CF910F91FF9026
S1130550EF900895EF92FF920F93CF93DF93CDB76F
S1130560DEB72C970FB6F894DEBF0FBECDBFFC01EB
S11305702181223021F064E00E9482021CC0E0E06C
S1130580F1E02081298731813A871B8632813C87BB
S1130590222311F020E001C027E0FC0141816081A9
S11305A0CE0109967C0104E008970E942E05CE0135
S11305B001960E9466022C960FB6F894DEBF0FBE19
S11305C0CDBFDF91CF910F91FF90EF900895EF92FF
S11305D0FF920F93CF93DF93CDB7DEB763970FB638
S11305E0F894DEBF0FBECDBF7C01188A198A1A8A1F
S11305F01B8AFC0181818430F1F018F4823029F0E7
S113060024C0863029F08F3701F520E000E025C0B2
S113061080916E018823E1F0CE0109960E940608BC
S11306208E85888B8985898B8C859D859A8B8B8B10
S113063020E004E012C080916D01882361F00E94E3
S11306403A06888B20E001E008C024E000E005C001
S113065028E000E002C028E000E0F7014181608169
S1130660CE0140967C010F970E942E05CE01019683
S11306700E94660263960FB6F894DEBF0FBECDBF2C
S1130680DF91CF910F91FF90EF900895CF93DF9377
S1130690EC0180916E01811105C068E0CE010E94D9
S11306A0820221C061E0CE010E9482028823D9F037
S11306B09B8181E0913009F080E02C8130E0322F81
S11306C022279D81B901692B4E8150E0542F442784
S11306D09F81492B6115710521F4BA010E94DA0743
S11306E002C00E94E107DF91CF910895CF93DF9379
S11306F0EC0188818330A1F028F4813049F0823004
S113070059F04CC0853061F130F1863069F146C052
S1130710CE010E94E70246C0CE010E94AA0242C056
S11307208981843099F480916D01811105C068E05C
S1130730CE010E94820236C061E0CE010E94820294
S1130740882381F18B810E941B062CC064E0CE01BA
S11307500E94820227C064E0CE010E94820222C06D
S1130760CE010E9446031EC08981863011F08F3766
S113077081F461E0CE010E948202882399F081E035
S11307800E94E50789818F3769F48CE80E941B0673
S113079009C064E0CE010E94820204C063E0CE017D
S11307A00E948202DF91CF9108951F93CF93DF932C
S11307B0CDB7DEB760970FB6F894DEBF0FBECDBFDE
S11307C00E94B600882311F1CE0101960E94CB004D
S11307D0182F8823D9F0BE01675F7F4FCE010196A1
S11307E00E949705123031F462E0CE0109960E940E
S11307F082020CC0882331F0682FCE0109960E9432
S1130800820204C0CE0109960E94760360960FB658
S1130810F894DEBF0FBECDBFDF91CF911F91089535
S1130820CF93DF93CDB7DEB764970FB6F894DEBFEE
S11308300FBECDBF84E1E5E0F1E0DE011196019049
S11308400D928A95E1F700E020E046E250E068E28C
S113085070E087E290E00E94120280936F0161E0F1
S1130860CE0101960E94590780936E0146E06BE227
S113087070E08AE290E00E94D30580936D018823A2
S113088019F08CE80E941B0682E10E94940078947F
S11308900E94D5030E94560210E009C00E94D503AD
S11308A08FE99FE00197F1F700C000001F5F1A3045
S11308B0A8F3EECF9C0190E005C0F901E90FF11D0A
S11308C010829F5F9617C8F30895CF93DF93DC01DE
S11308D090E00BC0292F30E0FD01E20FF31FEB0184
S11308E0C20FD31F288120839F5F941798F3DF9151
S11308F0CF9108958150863010F481E0089580E00E
S113090008959FEF980F963020F08F3721F481E0FF
S1130910089581E0089580E00895893010F481E01D
S1130920089580E008950F931F93CF93DF9300976A
S113093009F466C0EC011881812F0E947A0488238F
S113094009F460C00981802F0E948104882309F47E
S11309505BC02A81263008F059C0822F07C0FE01EF
S1130960E80FF11D9381911153C08F5F8530B8F367
S11309701330C1F028F4113049F0123059F04AC054
S1130980153019F1C8F0163089F144C0211144C062
S113099080E05FC00150023008F040C0211140C027
S11309A080E057C003500230E8F52130E9F58B812F
S11309B0853BE0F580E04DC00530D1F52230D1F51E
S11309C08B818230C8F580E044C00630B9F525300B
S11309D0B9F58B818230B0F58E8190E0982F88270D
S11309E02F81822B892B81F180E033C08BEF800F24
S11309F0823010F00F3751F521112AC080E029C050
S1130A0086E027C083E025C084E023C085E021C0C0
S1130A1086E01FC083E01DC085E01BC084E019C0D0
S1130A2085E017C084E015C085E013C086E011C0DE
S1130A3084E00FC085E00DC086E00BC084E009C0EF
S1130A4085E007C086E005C086E003C084E001C0FD
S1130A5085E0DF91CF911F910F910895CF92DF929E
S1130A60EF92FF920F931F93CF93DF93009711F1AF
S1130A70122FD42EC62EEC01822F0E948D048823BF
S1130A80D9F00530D8F4002319F0E114F104C1F0D1
S1130A90C882D9821A830B83249664E0CE010E9413
S1130AA05A04002379F0402FB701CE010E94650457
S1130AB080E009C086E007C086E005C085E003C089
S1130AC086E001C080E0DF91CF911F910F91FF90EC
S1130AD0EF90DF90CF900895CF93DF93DC01EB018B
S1130AE0892B11F1209701F18C91888311968C91B7
S1130AF01197898312968C9112978A8313968C91FD
S1130B0013978B8390E00EC0292F30E0F9013496BF
S1130B10AF014C0F5D1F2A0F3B1FF9018481FA01BD
S1130B2080839F5F943080F3DF91CF910895FC011F
S1130B30892B11F16115710509F18081DB018C9319
S1130B40818111968C931197828112968C9390E0F7
S1130B500DC0292F30E0DF01A20FB31F13968C9133
S1130B60DB01A20FB31F13968C939F5F953088F31C
S1130B70CB010E949304089586E0089586E00895C9
S1130B80282F30E0A0EDB7E00E94A80824EB30E065
S1130B9040E050E00E948608DA01C9018053984F72
S1130BA0AF4FBF4F0895009709F43FC06115710519
S1130BB0F1F14830F0F5709374016093730121E012
S1130BC030E002C0220F331F4A95E2F720937201EE
S1130BD0FC013081322B3083FB0180812095282356
S1130BE02083A0E8B0E01C92E1E8F0E010821092CB
S1130BF08500109284008FE39CE990938700809392
S1130C00860080ED97E0909389008093880083E0CC
S1130C1086BB92E09C939AE1908380936F0010923C
S1130C20710181E080937001089580E0089580E06F
S1130C30089580E00895CF93909170019923B9F0BD
S1130C40853BA0F4C82F0E94C0059C018FB7F8947F
S1130C5091E007C03093890020938800C09371010C
S1130C6090E09111F7CF8FBF91E001C090E0892F00
S1130C70CF9108952FB7F89491E003C0809171014A
S1130C8090E09111FBCF2FBF08951F920F920FB6E2
S1130C900F9211248F939F93EF93FF93E09173012D
S1130CA0F0917401309729F0908180917201892B21
S1130CB08083FF91EF919F918F910F900FBE0F90C2
S1130CC01F9018951F920F920FB60F9211248F93B5
S1130CD09F93EF93FF93E0917301F0917401309728
S1130CE031F0908180917201809589238083FF91F6
S1130CF0EF919F918F910F900FBE0F901F901895B9
S1130D00FF920F931F93CF93DF938C01892B91F163
S1130D10F12C2BC0CF2DD0E0FE01EE0FFF1FE05EC3
S1130D20FE4F20813181D8010E94A8089B01AC01AB
S1130D3060E074E284EF90E00E948608822FBA019A
S1130D40A90142505109610971094F3F51056105DB
S1130D50710550F481508093B300C75EDE4F8881E3
S1130D608093B10081E007C0F39486E08F1590F67C
S1130D7080E001C080E0DF91CF911F910F91FF903F
S1130D800895A0E032C02A2F30E0F901E258FE4F66
S1130D9041E050E0008802C0440F551F0A94E2F776
S1130DA0682F70E00A2E02C0769567950A94E2F7E0
S1130DB060FF0DC0F9013496EE0FFF1FE258FE4F9D
S1130DC00190F081E02D9081492B40830DC0F90101
S1130DD03496EE0FFF1FE258FE4F0190F081E02D94
S1130DE09081409549234083AF5FA43060F2089519
S1130DF080910301813039F4E0917601F0E0EE5CFA
S1130E00FE4F808106C0E0917601F0E0E25DFE4F86
S1130E1080810E94C1060895DF92EF92FF920F93A2
S1130E201F93CF93DF93982F809175018823C9F185
S1130E309230A0F5211103C06115710589F1E22EEC
S1130E40EA018B01F92EDFB6F89481E022C0E0E7D5
S1130E50F0E090819D7F90831092B1001092B200D7
S1130E60CE010E948006811102C0DFBE1AC0E7E7EE
S1130E70F1E0F082D283C18314830383E68281E0AC
S1130E80858382E087BBE0E7F0E090819260908305
S1130E9080E08111DCCFDFBE81E003C080E001C0CF
S1130EA080E0DF91CF911F910F91FF90EF90DF9041
S1130EB00895009709F474C0623008F073C040E0EC
S1130EC020C0242F30E0F901EE0FFF1FE80FF91FB7
S1130ED00190F081E02DEF2B09F466C0D90114963E
S1130EE0AA0FBB1FA80FB91FED91FC91EF2B09F4BA
S1130EF05DC0FC01E20FF31F2089283008F058C0C0
S1130F004F5F4430F0F224E1FC01AEE7B1E0019020
S1130F100D922A95E1F760930301613011F488E0A2
S1130F2001C084E08093040140E01AC0242F30E023
S1130F30F901EE0FFF1FE258FE4F0190F081E02D02
S1130F405081D901A258BE4F81E090E050960C9098
S1130F5002C0880F991F0A94E2F7852B80834F5FA4
S1130F60443020F382E08093B0001092B1001092DC
S1130F70B200E0E7F0E080818D7F808380E00E9412
S1130F80C10610927601E7E7F1E081E080831282E6
S1130F90118214821382158216828093750108953A
S1130FA080E0089580E0089580E0089580E0089549
S1130FB080E00895AB0121E060E070E00E940C073E
S1130FC0089520E00E940C0708952FB7F89491E04B
S1130FD010C0E0E7F0E090819D7F90831092B10013
S1130FE0E7E7F1E0158216821482138212821182DD
S1130FF090E09111EECF2FBF90917501992329F0C4
S1131000882319F080E00E94C1060895009781F0BA
S11310103FB7F89421E009C027E0E7E7F1E0DC01FD
S113102001900D922A95E1F720E02111F5CF3FBF01
S113103008951F920F920FB60F9211242F933F938E
S11310404F935F936F937F938F939F93AF93BF93CC
S1131050EF93FF9380917C01882309F446C080912B
S11310607701813071F4809176018F5F80937601EE
S11310709091760180910401981790F01092760176
S11310800FC080917601811106C0809104018150C6
S11310908093760105C0809176018150809376011A
S11310A00E94F80680917D0181111FC080917A0110
S11310B090917B01892B39F0E7E7F1E083819481FA
S11310C001979483838380917A0190917B01892B8A
S11310D061F4E0E7F0E080818D7F80831092B100BD
S11310E0E7E7F1E0158212821182FF91EF91BF913F
S11310F0AF919F918F917F916F915F914F913F91AC
S11311002F910F900FBE0F901F901895A1E21A2EE9
S1131110AA1BBB1BFD010DC0AA1FBB1FEE1FFF1F97
S1131120A217B307E407F50720F0A21BB30BE40BE7
S1131130F50B661F771F881F991F1A9469F760952E
S11311407095809590959B01AC01BD01CF010895E8
S1131150A29FB001B39FC001A39F700D811D1124F4
S1131160911DB29F700D811D1124911D0895F89455
S1051170FFCFAB
S113117200010001082A002A002A002A002B002B61
S1131182002B002B000203040501020304050607D9
S11311920100080020004000800000010004090C46
S10D11A2060301030206040C080909
S9030000FC
