S00C00004C6162312E73726563D8
S11300000C9434000C9451000C9451000C94510045
S11300100C9451000C9451000C9451000C94510018
S11300200C9451000C9451000C9451000C94510008
S11300300C9451000C9451000C9451000C945100F8
S11300400C9451000C9451000C9451000C945100E8
S11300500C9451000C9451000C9451000C945100D8
S11300600C9451000C94510011241FBECFEFD8E022
S1130070DEBFCDBF11E0A0E0B1E0EEE0F5E002C0EC
S113008005900D92AA31B107D9F721E0AAE1B1E0B8
S113009001C01D92A132B207E1F70E94C5010C9480
S11300A085020C9400008F7798B19078892B88B9D9
S11300B0089588B1807888B9089587B18F6787B922
S11300C00E9459000895803118F00E945900089543
S11300D0E82FF0E0E65FFE4F80810E945300089510
S11300E0FC018181861721F06183128280E00895EA
S11300F08281843110F48F5F82838281843140F065
S11301008081681739F06083611106C081E0089529
S113011080E0089580E0089580E008951C9B02C06B
S113012061E001C060E081E091E00E947000089508
S11301301B9B02C061E001C060E087E091E00E9487
S1130140700008951A9B02C061E001C060E084E081
S113015091E00E947000089585B18C7F85B98BB1C0
S11301608F738BB908958BB1837C8BB90895CF932A
S1130170C82F0E94AC00CC2319F085B1826085B9E8
S1130180C23018F085B1816085B9C33018F08BB1E5
S113019080688BB9C43018F08BB180648BB9CF916F
S11301A00895CF93C82F0E94B300CC2319F08BB1CC
S11301B080628BB9C23018F08BB180618BB9C330C7
S11301C018F08BB188608BB9C43018F08BB184609F
S11301D08BB9CF9108951092200110921F011092B3
S11301E01E0110921D0181E080931C0185E0809323
S11301F0000110921B0110921A010E94AC000E948F
S1130200B300809100010E946300089580911A0157
S113021090911B01019690931B0180931A01883ED3
S1130220934098F010921B0110921A0180910001E2
S1130230882331F08150809300010E946300089567
S113024010921C0181E080931E01089591E0909327
S11302501D01813061F485B1836085B98BB1806CF7
S11302608BB90E94B30081E00E94630008950E944C
S1130270AC008BB18C638BB982E00E94630008955B
S11302801F93CF93DF930E948E00C82F0E94980083
S1130290182F0E94A200D82FCC2369F080911E0150
S11302A0811104C080911C01882319F080911D01E3
S11302B081110E94EB0080911C01882319F00E9497
S11302C006013AC080911E018823B1F180911D017D
S11302D0811132C0112339F080912001843018F447
S11302E08F5F80932001DD2339F080911F018430DA
S11302F018F48F5F80931F0180912001843040F0B7
S113030090911F01943020F081E00E94260114C0D6
S1130310843020F081E00E9426010EC090911F01DC
S1130320943020F082E00E94260106C00E94B700AB
S113033080911F010E94D100DF91CF911F910895F8
S113034084B1836084B98AB1806C8AB98AB18C63C0
S11303508AB984B1837E84B985B18C6185B90E94E0
S1130360AC000E94B3000E945D0080E00E94630024
S113037040E450E068EE73E080E090E00E94080200
S113038060E470E00E94F80108950E94A0010E94B8
S1130390EE018823E1F30E94F4010E944001F7CFAB
S11303A08034910589F030F48130910559F0089733
S11303B099F010C0811521E0920741F08115944015
S11303C039F008C081E0089583E0089584E0089539
S11303D085E0089580E0089582E0089595B3892F1B
S11303E0827091FD81E0089585B3826085BB089594
S11303F014BC15BC16BC87BD94B5926094BDCB01EA
S11304000E94D00195B5892B85BD0E94F401089501
S1130410CF92DF92EF92FF926B017C019A0140E050
S113042050E060E074E284EF90E00E944902C7016A
S1130430B6010E94390220E432E44FE050E00E9409
S11304404902DA01C901232B242B252B19F001972A
S1130450A109B1098F3F9105A105B10529F020F04B
S11304608FEF90E0A0E0B0E0FF90EF90DF90CF90AE
S11304700895DB018F939F930E946B02BF91AF910C
S1130480A29F800D911DA39F900DB29F900D1124EA
S11304900895A1E21A2EAA1BBB1BFD010DC0AA1FC1
S11304A0BB1FEE1FFF1FA217B307E407F50720F0D9
S11304B0A21BB30BE40BF50B661F771F881F991F54
S11304C01A9469F760957095809590959B01AC019D
S11304D0BD01CF0108950E947602A59F900DB49F9F
S11304E0900DA49F800D911D11240895A29FB00129
S11304F0B39FC001A39F700D811D1124911DB29F54
S1110500700D811D1124911D0895F894FFCFF4
S113050E050101000101000101003F065B4F666D0C
S10D051E7D077F6F777C395E7971E9
S9030000FC
