S01700006C61623270616E74616C6C616C63642E737265632C
S11300000C9434000C9449000C9449000C9449005D
S11300100C9449000C9449000C9449000C94490038
S11300200C9449000C9449000C9449000C94490028
S11300300C9449000C9449000C9449000C94490018
S11300400C9449000C9449000C9449000C94490008
S11300500C9449000C9449000C9449000C944900F8
S11300600C9449000C94490011241FBECFEFD8E032
S1130070DEBFCDBF11E0A0E0B1E0ECE6F5E002C0E8
S113008005900D92AC32B107D9F70E94A6000C94EA
S1130090B4020C940000CF93DF93EC0180E091E074
S11300A00E941202CE010E94930284E091E00E9419
S11300B01202DF91CF9108950F931F93CF938C0178
S11300C00E940B02C82F8B3211F08D32C9F78C2F8E
S11300D00E94040284E091E00E941202CB3239F4BF
S11300E0F8018081918101969183808306C0F80193
S11300F080819181019791838083CF911F910F918A
S11301000895CF93DF93EC0161E081E00E942F0119
S113011087E091E00E94220161E081E00E942F01CA
S113012088E191E00E94220162E081E00E942F01B7
S113013087E091E00E94220162E081E00E942F01A9
S1130140CE010E94E401DF91CF910895CF93DF9314
S113015000D0CDB7DEB71A8219820E94F6010E9440
S1130160430189819A810E9481008BE191E00E9480
S11301701202CE0101960E945C0089819A810E943C
S11301804B0089819A810E948100EFCF88B18260FF
S113019088B985E08A95F1F7000088B18D7F88B928
S11301A08FE891E00197F1F700C0000008959BB13A
S11301B093709BB995B19C7F95B988231CF49BB12E
S11301C094609BB986FF03C09BB198609BB985FF7F
S11301D003C09BB190619BB984FF03C09BB1906243
S11301E09BB983FF03C09BB190649BB982FF03C09A
S11301F09BB190689BB981FF03C095B1916095B99B
S113020080FF03C085B1826085B9089598B19E7F4F
S113021098B90E94D7000E94C6008FE39FE101971E
S1130220F1F700C00000089598B1916098B90E9458
S1130230D7000E94C6008FE891E00197F1F700C053
S113024000000895CF93DF93EC0103C00E941401D2
S1130250219688818111FACFDF91CF910895613081
S113026021F481580E940601089581540E940601D8
S1130270089581E00E9406018FE39FE10197F1F761
S113028000C0000008958AB18C6F8AB984B183607C
S113029084B987B1816087B987B1826087B988B131
S11302A08E7F88B988B18D7F88B98BB183708BB903
S11302B085B18C7F85B92FEF89EF90E02150804084
S11302C09040E1F700C0000088E30E9406018CE042
S11302D00E94060186E00E9406010E9439010895E9
S11302E01F93CF93DF9300D000D000D0CDB7DEB7FB
S11302F0AC01892B91F580E30E9414015BC09A0143
S1130300ADECBCEC0E94A5029695879596958795D1
S1130310969587959C01220F331F880F991F880F8C
S1130320991F880F991F820F931F9A01281B390B5D
S1130330C901E1E0F0E0EC0FFD1FE10FF11D805D6C
S113034080839A010E94A502AC0156954795569563
S11303504795569547951F5F01C010E0411551051B
S113036071F680E018C0282F30E0A1E0B0E0AC0FB7
S1130370BD1FA20FB31F9C91E12FF0E03197E21B48
S1130380F30B21E030E02C0F3D1FE20FF31F20811F
S11303902C9390838F5F912F9695891720F3E1E03A
S11303A0F0E0EC0FFD1FE10FF11D1082CE0101966C
S11303B00E94220126960FB6F894DEBF0FBECDBF71
S11303C0DF91CF911F910895CF93DF93EC0199238F
S11303D044F48DE20E941401882799278C1B9D0BFD
S11303E000C00E947001DF91CF9108951092C50062
S11303F087E68093C4001092C00088E18093C10016
S113040086E08093C20008959091C00095FFFCCFD0
S11304108093C60008958091C0008823E4F78091FA
S1130420C6000895CF93DF93EC0103C00E94040239
S1130430219688818111FACFDF91CF9108951F937E
S1130440CF93DF9300D000D000D0CDB7DEB7AC019E
S1130450892B91F580E30E9404025BC09A01ADEC04
S1130460BCEC0E94A50296958795969587959695DE
S113047087959C01220F331F880F991F880F991F9E
S1130480880F991F820F931F9A01281B390BC901EA
S1130490E1E0F0E0EC0FFD1FE10FF11D805D8083D2
S11304A09A010E94A502AC01569547955695479529
S11304B0569547951F5F01C010E04115510571F62F
S11304C080E018C0282F30E0A1E0B0E0AC0FBD1FE1
S11304D0A20FB31F9C91E12FF0E03197E21BF30BC5
S11304E021E030E02C0F3D1FE20FF31F20812C93FD
S11304F090838F5F912F9695891720F3E1E0F0E0C8
S1130500EC0FFD1FE10FF11D1082CE0101960E9438
S1130510120226960FB6F894DEBF0FBECDBFDF9150
S1130520CF911F910895CF93DF93EC01992344F465
S11305308DE20E940402882799278C1B9D0B00C022
S11305400E941F02DF91CF910895A29FB001B39F33
S1130550C001A39F700D811D1124911DB29F700DC8
S10F0560811D1124911D0895F894FFCF13
S113056C53333D000D0A0020202020202020202081
S113057C2020202020202000533300496E67726510
S10F058C7365202B206F202D3A20000006
S9030000FC
