S01100004D41535445523132432E73726563A1
S11300000C94E4040C9401050C9401050C94010572
S11300100C9401050C9401050C9401050C94010544
S11300200C9401050C9401050C9401050C94010534
S11300300C9401050C9401050C941A180C940105F8
S11300400C9401050C9401050C9401050C945415B1
S11300500C9401050C9401050C9401050C94010504
S11300600C9401050C940105F608FB080009050928
S11300700A090F09140919091E09230928092D0958
S113008032099F14A414A914BB14C014C014BB14C3
S1130090C514BB14CA14F414F914FE144573636133
S11300A06E656F207465726D696E61646F2E0D0AE2
S11300B000202030783239206573746120617061CA
S11300C06761646F20706F722058534855542E0D29
S11300D00A0020206E696E67756E6120646972651E
S11300E06363696F6E20726573706F6E64696F0D00
S11300F00A000D0A002020656E636F6E74726164DD
S11301006F20000D0A002C2072656D20002C2064E5
S11301106972200072756E20000D0A002C20454E75
S11301204120002C2070776D20006469722000202B
S11301306465670D0A006E6F20646973706F6E6981
S1130140626C650D0A002020537465707065723A04
S11301502000202044432F4C3239384E3A200020CE
S1130160205075657274613A2000202041677561E2
S11301703A2000457363616E656F20493243203035
S11301807830382D3078373720696E696369616457
S11301906F2E0D0A00457363616E656F204932430B
S11301A02079612061637469766F2E0D0A004465BD
S11301B073636F6E6F6369646F004572726F723A36
S11301C0206573706572616E646F204952206C699A
S11301D0627265004572726F723A2072656375705F
S11301E06572616E646F20656E6C61636573004552
S11301F073706572616E646F2072657469726F00EA
S11302005265746F726E6F2066696E616C00427520
S11302107363616E646F2073616C696461004C6127
S11302207661646F0042757363616E646F206C6104
S11302307661646F00456E6A61626F6E61646F001F
S11302405265666572656E6369612048432D535239
S113025030340042757363616E646F20656E6A6149
S1130260626F6E61646F00456E7472616461005206
S113027065706F736F005265766973696F6E20499C
S11302803243000D0A4163747561646F7265733A99
S11302900D0A0073696E206D7565737472610020B8
S11302A06D6D002C20756C74696D612076616C69CC
S11302B0646120005853485554204C4F57004F4E0A
S11302C0000D0A564C35333A2000206D6D2C202346
S11302D0002075732C200073696E206D756573742E
S11302E07261000D0A484320756C74696D61207653
S11302F0616C6964613A20002C2023006C6962728D
S1130300650064657465637461646F0073696E206D
S11303106D756573747261000D0A495220756C74B1
S1130320696D612076616C6964613A20000D0A454B
S1130330737461646F3A20004D6F646F206175744B
S11303406F6D617469636F3A2075736520703D65E4
S1130350737461646F206F20733D657363616E65B0
S11303606F2E0D0A004572726F72204932430045A8
S113037073706572616E646F2E2E2E000D0A004537
S113038052524F523A2000656E6C6163652070656D
S1130390726469646F20647572616E74652072653D
S11303A063757065726163696F6E00456E6C61633D
S11303B06573207265637570657261646F733B2049
S11303C06573706572616E646F204952206C696256
S11303D072652E0D0A00564C35334C305820617529
S11303E06E206E6F20646973706F6E69626C652E27
S11303F00D0A0073652070657264696F204952208C
S1130400616C2066696E616C697A6172000D0A0024
S113041043617257617368202D3E2000564C35337A
S1130420206E6F20696E6963696F20747261732036
S11304306C617661646F0073746570706572206EB0
S11304406F207265696E6963696F00564C3533209D
S11304506E6F207265696E6963696F20747261736F
S1130460206C617661646F006D6F746F7220444319
S1130470206E6F2073652064657475766F00427515
S11304807363616E646F206C617661646F00737472
S11304906570706572206E6F207265696E6963693C
S11304A06F0061677561206E6F20636572726F0003
S11304B061677561206E6F20616272696F006167A8
S11304C07561206E6F20636572726F207472617340
S11304D0204E4F5F53414D504C450072657370750B
S11304E0657374612048432D5352303420696E760D
S11304F0616C696461005265746F726E6F20666925
S11305006E616C20352073004772616369617320EA
S1130510706F7200656C656769726E6F73007374D7
S11305206570706572206E6F2061636570746F20F2
S11305307265746F726E6F0066616C6C6F20656EAD
S1130540207061726164612066696E616C004C6147
S11305507661646F004C6176616E646F007475201F
S11305606175746F006D6F746F72204443206E6FF9
S11305702061636570746F206F7264656E007374BC
S11305806570706572206E6F207365206465747584
S1130590766F00456E6A61626F6E61646F00456ECE
S11305A06A61626F6E616E646F0074752061757448
S11305B06F0066616C6C6F20616C20707265706195
S11305C072617220656E6A61626F6E61646F00466B
S11305D0494E0D0A00206D6D0D0A00564C35334C02
S11305E030583A20006572726F7220493243206499
S11305F0656C20564C35334C30580042757363613A
S11306006E646F20656E6A61626F6E61646F007301
S1130610746570706572206E6F2061636570746FAD
S1130620206176616E63650066616C6C6F20616C3D
S113063020696E696369616C697A617220564C3510
S1130640334C305800456E747261646100496E67C2
S1130650726573616E646F007475206175746F00E8
S1130660707565727461206E6F2061636570746F5C
S113067020353020677261646F73006C6563747534
S1130680726120495220696E76616C69646100521E
S113069065706F736F004269656E76656E69646F2D
S11306A020616C0043617257617368006E6F207340
S11306B065207075646F206173656775726172205F
S11306C0656C207265706F736F0029002C2054577D
S11306D04920004552524F52202849324320000DF0
S11306E00A00290D0A002C20545749200045525273
S11306F04F52202850726F746F636F6C206573744F
S113070061646F20004F4B0D0A003A200020002046
S113071020000D0A0020202020536572766F20707F
S113072075657274613A20000D0A00202020205360
S11307306572766F20616775613A20000D0A0020AA
S1130740202020536C617665322053544F503A2058
S1130750000D0A0020202020536C6176653120535F
S1130760544F503A20004552524F520D0A004F4BFD
S11307700D0A00202053544F502073656775726F23
S11307803A2000290D0A002C2054574920002C201F
S113079049324320004552524F522028564C2000E3
S11307A04F4B0D0A003A20002020564C35334C3074
S11307B0582000536C6176653200536C6176653164
S11307C0005265766973696F6E2049324320696E01
S11307D0696369616C3A0D0A005265696E74656EED
S11307E074616E646F20656E2031303030206D731B
S11307F02E2E2E0D0A00436F6E6578696F6E2049A8
S113080032433A204552524F520D0A004572726FDC
S11308107220493243005265696E74656E74616E6C
S1130820646F0043617257617368206175746F6D02
S1130830617469636F20686162696C697461646F73
S11308402E0D0A00436F6E6578696F6E204932433E
S11308503A20455849544F53410D0A005265766970
S113086073616E646F20493243004573706572652D
S11308702E2E2E0073652070657264696F20756E6C
S113088020536C6176650065737461646F20696ED2
S11308907465726E6F20646573636F6E6F636964F1
S11308A06F004573706572616E646F207265746960
S11308B0726F0073746570706572206E6F2064656A
S11308C07475766F207265746F726E6F0052657600
S11308D06973616E646F20493243004573706572B9
S11308E0652E2E2E00307800703A20657374616492
S11308F06F2020733A20657363616E656F204932FF
S1130900430D0A000D0A005265736574204D43556A
S113091053523A20004D4153544552313243206CD6
S11309206973746F2E0D0A00FF010000FF000900B7
S113093010001100240125FF7500FF014E2C480012
S11309403020FF003009540031043203408346252F
S11309506000270050065100529656085730610037
S113096062006400650066A0FF012232471449FF5B
S11309704A00FF007A0A7B007821FF0123344200F9
S113098044FF4526460540400E06201A4340FF001A
S113099034033544FF0131044B094C054D04FF0079
S11309A0440045204708482867007004710172FE1E
S11309B076007700FF010D01FF00800101F8FF01BF
S11309C08E010001FF00800011241FBECFEFD8E08C
S11309D0DEBFCDBF11E0A0E0B1E0E0ECF1E402C085
S11309E005900D92A830B107D9F722E0A8E0B1E054
S11309F001C01D92AD35B207E1F70E947F150C943A
S1130A00DE200C94000088E893E114C0009769F498
S1130A108091B900887F8093000186E0809308016B
S1130A2084E08093BC0080E00895019725E02A9536
S1130A30F1F700002091BC00222344F781E00895DF
S1130A400F931F93CF938B019C01C42F87B18F7C8D
S1130A5087B9443079F018F4413031F023C0403183
S1130A6091F04034C9F01EC0E9EBF0E080818C7F46
S1130A7080831EC0E9EBF0E080818D7F80838081DC
S1130A808160808315C0E9EBF0E080818E7F8083F4
S1130A908081826080830CC0E9EBF0E08081836018
S1130AA0808306C0E9EBF0E080818C7F8083C1E025
S1130AB0011511052105310521F400EA16E821E0AC
S1130AC030E060E074E284EF90E0A90198010E94B4
S1130AD09C20CA01B90160517109810991090C2F47
S1130AE010E020E030E0A9019801220F331F441FD9
S1130AF0551F0E949C202093B80084E08093BC0082
S1130B008091B900887F8093000110920801CF91F1
S1130B101F910F9108951092080184EA8093BC00FC
S1130B200E940305882369F08091B900887F80932F
S1130B300001883029F082E08093080180E0089564
S1130B4081E0089584EA8093BC000E940305882311
S1130B5069F08091B900887F80930001803129F089
S1130B6082E08093080180E0089581E0089584E99B
S1130B708093BC0088E893E115C0009771F48091DC
S1130B80B900887F8093000187E080930801ECEB33
S1130B90F0E0108284E080830895019725E02A958F
S1130BA0F1F700002091BC0024FDE7CF0895809365
S1130BB0BB0084E88093BC000E9403058823A9F04D
S1130BC08091B900887F80930001883149F0883290
S1130BD049F0803449F084E08093080180E008956E
S1130BE081E0089581E0089581E00895880F6111FE
S1130BF081600E94D705811104C093E0909308019D
S1130C00089581E008950F931F93CF93C82F8B010C
S1130C100E948B058823C1F060E08C2F0E94F605AA
S1130C20882391F0C0E00DC0F801EC0FF11D808124
S1130C300E94D705811104C094E09093080104C078
S1130C40CF5FC83088F381E0CF911F910F91089551
S1130C500F931F93CF93009729F481E080930801A9
S1130C6080E026C0662321F024EC2093BC0003C05E
S1130C7024E82093BC00C62F8C010E94030588231E
S1130C80B9F08091B900887F80930001CC2311F0E2
S1130C90803521F4C11107C0883529F085E080939F
S1130CA0080180E005C08091BB00F801808381E0E9
S1130CB0CF911F910F9108950F931F93CF93C82F36
S1130CC08B01442329F00E94A205811105C01FC095
S1130CD00E948B058823D9F061E08C2F0E94F605D1
S1130CE08823A9F0C0E010C061E0C73008F060E0DC
S1130CF0C8018C0F911D0E942806811104C095E043
S1130D009093080104C0CF5FC83070F381E0CF91A5
S1130D101F910F910895CF93DF93D82F109208015C
S1130D200E948B05C82F882329F060E08D2F0E9434
S1130D30F605C82F0E94B70580910801873011F489
S1130D4080E001C08C2FDF91CF910895CF92DF9284
S1130D50EF92FF920F931F93CF93DF936115710569
S1130D6019F04115510529F481E080930801C0E090
S1130D7077C0F22E8A016B01E82E109208010E94BE
S1130D800306C82F811103C00E94B70569C0F11082
S1130D9027C041E0B8018E2D0E945C06C82F811146
S1130DA003C00E94B7055CC00E94B705809108018A
S1130DB0873009F450C0F8019081F60180819813BE
S1130DC006C0F8019181F6018181981729F088E025
S1130DD080930801C0E044C010920801C1E040C003
S1130DE00E94B705809108018730B9F1D0E02CC08A
S1130DF08FE99FE00197F1F700C0000040E0B801DF
S1130E008E2D0E945C06C82F811107C00E94B70571
S1130E10809108018730B9F423C00E94B7058091FE
S1130E2008018730E1F0F8019081F6018081981380
S1130E300AC0F8019181F6018181981304C01092CF
S1130E400801C1E00DC0DF5FD83290F288E08093E2
S1130E500801C0E005C0C0E003C0C0E001C0C0E0BC
S1130E608C2FDF91CF911F910F91FF90EF90DF9026
S1130E70CF90089521E00E94A60608958091000174
S1130E80089580910801089588B1816088B985E04A
S1130E908A95F1F7000088B18E7F88B98FE891E0D8
S1130EA00197F1F700C0000008959BB193709BB9BE
S1130EB095B19C7F95B980FF03C09BB194609BB9A9
S1130EC081FF03C09BB198609BB982FF03C09BB1B3
S1130ED090619BB983FF03C09BB190629BB984FF6F
S1130EE003C09BB190649BB985FF03C09BB190681C
S1130EF09BB986FF03C095B1916095B988231CF412
S1130F0085B1826085B9089598B19D7F98B90E9492
S1130F1055070E9444078FE39FE10197F1F700C052
S1130F200000089598B1926098B90E9455070E94F4
S1130F3044078FE891E00197F1F700C0000008959D
S1130F40613021F481580E948407089581540E94DD
S1130F508407089581E00E9484078FE39FE101974D
S1130F60F1F700C0000008958AB18C6F8AB984B18A
S1130F70836084B987B1826087B987B1816087B99A
S1130F8088B18D7F88B988B18E7F88B98BB1837021
S1130F908BB985B18C7F85B92FEF89EF90E0215013
S1130FA080409040E1F700C0000088E30E9484077D
S1130FB08CE00E94840786E00E9484070E94AA07AE
S1130FC008951092C50087E68093C40088E1809359
S1130FD0C10086E08093C2000895909158019F5FFC
S1130FE0209157019217C9F3E0915801F0E0E75AB4
S1130FF0FE4F808390935801E1ECF0E080818062A1
S113100080830895CF93DF93EC01FC01849105C0A4
S11310100E94ED072196FE0184918111F9CFDF91A1
S1131020CF9108958091C000881F8827881F089554
S11310308091C60008951F93CF93DF9300D000D012
S11310401F92CDB7DEB7AC01892B91F580E30E94E6
S1131050ED073FC09A01ADECBCEC0E94C42096950C
S1131060879596958795969587959C01220F331FB2
S1131070880F991F880F991F880F991F820F931F3C
S11310809A01281B390BC901805DE1E0F0E0EC0F07
S1131090FD1FE10FF11D80839A010E94C420AC0161
S11310A05695479556954795569547951F5F01C0A8
S11310B010E04115510571F60AC01150E1E0F0E06D
S11310C0EC0FFD1FE10FF11D80810E94ED0711114E
S11310D0F4CF0F900F900F900F900F90DF91CF915E
S11310E01F9108958F708A3010F4805D01C0895C6F
S11310F00E94ED070895CF93C82F85EE98E00E94D3
S113110002088C2F82958F700E9472088C2F0E9487
S11311107208CF910895CF93DF93D82FC62F83ED14
S113112096E00E9402088D2F90E00E941B088CEC30
S113113096E00E9402088C2F0E947B088AEC96E0BD
S11311400E940208DF91CF910895DC01CB01821B3C
S1131150930BA40BB50B80959095A095B09588271B
S1131160B7FD83959927AA27BB270895FB01908192
S1131170992321F0FA019081981739F091E0FB014D
S11311809083FA01808381E0089580E00895A0E0CF
S1131190B0E0880F991FAA1FBB1FAC01BD01440F0B
S11311A0551F661F771F440F551F661F771F840F37
S11311B0951FA61FB71FBC01CD01635E7F4F8F4FE4
S11311C09F4F2AE330E040E050E00E949C20C90198
S11311D00895E0910A018E2F90E08D30910508F07A
S11311E046C0FC01EC5CFF4F0C94BE2086E792E005
S11311F00E94020808958FE692E00E940208089572
S113120087E692E00E940208089583E592E00E9436
S11312100208089580E492E00E940208089585E39C
S113122092E00E940208089585E292E00E9402087A
S113123008958EE192E00E94020808958EE092E003
S11312400E940208089580E092E00E940208089536
S11312508FEE91E00E940208089584ED91E00E94CF
S1131260020808958AEB91E00E94020808958EEA2C
S113127091E00E9402080895CF93DF938DE293E0FA
S11312800E9402080E94E90888E193E00E94020893
S113129080910401811105C08CE093E00E94020852
S11312A016C080910501811105C082E093E00E947F
S11312B0020804C08CEF92E00E94020888EF92E0DA
S11312C00E9402088091060190E00E941B0883EEB0
S11312D092E00E94020880913E01811105C087EDD1
S11312E092E00E94020818C0CEE3D1E089819A817D
S11312F00E941B0881ED92E00E94020889819A8174
S11313000E94C7080E941B088AEC92E00E9402080F
S11313108B8190E00E941B0881EC92E00E940208FD
S113132080913C01882329F08EEB92E00E94020810
S113133004C084EB92E00E94020883EA92E00E94D7
S1131340020880913301882359F0809131019091F2
S113135032010E941B088FE992E00E94020804C037
S113136083E992E00E94020883E892E00E94020866
S1131370DF91CF91089580910101882329F085E9B7
S113138091E00E9402080895E1E0F1E081E08083A9
S113139088E08183128283E791E00E940208089525
S11313A0CF93DF93EC0180E194E00E940208CE0128
S11313B00E9402088DE094E00E940208DF91CF9120
S11313C008950E9412088823D9F00E9418088D30CD
S11313D0B9F08A30A9F0803711F0803531F40E94D9
S11313E03C0981E0809309010895833711F0833526
S11313F019F40E94BB09089588E393E00E9402084F
S1131400089582E491E00E94921DEAE0F1E012AABC
S113141013AA0895CF93DF93EC01FC01849105C0D6
S11314200E9492072196FE0184918111F9CFDF91E8
S1131430CF9108950F931F93CF93DF938C01EB010A
S11314400E94AA0761E081E00E94A007C8010E94EF
S11314500A0A62E081E00E94A007CE010E940A0A03
S1131460DF91CF911F910F910895EAE0F1E010828E
S113147061A372A383A394A30E94010A6BED78E095
S11314808DEC98E00E941A0A0895DF92EF92FF9281
S11314900F931F93CF93DF93CDB7DEB760970FB64B
S11314A0F894DEBF0FBECDBF61157105B1F14115D2
S11314B05105A9F17A018B01D82EBE016F5F7F4FD0
S11314C0C8010E94CC16F8018081813051F4AE012C
S11314D0475F5F4FBE016F5F7F4F8D2D0E943A07BC
S11314E00AC021E0AE01475F5F4FBE016F5F7F4FCF
S11314F08D2D0E94A6068823A1F0B701CE0109967E
S11315000E94F31681110FC0B701C8010E942C1765
S113151091E0882349F090E007C090E005C090E096
S113152003C090E001C090E0892F60960FB6F89454
S1131530DEBF0FBECDBFDF91CF911F910F91FF9002
S1131540EF90DF900895DF92EF92FF920F931F9335
S1131550CF93DF93CDB7DEB728970FB6F894DEBFED
S11315600FBECDBFD82ECE0101960E9494168111D4
S113157008C0A701BE016F5F7F4F8D2D0E94450AF1
S113158001C080E028960FB6F894DEBF0FBECDBF31
S1131590DF91CF911F910F91FF90EF90DF9008950D
S11315A0EF92FF920F931F93CF93DF93CDB7DEB7E4
S11315B028970FB6F894DEBF0FBECDBF9E012F5FF4
S11315C03F4F790100E010E020E04FE761E00E9426
S11315D0A30A882321F09B8181E0911180E0289661
S11315E00FB6F894DEBF0FBECDBFDF91CF911F9130
S11315F00F91FF90EF900895EF92FF920F931F9336
S1131600CF93DF93CDB7DEB728970FB6F894DEBF3C
S11316100FBECDBFFE0131967F010E94A30A88232D
S113162029F09B8181E0913009F080E028960FB683
S1131630F894DEBF0FBECDBFDF91CF911F910F9104
S1131640FF90EF9008950F931F93CF93DF931F9212
S1131650CDB7DEB749838E010F5F1F4F21E0462FC0
S113166063E00E94FC0A0F90DF91CF911F910F91CC
S113167008950F931F93CF93DF9300D000D01F9250
S1131680CDB7DEB789831A821B8283E08C8380E224
S11316908D838E010F5F1F4F25E046E065E082E1F8
S11316A00E94FC0A0F900F900F900F900F90DF9103
S11316B0CF911F910F9108950F931F93CF93DF93B1
S11316C000D0CDB7DEB789836A838E010F5F1F4FC9
S11316D022E045E064E081E10E94FC0A0F900F9053
S11316E0DF91CF911F910F9108950F931F93462F70
S11316F000E010E020E066E00E94FC0A1F910F91D8
S113170008951F93CF93DF936FE781E10E94750BD8
S1131710C82F6FE782E10E94750BD82F40E063E089
S113172081E10E94230B182F41E964E082E10E94C9
S1131730230BCC2339F0DD2339F0112339F0811147
S113174007C007C080E005C080E003C080E001C09E
S113175081E0DF91CF911F910895CF92DF92EF92B4
S1131760FF92CF93DF936B017C01EA018FE793E053
S11317700E940208CE010E9402088CE793E00E94B6
S11317800208CAE0D1E08BE0888319AA1FA61AA632
S11317900E94010A0E94810B6FE673E085E693E0E4
S11317A00E941A0ACD8EDE8EEF8EF8A284EFC80E48
S11317B081E0D81EE11CF11CC98EDA8EEB8EFC8E02
S11317C0DF91CF91FF90EF90DF90CF900895CF926B
S11317D0DF92EF92FF926B017C0120912301309103
S11317E0240140912501509126010E94A5088823D7
S11317F009F184EFC80E81E0D81EE11CF11CC092EF
S11318002301D0922401E0922501F092260181E186
S11318100E94D00AF82E82E10E94D00AFF2011F023
S113182081110AC00E94091844E758E00E94AD0BD8
S113183080E003C081E001C081E0FF90EF90DF9081
S1131840CF900895CF93DF9342E364E082E10E9456
S1131850230B811107C00E94091840E656E00E943C
S1131860AD0B1BC0CAE0D1E082E088830E94091856
S1131870DC01CB018854944FAF4FBF4F89839A83C7
S1131880AB83BC831EA668E576E08DE496E00E94F7
S11318901A0A85E496E00E94D009DF91CF91089559
S11318A0CF93DF9340E063E081E10E94230B811139
S11318B007C00E94091842EA54E00E94AD0B1BC005
S11318C081E00E94390B811107C00E9409184EE87B
S11318D054E00E94AD0B0FC0CAE0D1E086E08883DB
S11318E00E9409186D877E878F87988B1BAA8EE7C5
S11318F094E00E94D009DF91CF910895EAE0F1E0ED
S113190081E0808316A617A612A613A616A215A216
S113191010AA0E94010A0E94810B811107C00E9433
S113192009184CEA56E00E94AD0B08950E9409186C
S1131930EAE0F1E06583768387839087DC01CB015D
S11319408C509E4FAF4FBF4F818F928FA38FB48F18
S113195064EA76E086E996E00E941A0A8FE896E047
S11319600E94D0090895CF93DF930E94810B8111C7
S113197007C00E94091848E355E00E94AD0B28C037
S11319800E94010A80E00E94390B811107C00E9465
S113199009184EE155E00E94AD0B1AC0CAE0D1E02F
S11319A089E088830E940918DC01CB0188579C4E8A
S11319B0AF4FBF4F89839A83AB83BC8364E175E0E7
S11319C088E095E00E941A0A86EF94E00E94D0090C
S11319D0DF91CF910895CF93DF9366E082E10E9477
S11319E0750BC82F41E964E082E10E94230BD82FD4
S11319F040E063E081E10E94230BCC2321F0DD234E
S1131A0011F0811107C00E94091842EB55E00E94B1
S1131A10AD0B18C0CAE0D1E084E088831EA21DA2E9
S1131A201BA61BAA0E94091869877A878B879C8743
S1131A306AEA75E08EE995E00E941A0A83E995E066
S1131A400E94D009DF91CF910895CF93DF9366E090
S1131A5082E10E94750B811107C00E9409184EE7AC
S1131A6055E00E94AD0B29C060E881E00E945C0B48
S1131A70811107C00E94091845E655E00E94AD0B8C
S1131A801CC0CAE0D1E087E0888318AA1BAA0E9480
S1131A900918DC01CB0188519C4FAF4FBF4F89839C
S1131AA09A83AB83BC836DE575E085E595E00E9480
S1131AB01A0A8EE495E00E94D009DF91CF9108952F
S1131AC0AF92BF92CF92DF92EF92FF920F931F9348
S1131AD0CF93DF93CDB7DEB728970FB6F894DEBF68
S1131AE00FBECDBF009749F16115710541F16B013E
S1131AF05C01CE0101967C0100E010E020E042E0B0
S1131B0062E082E10E94A30A8823D9F08E81D50184
S1131B108C939885F60190838B818730A1F0811195
S1131B2014C08D81882399F0E4E0F1E081E08083A2
S1131B308C918183928382E00BC080E009C080E0B5
S1131B4007C080E005C081E003C080E001C080E000
S1131B5028960FB6F894DEBF0FBECDBFDF91CF91AC
S1131B601F910F91FF90EF90DF90CF90BF90AF90B7
S1131B700895CF92DF92EF92FF921F93CF93DF935A
S1131B8000D0CDB7DEB76B017C0120910F013091FD
S1131B90100140911101509112010E94A50888235F
S1131BA0F1F184E6C80ED11CE11CF11CC0920F01B6
S1131BB0D0921001E0921101F0921201BE016E5F09
S1131BC07F4FCE0101960E94600D182F811107C02E
S1131BD00E9409184BE756E00E94AD0B20C046E373
S1131BE051E064E371E08A810E94B6088823B9F069
S1131BF0123059F48981811108C0809138018530EF
S1131C0030F48F5F8093380102C0109238018091C4
S1131C103801853020F00E9409180E94220C0F9090
S1131C200F90DF91CF911F91FF90EF90DF90CF90B5
S1131C300895CF92DF92EF92FF921F93CF93DF9399
S1131C4000D0CDB7DEB76B017C0120910F0130913C
S1131C50100140911101509112010E94A50888239E
S1131C60F1F184E6C80ED11CE11CF11CC0920F01F5
S1131C70D0921001E0921101F0921201BE016E5F48
S1131C807F4FCE0101960E94600D182F811107C06D
S1131C900E94091843EF53E00E94AD0B20C046E3B5
S1131CA051E064E371E08A810E94B6088823B9F0A8
S1131CB0123059F48981882341F0809139018530AB
S1131CC030F48F5F8093390102C010923901809102
S1131CD03901853020F00E9409180E947E0C0F9073
S1131CE00F90DF91CF911F91FF90EF90DF90CF90F5
S1131CF00895CF92DF92EF92FF92CF936B017C0114
S1131D002091230130912401409125015091260115
S1131D100E94A508882301F1D701C6018C509E4F6B
S1131D20AF4FBF4F8093230190932401A0932501CB
S1131D30B093260181E10E94D00AC82F82E10E945B
S1131D40D00ACC2311F0811107C00E94091847E87A
S1131D5053E00E94AD0B04C0C701B6010E94190EE6
S1131D60CF91FF90EF90DF90CF900895AF92BF9204
S1131D70CF92DF92EF92FF920F931F93CF93DF9353
S1131D80CDB7DEB728970FB6F894DEBF0FBECDBF30
S1131D90009791F16115710589F15B016C01CE0128
S1131DA001967C0100E010E020E041E062E081E186
S1131DB00E94A30A882321F18E8190E0982F88271E
S1131DC02F81822BD60111969C938E939885F501D1
S1131DD090838B818730B1F0811116C08D81882367
S1131DE0A9F0EEE3F1E081E080832D913C91328310
S1131DF02183938382E00BC080E009C080E007C0A8
S1131E0080E005C081E003C080E001C080E0289646
S1131E100FB6F894DEBF0FBECDBFDF91CF911F91F7
S1131E200F91FF90EF90DF90CF90BF90AF90089507
S1131E30CF92DF92EF92FF921F93CF93DF9300D064
S1131E401F92CDB7DEB76B017C0120911301309155
S1131E50140140911501509116010E94A508882390
S1131E6009F475C084E6C80ED11CE11CF11CC092B3
S1131E701301D0921401E0921501F0921601BE01F3
S1131E806D5F7F4FCE0101960E94B60E182F81110F
S1131E9007C00E9409184BED54E00E94AD0B57C0D7
S1131EA047E351E065E371E08B810E94B608882323
S1131EB009F44DC01130D1F480910A01853009F044
S1131EC046C040E063E081E10E94230B811107C01A
S1131ED00E9409184EEB54E00E94AD0B38C0EAE0B2
S1131EE0F1E084E0808316A215A231C089819A8131
S1131EF00E94C70820910A012430B1F49093300164
S1131F0080932F014AE563E081E10E94230B811154
S1131F1007C00E94091840EB54E00E94AD0B17C0A3
S1131F2085E080930A0113C0A0E0B0E040912F0146
S1131F305091300160E070E04C5E5F4F6F4F7F4F17
S1131F4084179507A607B70710F00E94500C0F904E
S1131F500F900F90DF91CF911F91FF90EF90DF9042
S1131F60CF900895DF92EF92FF920F931F93CF9338
S1131F70DF93CDB7DEB728970FB6F894DEBF0FBE58
S1131F80CDBF80910901882309F498C0813051F4B0
S1131F908AE691E00E9402080F2EF3E0DF2EF02D76
S1131FA081E120C0823049F48FE591E00E9402086B
S1131FB06894DD24D2F882E115C0833051F482E5BF
S1131FC091E00E9402080F2EF5E0DF2EF02D81E152
S1131FD009C086E491E00E9402080F2EF6E0DF2E8D
S1131FE0F02D82E19E012F5F3F4F790100E010E068
S1131FF020E04D2D61E00E94A30A882319F08B8113
S1132000882329F086E391E00E9402084DC08DEFF9
S11320108D0D823048F48D8190E00E941B088FE280
S113202091E00E94020840C035E0D3121DC08AE24C
S113203091E00E9402088D8190E00E941B0883E2D7
S113204091E00E9402088E8190E00E941B088CE1BE
S113205091E00E9402088F8190E00E941B0889E1B0
S113206091E00E94020820C084E191E00E940208ED
S11320708D8190E00E941B088DE091E00E9402088F
S11320808E8190E00E941B0886E091E00E94020885
S11320908F8190E0982F88272885822B0E941B0827
S11320A083E091E00E94020880910901843018F0D5
S11320B01092090103C08F5F8093090128960FB61F
S11320C0F894DEBF0FBECDBFDF91CF911F910F916A
S11320D0FF90EF90DF900895CF92DF92EF92FF92FE
S11320E06B017C0182E491E00E94161E882321F09A
S11320F00E94010A80E00DC0EAE0F1E081E082ABD9
S113210013AAC586D686E786F08AC18AD28AE38A6C
S1132110F48AFF90EF90DF90CF900895CF93DF93F0
S11321200E9409180E946C10811107C00E940918AE
S113213048E256E00E94AD0B1AC081E00E94390BC0
S1132140811107C00E9409184FE056E00E94AD0BB0
S11321500EC0CAE0D1E083E088830E9409186D872D
S11321607E878F87988B8BEF95E00E94D009DF9153
S1132170CF910895CF92DF92EF92FF92CF93DF93A6
S11321806B017C01209127013091280140912901A4
S113219050912A010E94A508882309F457C084EFAE
S11321A0C80E81E0D81EE11CF11CC0922701D09218
S11321B02801E0922901F0922A010E94810B81E119
S11321C00E94D00AF82E82E10E94D00AFF2011F06A
S11321D0811103C010923B0139C0EAE0F1E081A90A
S11321E08F5F81AB833090F10E9409180E946C10BC
S11321F0811107C010923B0186ED93E00E94020812
S113220025C00E94010A0E94810B811103C0109213
S11322103B011CC0CAE0D1E08CE088831FA61AA64B
S11322200E9409186D837E838F8398870E94091802
S1132230DC01CB018C509E4FAF4FBF4F898F9A8FDB
S1132240AB8FBC8F8BEA93E00E940208DF91CF91A1
S1132250FF90EF90DF90CF900895CF930E943E07B8
S1132260C82F0E9441076C2F0E948B08CF910895BC
S1132270DF92EF92FF920F931F93CF93DF93CDB72B
S1132280DEB728970FB6F894DEBF0FBECDBF8C0122
S1132290D62E8FE097E00E940208C8010E9402082F
S11322A08DE097E00E9402088D2D0E947B088AE051
S11322B097E00E940208CE0101967C0100E010E044
S11322C020E04FE761E08D2D0E94A30A882349F0A6
S11322D09B81911106C085E097E00E94020881E08D
S11322E01FC08823B1F08DEE96E00E9402088B8116
S11322F090E00E941B0886EE96E00E9402080E946D
S11323003E070E947B0882EE96E00E94020880E06D
S113231007C00E942D118FED96E00E94020880E014
S113232028960FB6F894DEBF0FBECDBFDF91CF91D4
S11323301F910F91FF90EF90DF9008955F926F923D
S11323407F928F929F92AF92BF92CF92DF92EF9241
S1132350FF920F931F93CF93DF9381EC97E00E943A
S1132360020861E18AEB97E00E943811F82E62E1DD
S113237083EB97E00E943811E82E88EA97E00E94E8
S1132380020889E20E947B0885EA97E00E9402081D
S113239082E491E00E94161EC82F81110CC0EAE06D
S11323A0F1E081E082AB13AA80EA97E00E94020880
S11323B0552453941EC085E997E00E9402088C2F8F
S11323C090E00E941B088EE897E00E9402080E9499
S11323D0410790E00E941B0887E897E00E940208EA
S11323E00E943E070E947B0883E897E00E9402084F
S11323F0512C0E94010A6FE781E10E94750BC82FDE
S11324000E944107782E0E943E07682E6FE782E102
S11324100E94750BD82F0E944107982E0E943E07F8
S1132420882E40E063E081E10E94230B182F0E9474
S11324304107B82E0E943E07A82E41E964E082E1DC
S11324400E94230B082F0E944107D82E0E943E07AA
S1132450C82E83E797E00E940208CC2359F0DD23BD
S113246049F0112339F0002329F08EE697E00E9409
S113247002083CC086E697E00E940208C1110CC025
S113248084E597E00E940208662D872D0E948B0840
S113249081E597E00E940208D1110CC08FE397E018
S11324A00E940208682D892D0E948B088CE397E016
S11324B00E94020811110CC08BE297E00E940208EE
S11324C06A2D8B2D0E948B0888E297E00E940208F7
S11324D001110CC085E197E00E9402086C2D8D2D3E
S11324E00E948B0882E197E00E940208FF2071F0AD
S11324F0EE2071F0552071F0CC2371F0DD2371F0E2
S1132500112371F001110EC080E00DC080E00BC0FA
S113251080E009C080E007C080E005C080E003C01F
S113252080E001C081E0DF91CF911F910F91FF9076
S1132530EF90DF90CF90BF90AF909F908F907F905F
S11325406F905F90089520912B0130912C01409160
S11325502D0150912E010E94A5088823B9F16AE645
S113256078E08CE598E00E941A0A0E949E11882364
S113257069F084E498E00E94020883E298E00E94F3
S113258002080E9409180E947E0C08950E94010A04
S113259066E178E08CE098E00E941A0A86EF97E002
S11325A00E94020889ED97E00E9402080E9409181F
S11325B0DC01CB0188519C4FAF4FBF4F80932B015F
S11325C090932C01A0932D01B0932E010895CF92E6
S11325D0DF92EF92FF920F931F93CF93DF931F929B
S11325E0CDB7DEB74115510509F49CC020913C01DB
S11325F0222309F499C08A016B017C0180913D0179
S1132600811131C0209117013091180140911901B5
S113261050911A01C701B6010E94A508882309F444
S113262085C082E491E00E94DB1F811181C0EAE051
S1132630F1E081E083ABC58AD68AE78AF08ED701C0
S1132640C601C296A11DB11D85879687A787B08B49
S113265085E0C80ED11CE11CF11CC18AD28AE38A30
S1132660F48A80E070C020911B0130911C014091DC
S11326701D0150911E01C701B6010E94A5088823BF
S113268009F458C0D701C6010596A11DB11D809358
S11326901B0190931C01A0931D01B0931E01BE0168
S11326A06F5F7F4F82E491E00E943120811144C02A
S11326B08981882359F0B80182E491E00E947E2048
S11326C010923D0181113AC081E03DC040911F014B
S11326D05091200160912101709122018091450166
S11326E0909146019A01AB01280F391F411D511DDC
S11326F0C701B6010E94A508882311F182E491E084
S11327000E947520EAE0F1E013AA92E3C90ED11CFD
S1132710E11CF11CC586D686E786F08A813091F4E7
S113272082E011C082E00FC082E00DC080E00BC0E7
S113273082E009C080E007C082E005C082E003C0F7
S113274080E001C080E00F90DF91CF911F910F9145
S1132750FF90EF90DF90CF900895CF93DF9300D058
S1132760CDB7DEB7AE014F5F5F4F0E94E7128230F4
S113277039F40E94091845EE55E00E94AD0B3AC0A9
S11327808130C1F58BED95E00E94020889819A8120
S11327900E941B0885ED95E00E94020889819A81B8
S11327A09C01245131092D3B374020F5EAE0F1E04A
S11327B021E021A790A787A32081233039F48950F1
S11327C091400697B8F40E94EB0C14C0263039F4FB
S11327D08D579109069770F40E94250D0BC028307F
S11327E049F48734910530F48FEC95E00E94020897
S11327F00E94B30C0F900F90DF91CF9108950F9327
S11328001F9365E081E10E94750B811107C00E944E
S1132810091848E654E00E94AD0B45C082E491E0FB
S11328200E947520882339F00E9409184BE454E073
S11328300E94AD0B38C081E00E94390B811107C0A2
S11328400E94091847E354E00E94AD0B2CC082E4B7
S113285091E00E94DB1F882339F00E9409184CE1A3
S113286054E00E94AD0B1FC00E940918EAE0F1E099
S113287028E0208321E023AB658B768B878B908FB8
S11328808B019C010E5C1F4F2F4F3F4F058716870E
S11328902787308BDC01CB010596A11DB11D818BEF
S11328A0928BA38BB48B1F910F91089520910B01F0
S11328B030910C0140910D0150910E010E94A50828
S11328C08823D1F0EAE0F1E080A98F5F80AB853006
S11328D018F00E94FF1308950E940918DC01CB012F
S11328E088519C4FAF4FBF4F80930B0190930C01C5
S11328F0A0930D01B0930E010895CF92DF92EF9251
S1132900FF926B017C0180910A01882359F08B307E
S113291049F08C3039F0C701B6010E94E70B8823D7
S113292009F477C0E0910A018E2F90E08D30910573
S113293008F069C0FC01EF5BFF4F0C94BE20C70197
S1132940B6010E94A31265C0C701B6010E94B90D69
S113295060C020910B0130910C0140910D01509108
S11329600E01C701B6010E94A508882309F451C0CD
S11329700E948E104EC0C701B6010E94AD1349C01B
S1132980C701B6010E94180F44C0C701B6010E94D6
S113299056143FC020910B0130910C0140910D0160
S11329A050910E01C701B6010E94A508882389F140
S11329B066E082E10E94750B811107C00E9409182C
S11329C043EB58E00E94AD0B24C0EAE0F1E08AE05A
S11329D0808317A612A6C582D682E782F08682EA91
S11329E098E00E94D00915C0C701B6010E94190ED3
S11329F010C0C701B6010E94BA100BC0C701B601CE
S1132A000E94790E06C00E94091847E858E00E9407
S1132A10AD0BFF90EF90DF90CF900895CF93DF93AD
S1132A2080910101882399F1809102010E948B0613
S1132A30882379F085EF90E00E940208C1E0D1E09C
S1132A4089810E947B0882EF90E00E94020881E065
S1132A508A83809102018737B8F080910301811144
S1132A6004C082ED90E00E94020880913C01811133
S1132A7004C081EB90E00E9402088CE990E00E947F
S1132A8002081092010103C08F5F80930201DF915D
S1132A90CF91089580910901882319F00E94B20F03
S1132AA008950E940E1508951F920F920FB60F926B
S1132AB011248F939F93EF93FF93909157018091EB
S1132AC05801981306C0E1ECF0E080818F7D80838B
S1132AD00DC0E0915701F0E0E75AFE4F80818093EA
S1132AE0C600809157018F5F80935701FF91EF914A
S1132AF09F918F910F900FBE0F901F901895C4B7A0
S1132B0014BE0E94E1070E94B40741E060EA76E83F
S1132B1081E090E00E94200582E491E00E943F1D44
S1132B2022E045E250E064E270E082E491E00E9439
S1132B305B1D82E491E00E94921D0E94FC17789430
S1132B4085E199E00E94020887E099E00E9402086A
S1132B508C2F0E947B0884E099E00E94020888EE92
S1132B6098E00E9402080E9409180E94350A0E94F7
S1132B7009180E947D140E94E1090E944A15F7CFAA
S1132B809C0190E005C0F901E90FF11D10829F5FDF
S1132B909617C8F30895CF93DF93DC0190E00BC040
S1132BA0292F30E0FD01E20FF31FEB01C20FD31F09
S1132BB0288120839F5F941798F3DF91CF91089524
S1132BC08150863010F481E0089580E008959FEFED
S1132BD0980F963020F08F3721F481E0089581E03A
S1132BE0089580E00895893010F481E0089580E02C
S1132BF008950F931F93CF93DF93009709F466C052
S1132C00EC011881812F0E94E015882309F460C02B
S1132C100981802F0E94E715882309F45BC02A816B
S1132C20263008F059C0822F07C0FE01E80FF11DBD
S1132C309381911153C08F5F8530B8F31330C1F085
S1132C4028F4113049F0123059F04AC0153019F106
S1132C50C8F0163089F144C0211144C080E05FC03F
S1132C600150023008F040C0211140C080E057C03C
S1132C7003500230E8F52130E9F58B81853BE0F51E
S1132C8080E04DC00530D1F52230D1F58B81823002
S1132C90C8F580E044C00630B9F52530B9F58B811C
S1132CA08230B0F58E8190E0982F88272F81822B77
S1132CB0892B81F180E033C08BEF800F823010F0DC
S1132CC00F3751F521112AC080E029C086E027C0C2
S1132CD083E025C084E023C085E021C086E01FC0D6
S1132CE083E01DC085E01BC084E019C085E017C0E7
S1132CF084E015C085E013C086E011C084E00FC0F5
S1132D0085E00DC086E00BC084E009C085E007C003
S1132D1086E005C086E003C084E001C085E0DF9161
S1132D20CF911F910F910895CF92DF92EF92FF926E
S1132D300F931F93CF93DF93009701F1263000F593
S1132D40222319F001151105E9F07801122FEC0185
S1132D50688349832A836C0183E0C80ED11C65E033
S1132D60C6010E94C015112329F0412FB701C601E5
S1132D700E94CB15CE010E94F91505C086E003C060
S1132D8085E001C086E0DF91CF911F910F91FF9004
S1132D90EF90DF90CF900895CF93DF93DC01EB01A8
S1132DA0892BF1F02097E1F08C91888311968C9116
S1132DB01197898312968C9112978A8390E00EC0A2
S1132DC0292F30E0F9013396AF014C0F5D1F2A0F14
S1132DD03B1FF9018381FA0180839F5F953080F363
S1132DE0DF91CF9108951F93CF93DF93FC01DB0113
S1132DF0892B39F1109739F180818C938181119657
S1132E008C931197828112968C9312971381139647
S1132E101C93139790E00BC0292F30E0EF01C20FF1
S1132E20D31F4C81ED01C20FD31F4C839F5F94309D
S1132E3098F30E94F315882341F0153040F085E0A3
S1132E4007C086E005C086E003C086E001C080E0DC
S1132E50DF91CF911F910895FF920F931F93CF930A
S1132E60DF93009709F48FC06115710509F48DC0D3
S1132E70FB012081FC011081211389C0FB01218108
S1132E80FC010181201385C0EB01FA808F2D0E9483
S1132E90F315882309F47FC02B81253008F07DC009
S1132EA0822F07C0FE01E80FF11D9481911177C0B4
S1132EB08F5F8430B8F3F6E0FF1548F082E0F8162F
S1132EC060F4FF2001F1E1E0FE16A9F06AC0F7E02A
S1132ED0FF1639F088E0F81264C0211164C080E064
S1132EE085C0123009F061C0243009F060C08C81C3
S1132EF081115FC07BC01350143008F05CC02111F5
S1132F005CC080E073C0123081F4243009F057C0F3
S1132F108C81813009F055C0023009F054C08D8194
S1132F20823008F052C080E061C0113009F04FC017
S1132F30053069F018F4033020F407C0063019F0A6
S1132F4004C081E005C084E003C080E001C083E0E8
S1132F5082133FC08DEF800F823018F48C81853B43
S1132F60D0F5053031F48C818230B8F58E81823011
S1132F70B0F50630B1F58C818230A8F58D818230B0
S1132F80A0F580E033C086E031C086E02FC086E043
S1132F902DC086E02BC086E029C085E027C086E0EE
S1132FA025C086E023C085E021C085E01FC085E000
S1132FB01DC086E01BC086E019C085E017C085E00F
S1132FC015C086E013C080E011C086E00FC086E023
S1132FD00DC085E00BC086E009C086E007C086E02E
S1132FE005C080E003C086E001C086E0DF91CF9198
S1132FF01F910F91FF90089582E084BD83E085BD09
S113300089EF87BD16BCEEE6F0E0808182608083A4
S113301008952FB7F89431E009C060915902709176
S11330205A0280915B0290915C0230E03111F5CF3D
S11330302FBF08951F920F920FB60F9211248F93F2
S11330409F93AF93BF938091590290915A02A0919C
S11330505B02B0915C020196A11DB11D80935902DF
S113306090935A02A0935B02B0935C02BF91AF911C
S11330709F918F910F900FBE0F901F9018959C01F8
S11330803327A90102C0440F551F9A95E2F7CA01DC
S113309001960895CF92DF92EF92FF926115710528
S11330A081059105E9F0DC01CB010197A109B10982
S11330B020E030E006C0B695A795979587952F5FD9
S11330C03F4F6C017D01CC24CD28CE28CF2899F721
S11330D0322F2227BC017727CB01822B932B02C0EE
S11330E080E090E0FF90EF90DF90CF900895A82FBC
S11330F0B0E020E03FE24AE350E00E94D3206C506D
S11331007E4F8F4F9F4F28EE33E040E050E00E9407
S11331109C20CA01B9010895CF93DF93EC01862F57
S11331200E9477189B01AC01DE010E94D3206C50F1
S11331307E4F8F4F9F4F28EE33E040E050E00E94D7
S11331409C20CA01B901DF91CF9108958F929F927B
S1133150AF92BF92CF92DF92EF92FF924B015C014C
S1133160842F0E9477186B017C01A8EEB3E0A501BF
S113317094010E94D32046015701B694A7949794D2
S11331808794680D791D8A1D9B1DA70196010E94D5
S11331909C20CA01B901FF90EF90DF90CF90BF90BF
S11331A0AF909F908F900895EF92FF920F931F938B
S11331B0CF93DF930097B1F14115510511F421111B
S11331C033C0D22F7A01C62F8C010E948B0588232D
S11331D069F1F8018081880F0E94D705811104C02C
S11331E00E94B70581E023C08C2F0E94D70581116E
S11331F012C00E94B70581E01AC0F701EC0FF11D5F
S113320080810E94D705811104C00E94B70581E026
S11332100EC0CF5F01C0C0E0CD1778F30E94B705A0
S113322080E005C084E003C084E001C081E0DF9158
S1133230CF911F910F91FF90EF900895CF93DF935B
S113324000D0CDB7DEB759834A8322E0AE014F5F89
S11332505F4F0E94D4180F900F90DF91CF91089583
S11332600F931F93CF93DF93009739F1042F162FF9
S1133270EC010E948B05882311F18881880F0E943C
S1133280D705811104C00E94B70581E019C0812FC0
S11332900E94D705811104C00E94B70581E010C0C7
S11332A0802F0E94D705811104C00E94B70581E0D8
S11332B007C00E94B70580E003C084E001C081E03C
S11332C0DF91CF911F910F910895EF92FF920F9389
S11332D01F93CF93DF93009709F451C04115510513
S11332E009F44FC0222309F44EC0122F7A01062F8D
S11332F0EC010E948B05882309F447C08881880F5C
S11333000E94D705811104C00E94B70581E03EC028
S1133310802F0E94D705811104C00E94B70581E067
S113332035C00E94A205811104C00E94B70581E046
S11333302DC08881880F81600E94D705811118C033
S11333400E94B70581E022C08FEF810FC81710F4E7
S113335061E001C060E0C7018C0F911D0E94280646
S1133360811104C00E94B70581E010C0CF5F01C085
S1133370C0E0C11748F30E94B70580E007C084E0AD
S113338005C084E003C084E001C081E0DF91CF91F7
S11333901F910F91FF90EF90089521E00E9465190D
S11333A00895AF92BF92CF92DF92EF92FF920F9364
S11333B01F93CF93DF931F92CDB7DEB761157105CD
S11333C009F4CCC04115510509F4CAC07A016B0156
S11333D08C0141E060E80E9430198111C3C041E0D2
S11333E06FEFC8010E9430198111BEC040E060E057
S11333F0C8010E9430198111B9C046E06FEFC801BD
S11334000E9430198111B4C0AE014F5F5F4F63E871
S1133410C8010E94CD198111ADC04981446063E89F
S1133420C8010E9430198111A7C047E06FEFC8019D
S11334300E9430198111A2C041E061E8C8010E94D4
S1133440301981119DC041E060E8C8010E94301923
S1133450811198C04BE664E9C8010E9430198111BA
S113346093C040E063E8C8010E94301981118EC006
S1133470A12CB12CAE014F5F5F4F63E8C8010E94DD
S1133480CD19811185C08981811111C0F801838111
S11334909481A816B90608F07DC08FE99FE00197D2
S11334A0F1F700C000009FEFA91AB90AE3CF41E089
S11334B063E8C8010E94301981116EC0AE014F5FEC
S11334C05F4F62E9C8010E94CD19811167C08981EB
S11334D0982F9F77F6019083881F8827881FF7010C
S11334E0808340E061E8C8010E943019811158C00E
S11334F046E06FEFC8010E943019811153C0AE013C
S11335004F5F5F4F63E8C8010E94CD1981114CC021
S113351049814B7F63E8C8010E943019811146C07C
S113352041E06FEFC8010E943019811141C041E0B0
S113353060E0C8010E94301981113CC040E06FEF87
S1133540C8010E943019811137C040E060E8C80109
S11335500E943019882389F181E02FC084E02DC0B6
S113356084E02BC081E029C081E027C081E025C030
S113357081E023C081E021C081E01FC081E01DC043
S113358081E01BC081E019C081E017C081E015C053
S113359081E013C083E011C081E00FC081E00DC061
S11335A081E00BC081E009C081E007C081E005C073
S11335B081E003C081E001C081E00F90DF91CF91F1
S11335C01F910F91FF90EF90DF90CF90BF90AF903D
S11335D008950F931F93CF93DF931F92CDB7DEB758
S11335E08B011982AE014F5F5F4F61E00E94CD19DC
S11335F0898184FB992790F9F801908383FB9927AB
S113360090F9918382FB992790F9928386FB9927FD
S113361090F99383881F8827881F84830F90DF91F4
S1133620CF911F910F910895CF93DF931F92CDB740
S1133630DEB71982662339F0AE014F5F5F4F60E752
S11336400E94CD1906C0AE014F5F5F4F60E50E9436
S1133650CD1989818F5F880F0F90DF91CF910895E5
S1133660EF92FF920F931F93CF93DF931F92CDB7E7
S1133670DEB78C01462F416060E00E943019811151
S11336802EC0E12CF12CAE014F5F5F4F63E1C80106
S11336900E94CD19811125C08981877081F4F801B8
S11336A083819481E816F906F0F48FE99FE001978D
S11336B0F1F700C000009FEFE91AF90AE4CF41E0F6
S11336C06BE0C8010E94301981110FC040E060E036
S11336D0C8010E943019882349F081E007C081E0C5
S11336E005C081E003C083E001C081E00F90DF9159
S11336F0CF911F910F91FF90EF9008950F931F9317
S1133700CF93DF9300D0CDB7DEB741155105A1F0BB
S11337108A0122E0AE014F5F5F4F0E94651981115B
S11337200CC0898190E0982F88272A81822BF80188
S11337309183808380E001C084E00F900F90DF913B
S1133740CF911F910F910895CF92DF92EF92FF9244
S11337500F931F93CF93DF9300D01F92CDB7DEB7A3
S11337607C016B018A0119821B821A8260E00E942B
S1133770141BF8018083AE014F5F5F4F66E4C701FD
S11337800E94CD19898190E00196F8019383828388
S113379060810E948C18F801608771878287938703
S11337A0AE014E5F5F4F61E5C7010E947E1B8A81B7
S11337B09B810E943F18F8019583848360810E9455
S11337C08C18F801648775878687978761E0C7013D
S11337D00E94141BF8018183AE014E5F5F4F61E7C5
S11337E0C7010E947E1B8A819B810E943F18F801B9
S11337F097838683F6012381222339F0F8012481FB
S11338003581821B930B97838683F80161818681BE
S113381097810E948C18F801608B718B828B938B3B
S11338200F900F900F90DF91CF911F910F91FF9008
S1133830EF90DF90CF9008950F931F93CF93DF9372
S1133840CDB7DEB769970FB6F894DEBF0FBECDBF14
S11338508C01BE016F5F7F4F0E94E91AAE014A5F7F
S11338605F4FBE016F5F7F4FC8010E94A41B898117
S1133870882359F08E859F85A889B989BC01CD011B
S11338806C57724F8F4F9F4F04C066E37BE080E01C
S113389090E02A81222389F00E851F8528893989A1
S11338A00E541D4F2F4F3F4F000F111F221F331F68
S11338B0600F711F821F931F13C02B81222381F07D
S11338C00E851F8528893989DC01CB01800F911F62
S11338D0A21FB31FBC01CD016C567D4F8F4F9F4F6C
S11338E02C81222381F00A891B892C893D89DC01E2
S11338F0CB01800F911FA21FB31FBC01CD016C56D9
S11339007D4F8F4F9F4F2D81222381F00E891F8978
S1133910288D398DDC01CB01800F911FA21FB31FAD
S1133920BC01CD016A5D7D4F8F4F9F4F69960FB6E5
S1133930F894DEBF0FBECDBFDF91CF911F910F91E1
S11339400895BF92CF92DF92EF92FF920F931F934D
S1133950CF93DF93CDB7DEB769970FB6F894DEBF88
S11339600FBECDBF8C016A017B01BE016F5F7F4F2B
S11339700E94E91AAE014A5F5F4FBE016F5F7F4F3D
S1133980C8010E94A41B8981882349F08E859F85E4
S1133990A889B9898C57924FAF4FBF4F04C086E3B3
S11339A09BE0A0E0B0E02A81222389F04E855F8568
S11339B0688979894E545D4F6F4F7F4F440F551F6F
S11339C0661F771F840F951FA61FB71F0FC02B817B
S11339D0222361F04E855F8568897989840F951F5C
S11339E0A61FB71F8C569D4FAF4FBF4FBC80BB2047
S11339F061F04A895B896C897D89840F951FA61FB4
S1133A00B71F8C569D4FAF4FBF4F2D81222321F1FD
S1133A108A5D9D4FAF4FBF4FC816D906EA06FB0615
S1133A20E8F0A7019601281B390B4A0B5B0BCA016E
S1133A30B9014F810E94A618BB2031F02A853B852D
S1133A40620F731F811D911D0E944A18AC0161E72A
S1133A50C8010E941E1903C080E001C084E0699679
S1133A600FB6F894DEBF0FBECDBFDF91CF911F918B
S1133A700F91FF90EF90DF90CF90BF900895FC01DD
S1133A80892BC1F089E280831182128288EC90E054
S1133A909483838316821582108617821286118678
S1133AA01386148616861586108A1786128A118A3A
S1133AB0138A148A0895009769F16115710561F1FB
S1133AC04115510559F1283058F5DC0116967C93BF
S1133AD06E93159718965C934E931797E1E0F0E078
S1133AE0DF0102C0AA0FBB1F2A95E2F79D01FC016A
S1133AF0A38731E03487DA013C91209523232C936A
S1133B00FB012081DC011B968C91809582238083AC
S1133B1080E0089584E0089584E0089584E00895A1
S1133B2084E00895009739F1DC011C962C911C97D0
S1133B30222319F11796ED91FC91189730811B9669
S1133B402C911B972095232320831596ED91FC91AE
S1133B50169730811B962C911B97232B2083EFE91A
S1133B60FFE03197F1F700C0000029E22C93129690
S1133B701C9280E0089584E0089584E00895FC0197
S1133B80892BB1F18485882341F1A781B0859C916B
S1133B908385809589238C93A581B6819C918385A7
S1133BA0892B8C938FE39FE10197F1F700C000000C
S1133BB0A781B0859C918385809589238C93A58169
S1133BC0B6819C918385809589238C938FED9EE2A9
S1133BD00197F1F700C0000006C08FED9EE2019747
S1133BE0F1F700C0000089E28083128280E008952A
S1133BF084E00895CF93DF931F92CDB7DEB7198287
S1133C00009769F0AE014F5F5F4F60EC0E94CD19E1
S1133C10811107C099819E3E29F082E003C084E0AF
S1133C2001C081E00F90DF91CF910895CF92DF9290
S1133C30EF92FF920F931F93CF93DF93CDB7DEB72D
S1133C4029970FB6F894DEBF0FBECDBF009709F4D5
S1133C5068C18C010E94BF1D81119EC1C8010E94D0
S1133C60FA1D811199C1AE014F5F5F4F69E8C80128
S1133C700E94CD19811190C14981416069E8C80150
S1133C800E943019811188C140E068E8C8010E948F
S1133C903019811148C141E060E8C8010E9430191F
S1133CA0811143C141E06FEFC8010E9430198111B5
S1133CB03EC140E060E0C8010E943019811139C161
S1133CC0A8014F5F5F4F61E9C8010E94CD198111BE
S1133CD032C141E060E0C8010E94301981112DC158
S1133CE040E06FEFC8010E943019811128C140E003
S1133CF060E8C8010E943019811123C1AE014F5FF1
S1133D005F4F60E6C8010E94CD1981111CC1498131
S1133D10426160E6C8010E943019811116C140E277
S1133D2050E064E4C8010E941E19811110C14FEFD4
S1133D3061E0C8010E94301981110BC1AE014D5FD1
S1133D405F4FBE016E5F7F4FC8010E94D119811180
S1133D5023C126E0AE014C5F5F4F60EBC8010E94B7
S1133D6065198111F8C041E06FEFC8010E94301954
S1133D708111F3C040E06FE4C8010E943019811141
S1133D80EEC04CE26EE4C8010E9430198111E9C012
S1133D9040E06FEFC8010E9430198111E4C044EB88
S1133DA066EBC8010E9430198111DFC08B81882322
S1133DB011F05CE001C050E080E040E033C08517C2
S1133DC018F09A81491318C0982F977021E030E0B9
S1133DD002C0220F331F9A95E2F72095982F9695EB
S1133DE096959695E4E0F0E0EC0FFD1FE90FF11DC8
S1133DF090819223908315C0982F969596959695C9
S1133E00E4E0F0E0EC0FFD1FE90FF11D208130E04C
S1133E10982F977002C0359527959A95E2F720FD63
S1133E204F5F8F5F803358F226E0AE014C5F5F4FE7
S1133E3060EBC8010E94D418811199C0F12C12C002
S1133E408F2D90E0880F991FFC01E85DF64F649177
S1133E50FC01E75DF64F4491C8010E9430198111BD
S1133E6088C0F3948FE48F1558F744E06AE0C801E2
S1133E700E94301981117FC0AE014F5F5F4F64E82B
S1133E80C8010E94CD19811178C049814F7E64E830
S1133E90C8010E943019811172C041E06BE0C80171
S1133EA00E94301981116DC0C8010E941C1C6B0155
S1133EB07C01672B682B692B09F465C048EE61E02F
S1133EC0C8010E943019811160C0B701A601C80160
S1133ED00E94A11C811160C041E061E0C8010E9400
S1133EE03019811154C060E4C8010E94301B811153
S1133EF053C042E061E0C8010E943019811149C0F9
S1133F0060E0C8010E94301B811146C048EE61E0A8
S1133F10C8010E94301981113EC091E0F8019283DA
S1133F203BC084E039C081E037C081E035C081E026
S1133F3033C081E031C081E02FC081E02DC081E039
S1133F402BC081E029C081E027C081E025C081E049
S1133F5023C081E021C081E01FC081E01DC081E059
S1133F601BC081E019C081E017C081E015C081E069
S1133F7013C081E011C081E00FC081E00DC081E079
S1133F800BC081E009C081E007C081E005C081E089
S1133F9003C081E001C081E029960FB6F894DEBF2A
S1133FA00FBECDBFDF91CF911F910F91FF90EF9086
S1133FB0DF90CF900895CF93DF930097F1F1FC0148
S1133FC022812223E1F1EC0141E060E80E943019F2
S1133FD0811137C041E06FEFCE010E943019811189
S1133FE032C040E060E0CE010E94301981112DC042
S1133FF0498161E9CE010E943019811128C041E054
S113400060E0CE010E943019811123C040E06FEFBF
S1134010CE010E94301981111EC040E060E8CE013B
S11340200E943019811119C041E060E0CE010E9464
S11340303019882399F081E011C084E00FC085E035
S11340400DC081E00BC081E009C081E007C081E0C0
S113405005C081E003C081E001C081E0DF91CF9120
S113406008950F931F93CF93DF931F92CDB7DEB7BD
S1134070009771F16115710569F1DC0112962C91BB
S11340801297222349F154962C915497222381F0BC
S11340905196ED91FC915297208153968C918223F5
S11340A011F481E001C080E0FB01808380E017C04F
S11340B08B01AE014F5F5F4F63E10E94CD19811107
S11340C00DC09981977009F091E0D8019C9307C0C5
S11340D084E005C084E003C085E001C081E00F9066
S11340E0DF91CF911F910F910895009729F041E03E
S11340F06BE00E943019089584E00895CF93DF9314
S1134100009791F06115710589F0FC012281222349
S113411079F0AB01EC016EE10E947E1B811109C0B4
S1134120CE010E94752005C084E003C084E001C074
S113413085E0DF91CF910895A1E21A2EAA1BBB1B43
S1134140FD010DC0AA1FBB1FEE1FFF1FA217B3075F
S1134150E407F50720F0A21BB30BE40BF50B661F75
S1134160771F881F991F1A9469F760957095809539
S113417090959B01AC01BD01CF010895EE0FFF1F87
S11341800590F491E02D0994A29FB001B39FC00162
S1134190A39F700D811D1124911DB29F700D811D6F
S11341A01124911D08950E94C420A59F900DB49FD1
S11341B0900DA49F800D911D11240895F894FFCFB4
S10B41C0F800080000010000F2
S9030000FC
