:100000000C94C5040C94E2040C94E2040C94E204F5
:100010000C94E2040C94E2040C94E2040C94E204C8
:100020000C94E2040C94E2040C94E2040C94E204B8
:100030000C94E2040C94E2040C9473170C94E20404
:100040000C94E2040C94E2040C94E2040C94BA14B0
:100050000C94E2040C94E2040C94E2040C94E20488
:100060000C94E2040C94E204D708DC08E108E608EA
:10007000EB08F008F508FA08FF08040909090E0959
:10008000130905140A140F1421142614261421141C
:100090002B14211430145A145F14641445736361D3
:1000A0006E656F207465726D696E61646F2E0D0AE6
:1000B00000202030783239206573746120617061CE
:1000C0006761646F20706F722058534855542E0D2D
:1000D0000A0020206E696E67756E61206469726522
:1000E0006363696F6E20726573706F6E64696F0D04
:1000F0000A000D0A002020656E636F6E74726164E1
:100100006F20000D0A002C2072656D20002C2064E9
:100110006972200072756E20000D0A002C20454E79
:100120004120002C2070776D20006469722000202F
:100130006465670D0A006E6F20646973706F6E6985
:10014000626C650D0A002020537465707065723A08
:100150002000202044432F4C3239384E3A200020D2
:10016000205075657274613A2000202041677561E6
:100170003A2000457363616E656F20493243203039
:100180007830382D3078373720696E69636961645B
:100190006F2E0D0A00457363616E656F204932430F
:1001A0002079612061637469766F2E0D0A004465C1
:1001B00073636F6E6F6369646F004572726F723A3A
:1001C000206573706572616E646F204952206C699E
:1001D000627265004572726F723A20726563757063
:1001E0006572616E646F20656E6C61636573004556
:1001F00073706572616E646F2072657469726F00EE
:100200005265746F726E6F2066696E616C00427524
:100210007363616E646F2073616C696461004C612B
:100220007661646F0042757363616E646F206C6108
:100230007661646F00456E6A61626F6E61646F0023
:100240005265666572656E6369612048432D53523D
:1002500030340042757363616E646F20656E6A614D
:10026000626F6E61646F00456E747261646100520A
:1002700065706F736F005265766973696F6E2049A0
:100280003243000D0A4163747561646F7265733A9D
:100290000D0A0073696E206D7565737472610020BC
:1002A0006D6D002C20756C74696D612076616C69D0
:1002B000646120005853485554204C4F57004F4E0E
:1002C000000D0A564C35333A2000206D6D2C20234A
:1002D000002075732C200073696E206D7565737432
:1002E0007261000D0A484320756C74696D61207657
:1002F000616C6964613A20002C2023006C69627291
:10030000650064657465637461646F0073696E2071
:100310006D756573747261000D0A495220756C74B5
:10032000696D612076616C6964613A20000D0A454F
:10033000737461646F3A20004D6F646F206175744F
:100340006F6D617469636F3A2075736520703D65E8
:10035000737461646F206F20733D657363616E65B4
:100360006F2E0D0A004572726F72204932430045AC
:1003700073706572616E646F2E2E2E000D0A00453B
:1003800052524F523A2000656E6C61636520706571
:10039000726469646F20647572616E746520726541
:1003A00063757065726163696F6E00456E6C616341
:1003B0006573207265637570657261646F733B204D
:1003C0006573706572616E646F204952206C69625A
:1003D00072652E0D0A00564C35334C30582061752D
:1003E0006E206E6F20646973706F6E69626C652E2B
:1003F0000D0A0073652070657264696F2049522090
:10040000616C2066696E616C697A6172000D0A0028
:1004100043617257617368202D3E200042757363FB
:10042000616E646F2066696E616C697A6163696F81
:100430006E0073746570706572206E6F20726569EE
:100440006E6963696F006D6F746F72204443206E34
:100450006F2073652064657475766F006D6F746FBF
:10046000722044432072656368617A6F2063616D16
:1004700062696F0042757363616E646F206C6176B0
:1004800061646F0073746570706572206E6F2072A6
:1004900065696E6963696F0061677561206E6F20C1
:1004A000636572726F0061677561206E6F206162B3
:1004B00072696F0061677561206E6F20636572728B
:1004C0006F2074726173204E4F5F53414D504C4505
:1004D000007265737075657374612048432D5352C3
:1004E000303420696E76616C696461005265746FA6
:1004F000726E6F2066696E616C20352073004772E2
:10050000616369617320706F7200656C6567697201
:100510006E6F730073746570706572206E6F20610A
:10052000636570746F207265746F726E6F006661C0
:100530006C6C6F20656E2070617261646120666909
:100540006E616C004C617661646F004C6176616E27
:10055000646F007475206175746F006D6F746F72D5
:10056000204443206E6F2061636570746F206F724A
:1005700064656E0073746570706572206E6F2073B1
:10058000652064657475766F00456E6A61626F6E92
:1005900061646F00456E6A61626F6E616E646F00C8
:1005A0007475206175746F0066616C6C6F20616C8E
:1005B00020707265706172617220656E6A61626F2F
:1005C0006E61646F00206D6D0D0A00564C35334C22
:1005D00030583A2000564C35332066696E616C3ACB
:1005E00020006572726F72204932432064656C206E
:1005F000564C35334C30580042757363616E646FEE
:1006000020656E6A61626F6E61646F0073746570FD
:10061000706572206E6F2061636570746F20617603
:10062000616E63650066616C6C6F20616C20696E41
:10063000696369616C697A617220564C35334C305C
:100640005800456E747261646100496E677265732B
:10065000616E646F007475206175746F00707565EC
:10066000727461206E6F2061636570746F20393021
:1006700020677261646F73006C65637475726120CA
:10068000495220696E76616C696461005265706FD1
:10069000736F004269656E76656E69646F20616C88
:1006A0000043617257617368006E6F20736520703C
:1006B00075646F20617365677572617220656C2067
:1006C0007265706F736F0029002C20545749200009
:1006D0004552524F52202849324320003078000DB5
:1006E0000A00290D0A002C20545749200045525277
:1006F0004F52202850726F746F636F6C2065737453
:1007000061646F20004F4B0D0A003A20002000204A
:1007100020000D0A0020202020536C6176653220D5
:1007200053544F503A20000D0A0020202020536CD3
:10073000617665312053544F503A20004552524F54
:10074000520D0A004F4B0D0A00202053544F5020E9
:1007500073656775726F3A2000290D0A002C2054CA
:10076000574920002C2049324320004552524F5215
:100770002028564C20004F4B0D0A003A2000202024
:10078000564C35334C30582000536C61766532003E
:10079000536C61766531005265766973696F6E20BE
:1007A00049324320696E696369616C3A0D0A0052EF
:1007B00065696E74656E74616E646F20656E20315C
:1007C000303030206D732E2E2E0D0A00436F6E6573
:1007D00078696F6E204932433A204552524F520D8C
:1007E0000A004572726F7220493243005265696E89
:1007F00074656E74616E646F0043617257617368F3
:10080000206175746F6D617469636F2068616269DE
:100810006C697461646F2E0D0A00436F6E657869B0
:100820006F6E204932433A20455849544F53410D89
:100830000A005265766973616E646F204932430025
:100840004573706572652E2E2E007365207065727B
:1008500064696F20756E20536C61766500657374F2
:1008600061646F20696E7465726E6F206465736376
:100870006F6E6F6369646F004573706572616E645B
:100880006F2072657469726F007374657070657241
:10089000206E6F2064657475766F207265746F7258
:1008A0006E6F005265766973616E646F20493243E2
:1008B000004573706572652E2E2E00703A206573A8
:1008C0007461646F2020733A20657363616E656F95
:1008D000204932430D0A004D4153544552313243B1
:1008E000206C6973746F2E0D0A00FF010000FF0079
:1008F000090010001100240125FF7500FF014E2C96
:1009000048003020FF003009540031043203408396
:100910004625600027005006510052965608573071
:10092000610062006400650066A0FF012232471486
:1009300049FF4A00FF007A0A7B007821FF01233437
:10094000420044FF4526460540400E06201A43401B
:10095000FF0034033544FF0131044B094C054D04BD
:10096000FF004400452047084828670070047101D3
:1009700072FE76007700FF010D01FF00800101F893
:10098000FF018E010001FF00800011241FBECFEF88
:10099000D8E0DEBFCDBF11E0A0E0B1E0E2E7F0E4D7
:1009A00002C005900D92A830B107D9F722E0A8E067
:1009B000B1E001C01D92AD35B207E1F70E94E51428
:1009C0000C9437200C94000088E893E114C0009741
:1009D00069F48091B900887F8093000186E080935C
:1009E000080184E08093BC0080E00895019725E031
:1009F0002A95F1F700002091BC00222344F781E002
:100A000008950F931F93CF938B019C01C42F87B13F
:100A10008F7C87B9443079F018F4413031F023C02D
:100A2000403191F04034C9F01EC0E9EBF0E0808124
:100A30008C7F80831EC0E9EBF0E080818D7F808316
:100A400080818160808315C0E9EBF0E080818E7F3A
:100A500080838081826080830CC0E9EBF0E080813C
:100A60008360808306C0E9EBF0E080818C7F808327
:100A7000C1E0011511052105310521F400EA16E850
:100A800021E030E060E074E284EF90E0A901980199
:100A90000E94F51FCA01B9016051710981099109CC
:100AA0000C2F10E020E030E0A9019801220F331F45
:100AB000441F551F0E94F51F2093B80084E08093C7
:100AC000BC008091B900887F8093000110920801DA
:100AD000CF911F910F9108951092080184EA80939D
:100AE000BC000E94E404882369F08091B900887FEB
:100AF00080930001883029F082E08093080180E033
:100B0000089581E0089584EA8093BC000E94E40483
:100B1000882369F08091B900887F8093000180313B
:100B200029F082E08093080180E0089581E0089533
:100B300084E98093BC0088E893E115C0009771F4C4
:100B40008091B900887F8093000187E0809308013D
:100B5000ECEBF0E0108284E080830895019725E0BB
:100B60002A95F1F700002091BC0024FDE7CF0895FD
:100B70008093BB0084E88093BC000E94E404882337
:100B8000A9F08091B900887F80930001883149F0F5
:100B9000883249F0803449F084E08093080180E095
:100BA000089581E0089581E0089581E00895880F17
:100BB000611181600E94B805811104C093E0909397
:100BC0000801089581E008950F931F93CF93C82FD4
:100BD0008B010E946C058823C1F060E08C2F0E947D
:100BE000D705882391F0C0E00DC0F801EC0FF11D8E
:100BF00080810E94B805811104C094E0909308019F
:100C000004C0CF5FC83088F381E0CF911F910F916E
:100C100008950F931F93CF93009729F481E0809359
:100C2000080180E026C0662321F024EC2093BC005C
:100C300003C024E82093BC00C62F8C010E94E4046A
:100C40008823B9F08091B900887F80930001CC237C
:100C500011F0803521F4C11107C0883529F085E0F5
:100C60008093080180E005C08091BB00F80180837B
:100C700081E0CF911F910F9108950F931F93CF9310
:100C8000C82F8B01442329F00E948305811105C0E0
:100C90001FC00E946C058823D9F061E08C2F0E9450
:100CA000D7058823A9F0C0E010C061E0C73008F084
:100CB00060E0C8018C0F911D0E940906811104C0DB
:100CC00095E09093080104C0CF5FC83070F381E0D5
:100CD000CF911F910F910895CF93DF93D82F10924A
:100CE00008010E946C05C82F882329F060E08D2F31
:100CF0000E94D705C82F0E9498058091080187306F
:100D000011F480E001C08C2FDF91CF910895CF9234
:100D1000DF92EF92FF920F931F93CF93DF936115B2
:100D2000710519F04115510529F481E080930801FE
:100D3000C0E077C0F22E8A016B01E82E1092080104
:100D40000E94E405C82F811103C00E94980569C064
:100D5000F11027C041E0B8018E2D0E943D06C82F3A
:100D6000811103C00E9498055CC00E949805809183
:100D70000801873009F450C0F8019081F6018081A4
:100D8000981306C0F8019181F6018181981729F026
:100D900088E080930801C0E044C010920801C1E0DF
:100DA00040C00E949805809108018730B9F1D0E0D9
:100DB0002CC08FE99FE00197F1F700C0000040E0F0
:100DC000B8018E2D0E943D06C82F811107C00E94D8
:100DD0009805809108018730B9F423C00E949805D6
:100DE000809108018730E1F0F8019081F60180815F
:100DF00098130AC0F8019181F6018181981304C00B
:100E000010920801C1E00DC0DF5FD83290F288E097
:100E100080930801C0E005C0C0E003C0C0E001C08D
:100E2000C0E08C2FDF91CF911F910F91FF90EF9039
:100E3000DF90CF90089521E00E9487060895809169
:100E40000001089580910801089588B1816088B9F2
:100E500085E08A95F1F7000088B18E7F88B98FE828
:100E600091E00197F1F700C0000008959BB19370E5
:100E70009BB995B19C7F95B980FF03C09BB19460ED
:100E80009BB981FF03C09BB198609BB982FF03C0EF
:100E90009BB190619BB983FF03C09BB190629BB9EA
:100EA00084FF03C09BB190649BB985FF03C09BB1D5
:100EB00090689BB986FF03C095B1916095B988236E
:100EC0001CF485B1826085B9089598B19D7F98B969
:100ED0000E9436070E9425078FE39FE10197F1F7F3
:100EE00000C00000089598B1926098B90E9436073A
:100EF0000E9425078FE891E00197F1F700C00000FC
:100F00000895613021F481580E9465070895815445
:100F10000E946507089581E00E9465078FE39FE1C5
:100F20000197F1F700C0000008958AB18C6F8AB96B
:100F300084B1836084B987B1826087B987B18160E9
:100F400087B988B18D7F88B988B18E7F88B98BB118
:100F500083708BB985B18C7F85B92FEF89EF90E0D5
:100F6000215080409040E1F700C0000088E30E94DB
:100F700065078CE00E94650786E00E9465070E9475
:100F80008B0708951092C50087E68093C40088E11E
:100F90008093C10086E08093C2000895909158012B
:100FA0009F5F209157019217C9F3E0915801F0E03B
:100FB000E75AFE4F808390935801E1ECF0E0808186
:100FC000806280830895CF93DF93EC01FC018491CC
:100FD00005C00E94CE072196FE0184918111F9CFB0
:100FE000DF91CF9108958091C000881F8827881FC6
:100FF00008958091C60008951F93CF93DF9300D08A
:1010000000D01F92CDB7DEB7AC01892B91F580E3FC
:101010000E94CE073FC09A01ADECBCEC0E941D209F
:101020009695879596958795969587959C01220F1D
:10103000331F880F991F880F991F880F991F820FE0
:10104000931F9A01281B390BC901805DE1E0F0E094
:10105000EC0FFD1FE10FF11D80839A010E941D20FE
:10106000AC015695479556954795569547951F5F00
:1010700001C010E04115510571F60AC01150E1E0C0
:10108000F0E0EC0FFD1FE10FF11D80810E94CE0703
:101090001111F4CF0F900F900F900F900F90DF91E0
:1010A000CF911F9108958F708A3010F4805D01C038
:1010B000895C0E94CE070895CF93C82F8CED96E0EF
:1010C0000E94E3078C2F82958F700E9453088C2F0B
:1010D0000E945308CF910895CF93DF93D82FC62F46
:1010E00080ED96E00E94E3078D2F90E00E94FC07C0
:1010F00089EC96E00E94E3078C2F0E945C0887EC45
:1011000096E00E94E307DF91CF910895DC01CB01C7
:10111000821B930BA40BB50B80959095A095B09571
:101120008827B7FD83959927AA27BB270895FB0138
:101130009081992321F0FA019081981739F091E07C
:10114000FB019083FA01808381E0089580E0089597
:10115000A0E0B0E0880F991FAA1FBB1FAC01BD0122
:10116000440F551F661F771F440F551F661F771FBB
:10117000840F951FA61FB71FBC01CD01635E7F4F73
:101180008F4F9F4F2AE330E040E050E00E94F51F70
:10119000C9010895E0910A018E2F90E08D309105EC
:1011A00008F046C0FC01EC5CFF4F0C94172086E76A
:1011B00092E00E94E30708958FE692E00E94E30721
:1011C000089587E692E00E94E307089583E592E0A0
:1011D0000E94E307089580E492E00E94E3070895E7
:1011E00085E392E00E94E307089585E292E00E9481
:1011F000E30708958EE192E00E94E30708958EE0F0
:1012000092E00E94E307089580E092E00E94E307E5
:1012100008958FEE91E00E94E307089584ED91E038
:101220000E94E30708958AEB91E00E94E307089586
:101230008EEA91E00E94E3070895CF93DF938DE259
:1012400093E00E94E3070E94CA0888E193E00E94AD
:10125000E30780910401811105C08CE093E00E94B6
:10126000E30716C080910501811105C082E093E07B
:101270000E94E30704C08CEF92E00E94E30788EF2E
:1012800092E00E94E3078091060190E00E94FC0733
:1012900083EE92E00E94E30780913E01811105C038
:1012A00087ED92E00E94E30718C0CEE3D1E0898188
:1012B0009A810E94FC0781ED92E00E94E3078981F8
:1012C0009A810E94A8080E94FC078AEC92E00E9482
:1012D000E3078B8190E00E94FC0781EC92E00E9482
:1012E000E30780913C01882329F08EEB92E00E9475
:1012F000E30704C084EB92E00E94E30783EA92E0F4
:101300000E94E30780913301882359F080913101D5
:10131000909132010E94FC078FE992E00E94E3075E
:1013200004C083E992E00E94E30783E892E00E9410
:10133000E307DF91CF91089580910101882329F07F
:1013400085E991E00E94E3070895E1E0F1E081E0A2
:10135000808388E08183128283E791E00E94E30723
:101360000895CF93DF93EC0180E194E00E94E307BE
:10137000CE010E94E3078DE094E00E94E307DF9135
:10138000CF9108950E94F3078823D9F00E94F907AE
:101390008D30B9F08A30A9F0803711F0803531F402
:1013A0000E941D0981E0809309010895833711F09F
:1013B000833519F40E949C09089588E393E00E9404
:1013C000E307089582E491E00E94EB1CEAE0F1E07B
:1013D00012AA13AA0895CF93DF93EC01FC01849124
:1013E00005C00E9473072196FE0184918111F9CFF7
:1013F000DF91CF9108950F931F93CF93DF938C01CB
:10140000EB010E948B0761E081E00E948107C80127
:101410000E94EB0962E081E00E948107CE010E94F8
:10142000EB09DF91CF911F910F910895EAE0F1E070
:10143000108261A372A383A394A30E94E20961EBCB
:1014400078E083EA98E00E94FB090895DF92EF922A
:10145000FF920F931F93CF93DF93CDB7DEB76097C3
:101460000FB6F894DEBF0FBECDBF61157105B1F1A7
:1014700041155105A9F17A018B01D82EBE016F5F8C
:101480007F4FC8010E942516F8018081813051F4F8
:10149000AE01475F5F4FBE016F5F7F4F8D2D0E9492
:1014A0001B070AC021E0AE01475F5F4FBE016F5FBF
:1014B0007F4F8D2D0E9487068823A1F0B701CE01B2
:1014C00009960E944C1681110FC0B701C8010E94F5
:1014D000851691E0882349F090E007C090E005C0B0
:1014E00090E003C090E001C090E0892F60960FB6B5
:1014F000F894DEBF0FBECDBFDF91CF911F910F914A
:10150000FF90EF90DF900895DF92EF92FF920F939C
:101510001F93CF93DF93CDB7DEB728970FB6F8941C
:10152000DEBF0FBECDBFD82ECE0101960E94ED15B5
:10153000811108C0A701BE016F5F7F4F8D2D0E94F2
:10154000260A01C080E028960FB6F894DEBF0FBED1
:10155000CDBFDF91CF911F910F91FF90EF90DF9062
:101560000895EF92FF920F931F93CF93DF93CDB720
:10157000DEB728970FB6F894DEBF0FBECDBF9E0131
:101580002F5F3F4F790100E010E020E04FE761E07E
:101590000E94840A882321F09B8181E0911180E0E0
:1015A00028960FB6F894DEBF0FBECDBFDF91CF9166
:1015B0001F910F91FF90EF900895AF92BF92CF923D
:1015C000DF92EF92FF920F931F93CF93DF93CDB7EC
:1015D000DEB728970FB6F894DEBF0FBECDBF0097D9
:1015E00049F16115710541F16B015C01CE01019674
:1015F0007C0100E010E020E042E062E082E10E9435
:10160000840A8823D9F08E81D5018C939885F601C0
:1016100090838B818730A1F0811114C08D81882344
:1016200099F0E4E0F1E081E080838C918183928302
:1016300082E00BC080E009C080E007C080E005C008
:1016400081E003C080E001C080E028960FB6F894E6
:10165000DEBF0FBECDBFDF91CF911F910F91FF90E5
:10166000EF90DF90CF90BF90AF900895EF92FF92F0
:101670000F931F93CF93DF93CDB7DEB728970FB6A5
:10168000F894DEBF0FBECDBFFE0131967F010E94F0
:10169000840A882329F09B8181E0913009F080E061
:1016A00028960FB6F894DEBF0FBECDBFDF91CF9165
:1016B0001F910F91FF90EF9008950F931F93CF9379
:1016C000DF931F92CDB7DEB749838E010F5F1F4FA7
:1016D00021E0462F63E00E94360B0F90DF91CF91FF
:1016E0001F910F9108950F931F93CF93DF9300D015
:1016F00000D01F92CDB7DEB789831A821B8283E0A8
:101700008C8380E28D838E010F5F1F4F25E046E0C2
:1017100065E082E10E94360B0F900F900F900F90C2
:101720000F90DF91CF911F910F9108950F931F9309
:10173000CF93DF9300D0CDB7DEB789836A838E0164
:101740000F5F1F4F22E045E064E081E10E94360B0D
:101750000F900F90DF91CF911F910F9108950F93EC
:101760001F93462F00E010E020E066E00E94360B59
:101770001F910F910895CF936FE781E10E94AF0B06
:10178000C82F6FE782E10E94AF0BCC2319F08111C3
:1017900003C003C080E001C081E0CF910895CF92E3
:1017A000DF92EF92FF92CF93DF936B017C01EA010E
:1017B0008FE793E00E94E307CE010E94E3078CE7E6
:1017C00093E00E94E307CAE0D1E08BE0888319AA86
:1017D0001FA61AA60E94E2090E94BB0B6FE673E0E7
:1017E00085E693E00E94FB09CD8EDE8EEF8EF8A297
:1017F00084EFC80E81E0D81EE11CF11CC98EDA8E80
:10180000EB8EFC8EDF91CF91FF90EF90DF90CF9029
:101810000895CF92DF92EF92FF926B017C012091AD
:1018200023013091240140912501509126010E940D
:101830008608882309F184EFC80E81E0D81EE11CD8
:10184000F11CC0922301D0922401E0922501F09274
:10185000260181E10E94B10AF82E82E10E94B10ABC
:10186000FF2011F081110AC00E9462174AE458E07B
:101870000E94CF0B80E003C081E001C081E0FF90B7
:10188000EF90DF90CF900895CF93DF934AE564E027
:1018900082E10E945D0B811107C00E9462174DE535
:1018A00056E00E94CF0B1BC0CAE0D1E082E08883E3
:1018B0000E946217DC01CB018854944FAF4FBF4F99
:1018C00089839A83AB83BC831EA665E576E08AE4B0
:1018D00096E00E94FB0982E496E00E94B109DF9144
:1018E000CF910895CF92DF92EF92FF921F93CF9303
:1018F000DF9300D0CDB7DEB76B017C0120910F01E3
:101900003091100140911101509112010E948608FE
:101910008823F1F184E6C80ED11CE11CF11CC092B1
:101920000F01D0921001E0921101F0921201BE015C
:101930006E5F7F4FCE0101960E94DD0A182F811144
:1019400007C00E94621748E756E00E94CF0B20C0F4
:1019500046E351E064E371E08A810E94970888239E
:10196000B9F0123059F48981811108C08091380191
:10197000853030F48F5F8093380102C010923801B7
:1019800080913801853020F00E9462170E94440C3B
:101990000F900F90DF91CF911F91FF90EF90DF900C
:1019A000CF900895CF93DF9340E063E081E10E9400
:1019B0005D0B811107C00E94621748E954E00E9444
:1019C000CF0B1BC081E00E94730B811107C00E94E6
:1019D000621744E854E00E94CF0B0FC0CAE0D1E088
:1019E00086E088830E9462176D877E878F87988B39
:1019F0001BAA84E794E00E94B109DF91CF9108957A
:101A0000EAE0F1E081E0808316A617A612A613A6ED
:101A100016A215A210AA0E94E2090E94BB0B811116
:101A200007C00E94621749EA56E00E94CF0B089552
:101A30000E946217EAE0F1E06583768387839087EE
:101A4000DC01CB018C509E4FAF4FBF4F818F928FE7
:101A5000A38FB48F61EA76E083E996E00E94FB09E8
:101A60008CE896E00E94B1090895CF92DF92EF9240
:101A7000FF921F93CF93DF9300D0CDB7DEB76B01FA
:101A80007C0120910F013091100140911101509182
:101A900012010E9486088823F1F184E6C80ED11C49
:101AA000E11CF11CC0920F01D0921001E0921101D3
:101AB000F0921201BE016E5F7F4FCE0101960E942F
:101AC000DD0A182F811107C00E94621743EF53E00F
:101AD0000E94CF0B20C046E351E064E371E08A81AD
:101AE0000E9497088823B9F0123059F4898188231D
:101AF00041F080913901853030F48F5F8093390156
:101B000002C01092390180913901853020F00E9485
:101B100062170E94000D0F900F90DF91CF911F91DF
:101B2000FF90EF90DF90CF900895CF92DF92EF92E9
:101B3000FF92CF936B017C0120912301309124010E
:101B400040912501509126010E948608882301F1C9
:101B5000D701C6018C509E4FAF4FBF4F80932301DA
:101B600090932401A0932501B093260181E10E9466
:101B7000B10AC82F82E10E94B10ACC2311F0811171
:101B800007C00E94621747E853E00E94CF0B04C0D1
:101B9000C701B6010E94350DCF91FF90EF90DF9005
:101BA000CF900895CF93DF930E94BB0B811107C0A4
:101BB0000E9462174EE255E00E94CF0B28C00E949F
:101BC000E20980E00E94730B811107C00E94621736
:101BD00044E155E00E94CF0B1AC0CAE0D1E089E091
:101BE00088830E946217DC01CB0188579C4EAF4F5F
:101BF000BF4F89839A83AB83BC836AE075E08EEF25
:101C000094E00E94FB098CEE94E00E94B109DF9100
:101C1000CF910895CF93DF9366E082E10E94AF0BEE
:101C2000C82F40E064E082E10E945D0BD82F40E0C5
:101C300063E081E10E945D0BCC2321F0DD2311F0F4
:101C4000811107C00E94621748EA55E00E94CF0B3D
:101C500018C0CAE0D1E084E088831EA21DA21BA6A2
:101C60001BAA0E94621769877A878B879C8760EA24
:101C700075E084E995E00E94FB0989E895E00E94FF
:101C8000B109DF91CF910895CF93DF9366E082E1B0
:101C90000E94AF0B811107C00E94621744E755E014
:101CA0000E94CF0B29C06FEF81E00E94960B81113B
:101CB00007C00E9462174BE555E00E94CF0B1CC085
:101CC000CAE0D1E087E0888318AA1BAA0E946217A5
:101CD000DC01CB0188519C4FAF4FBF4F89839A8362
:101CE000AB83BC8363E575E08BE495E00E94FB0960
:101CF00084E495E00E94B109DF91CF910895CF93DC
:101D0000DF9365E081E10E94AF0B811107C00E9463
:101D1000621746E454E00E94CF0B1BC081E00E9492
:101D2000730B811107C00E94621742E354E00E94C6
:101D3000CF0B0FC0CAE0D1E088E088831BAA0E94C5
:101D400062176D877E878F87988B8CE194E00E9465
:101D5000B109DF91CF91089520910B0130910C01D1
:101D600040910D0150910E010E948608882349F18F
:101D7000EAE0F1E080A98F5F80AB853018F00E9427
:101D80007F0E089591E089276FEF81700E94960B76
:101D9000811107C00E9462174CE554E00E94CF0BEE
:101DA00008950E946217DC01CB0188519C4FAF4F10
:101DB000BF4F80930B0190930C01A0930D01B09342
:101DC0000E010895AF92BF92CF92DF92EF92FF92F1
:101DD0000F931F93CF93DF93CDB7DEB728970FB63E
:101DE000F894DEBF0FBECDBF009791F1611571056C
:101DF00089F15B016C01CE0101967C0100E010E0ED
:101E000020E041E062E081E10E94840A882321F120
:101E10008E8190E0982F88272F81822BD6011196F2
:101E20009C938E939885F50190838B818730B1F0D8
:101E3000811116C08D818823A9F0EEE3F1E081E0E5
:101E400080832D913C9132832183938382E00BC068
:101E500080E009C080E007C080E005C081E003C0E9
:101E600080E001C080E028960FB6F894DEBF0FBE78
:101E7000CDBFDF91CF911F910F91FF90EF90DF9039
:101E8000CF90BF90AF900895CF92DF92EF92FF92E4
:101E90001F93CF93DF9300D01F92CDB7DEB76B01B6
:101EA0007C01209113013091140140911501509152
:101EB00016010E948608882309F475C084E6C80EBE
:101EC000D11CE11CF11CC0921301D0921401E092CC
:101ED0001501F0921601BE016D5F7F4FCE01019694
:101EE0000E94E20E182F811107C00E94621741ED77
:101EF00054E00E94CF0B57C047E351E065E371E027
:101F00008B810E949708882309F44DC01130D1F4C9
:101F100080910A01853009F046C040E063E081E12C
:101F20000E945D0B811107C00E94621744EB54E0D0
:101F30000E94CF0B38C0EAE0F1E084E0808316A273
:101F400015A231C089819A810E94A80820910A01B6
:101F50002430B1F49093300180932F014AE563E07F
:101F600081E10E945D0B811107C00E94621746EA61
:101F700054E00E94CF0B17C085E080930A0113C084
:101F8000A0E0B0E040912F015091300160E070E09E
:101F90004C5E5F4F6F4F7F4F84179507A607B707BB
:101FA00010F00E94D20C0F900F900F90DF91CF9104
:101FB0001F91FF90EF90DF90CF900895DF92EF9206
:101FC000FF920F931F93CF93DF93CDB7DEB7289780
:101FD0000FB6F894DEBF0FBECDBF809109018823F4
:101FE00009F498C0813051F48AE691E00E94E30739
:101FF0000F2EF3E0DF2EF02D81E120C0823049F476
:102000008FE591E00E94E3076894DD24D2F882E135
:1020100015C0833051F482E591E00E94E3070F2E52
:10202000F5E0DF2EF02D81E109C086E491E00E9409
:10203000E3070F2EF6E0DF2EF02D82E19E012F5FE9
:102040003F4F790100E010E020E04D2D61E00E945B
:10205000840A882319F08B81882329F086E391E094
:102060000E94E3074DC08DEF8D0D823048F48D81C5
:1020700090E00E94FC078FE291E00E94E30740C0DD
:1020800035E0D3121DC08AE291E00E94E3078D8102
:1020900090E00E94FC0783E291E00E94E3078E81BA
:1020A00090E00E94FC078CE191E00E94E3078F81A1
:1020B00090E00E94FC0789E191E00E94E30720C0C4
:1020C00084E191E00E94E3078D8190E00E94FC078B
:1020D0008DE091E00E94E3078E8190E00E94FC0772
:1020E00086E091E00E94E3078F8190E0982F882797
:1020F0002885822B0E94FC0783E091E00E94E30781
:1021000080910901843018F01092090103C08F5F9B
:102110008093090128960FB6F894DEBF0FBECDBF9D
:10212000DF91CF911F910F91FF90EF90DF90089575
:10213000CF92DF92EF92FF926B017C0182E491E0FB
:102140000E946F1D882321F00E94E20980E00DC0EB
:10215000EAE0F1E081E082AB13AAC586D686E78685
:10216000F08AC18AD28AE38AF48AFF90EF90DF90E6
:10217000CF900895CF93DF930E9462170E9498102A
:10218000811107C00E94621745E256E00E94CF0B02
:102190001AC081E00E94730B811107C00E94621770
:1021A0004CE056E00E94CF0B0EC0CAE0D1E083E0C5
:1021B00088830E9462176D877E878F87988B88EF50
:1021C00095E00E94B109DF91CF910895CF92DF92FF
:1021D000EF92FF92CF93DF936B017C012091270157
:1021E000309128014091290150912A010E948608CE
:1021F000882309F457C084EFC80E81E0D81EE11C83
:10220000F11CC0922701D0922801E0922901F0929E
:102210002A010E94BB0B81E10E94B10AF82E82E1E3
:102220000E94B10AFF2011F0811103C010923B01FE
:1022300039C0EAE0F1E081A98F5F81AB833090F192
:102240000E9462170E949810811107C010923B01F2
:1022500086ED93E00E94E30725C00E94E2090E94F8
:10226000BB0B811103C010923B011CC0CAE0D1E03E
:102270008CE088831FA61AA60E9462176D837E8356
:102280008F8398870E946217DC01CB018C509E4F90
:10229000AF4FBF4F898F9A8FAB8FBC8F8BEA93E084
:1022A0000E94E307DF91CF91FF90EF90DF90CF90F6
:1022B0000895CF930E941F07C82F0E9422076C2FFA
:1022C0000E946C08CF910895DF92EF92FF920F93D6
:1022D0001F93CF93DF93CDB7DEB728970FB6F8944F
:1022E000DEBF0FBECDBF8C01D62E8FE097E00E94DF
:1022F000E307C8010E94E3078DE097E00E94E3072F
:102300008D2D0E945C088AE097E00E94E307CE01D1
:1023100001967C0100E010E020E04FE761E08D2DA8
:102320000E94840A882349F09B81911106C085E0B0
:1023300097E00E94E30781E01FC08823B1F08DEE93
:1023400096E00E94E3078B8190E00E94FC0786EEF6
:1023500096E00E94E3070E941F070E945C0882EE3D
:1023600096E00E94E30780E007C00E9459118FEDBC
:1023700096E00E94E30780E028960FB6F894DEBF4F
:102380000FBECDBFDF91CF911F910F91FF90EF90C6
:10239000DF900895BF92CF92DF92EF92FF920F935A
:1023A0001F93CF93DF9387E997E00E94E30761E1F2
:1023B00080E997E00E946411182F62E189E897E0B4
:1023C0000E946411082F8EE797E00E94E30789E2DC
:1023D0000E945C088BE797E00E94E30782E491E0AB
:1023E0000E946F1DC82F81110CC0EAE0F1E081E06E
:1023F00082AB13AA86E797E00E94E307FF24F394D9
:102400001EC08BE697E00E94E3078C2F90E00E94AD
:10241000FC0784E697E00E94E3070E94220790E011
:102420000E94FC078DE597E00E94E3070E941F07CA
:102430000E945C0889E597E00E94E307F12C0E9466
:10244000E2096FE781E10E94AF0BC82F0E942207CB
:10245000C82E0E941F07B82E6FE782E10E94AF0BC3
:10246000D82F0E942207E82E0E941F07D82E89E449
:1024700097E00E94E307CC2339F0DD2329F084E4C0
:1024800097E00E94E30720C08CE397E00E94E307F7
:10249000C1110CC08AE297E00E94E3076B2D8C2DDE
:1024A0000E946C0887E297E00E94E307D1110CC0FC
:1024B00085E197E00E94E3076D2D8E2D0E946C0848
:1024C00082E197E00E94E307112351F0002351F0CD
:1024D000FF2051F0CC2351F0D1110AC080E009C097
:1024E00080E007C080E005C080E003C080E001C05C
:1024F00081E0DF91CF911F910F91FF90EF90DF90DE
:10250000CF90BF90089520912B0130912C014091E4
:102510002D0150912E010E9486088823B9F160E4B4
:1025200078E082E398E00E94FB090E94CA118823A8
:1025300069F08AE198E00E94E30789EF97E00E9442
:10254000E3070E9462170E94000D08950E94E209AD
:102550006CEE77E082EE97E00E94FB098CEC97E04E
:102560000E94E3078FEA97E00E94E3070E94621748
:10257000DC01CB0188519C4FAF4FBF4F80932B01A3
:1025800090932C01A0932D01B0932E010895CF922A
:10259000DF92EF92FF920F931F93CF93DF931F92DF
:1025A000CDB7DEB74115510509F49CC020913C011F
:1025B000222309F499C08A016B017C0180913D01BD
:1025C000811131C0209117013091180140911901FA
:1025D00050911A01C701B6010E948608882309F4A8
:1025E00085C082E491E00E94341F811181C0EAE03D
:1025F000F1E081E083ABC58AD68AE78AF08ED70105
:10260000C601C296A11DB11D85879687A787B08B8D
:1026100085E0C80ED11CE11CF11CC18AD28AE38A74
:10262000F48A80E070C020911B0130911C01409120
:102630001D0150911E01C701B6010E948608882322
:1026400009F458C0D701C6010596A11DB11D80939C
:102650001B0190931C01A0931D01B0931E01BE01AC
:102660006F5F7F4F82E491E00E948A1F811144C016
:102670008981882359F0B80182E491E00E94D71F34
:1026800010923D0181113AC081E03DC040911F018F
:1026900050912001609121017091220180914501AA
:1026A000909146019A01AB01280F391F411D511D20
:1026B000C701B6010E948608882311F182E491E0E7
:1026C0000E94CE1FEAE0F1E013AA92E3C90ED11CEA
:1026D000E11CF11CC586D686E786F08A813091F42C
:1026E00082E011C082E00FC082E00DC080E00BC02C
:1026F00082E009C080E007C082E005C082E003C03C
:1027000080E001C080E00F90DF91CF911F910F9189
:10271000FF90EF90DF90CF900895CF93DF9300D09C
:10272000CDB7DEB7AE014F5F5F4F0E94C712823058
:1027300039F40E94621742EE55E00E94CF0B3EC072
:102740008130E1F580910A01883029F485ED95E02A
:102750000E94E30704C08BEC95E00E94E3078981A7
:102760009A810E94FC0785EC95E00E94E30789812D
:102770009A819C01245131092D3B3740F8F4EAE05D
:10278000F1E021E021A790A787A32081233039F42D
:1027900089509140069790F40E940A0E0FC026308F
:1027A00039F48D579109069748F40E94440E06C0EB
:1027B000283021F4CD9710F40E94D20D0F900F9085
:1027C000DF91CF910895CF92DF92EF92FF926B014C
:1027D0007C0180910A01882359F08B3049F08C30BC
:1027E00039F0C701B6010E94090C882309F477C0AB
:1027F000E0910A018E2F90E08D30910508F069C0BC
:10280000FC01EF5BFF4F0C941720C701B6010E943B
:10281000831265C0C701B6010E94720C60C020918E
:102820000B0130910C0140910D0150910E01C70137
:10283000B6010E948608882309F451C00E94BA108C
:102840004EC0C701B6010E948D1349C0C701B60131
:102850000E94440F44C0C701B6010E94AC0E3FC0A5
:1028600020910B0130910C0140910D0150910E010E
:10287000C701B6010E948608882389F166E082E1DB
:102880000E94AF0B811107C00E94621749E858E00F
:102890000E94CF0B24C0EAE0F1E08AE0808317A613
:1028A00012A6C582D682E782F08688E798E00E9469
:1028B000B10915C0C701B6010E94350D10C0C7018E
:1028C000B6010E94E6100BC0C701B6010E94950D2B
:1028D00006C00E9462174DE558E00E94CF0BFF90A2
:1028E000EF90DF90CF900895CF93DF938091010117
:1028F000882399F1809102010E946C06882379F067
:1029000085EF90E00E94E307C1E0D1E089810E9459
:102910005C0882EF90E00E94E30781E08A83809167
:1029200002018737B8F080910301811104C082ED64
:1029300090E00E94E30780913C01811104C081EB8B
:1029400090E00E94E3078CE990E00E94E307109278
:10295000010103C08F5F80930201DF91CF91089541
:1029600080910901882319F00E94DE0F08950E94CA
:10297000741408951F920F920FB60F9211248F9323
:102980009F93EF93FF939091570180915801981373
:1029900006C0E1ECF0E080818F7D80830DC0E09186
:1029A0005701F0E0E75AFE4F80818093C600809186
:1029B00057018F5F80935701FF91EF919F918F9106
:1029C0000F900FBE0F901F9018950E94C2070E9493
:1029D000950741E060EA76E881E090E00E94010519
:1029E00082E491E00E94981C22E045E250E064E21B
:1029F00070E082E491E00E94B41C82E491E00E94C5
:102A0000EB1C0E945517789487ED98E00E94E3072D
:102A10008BEB98E00E94E3070E9462170E94160A5F
:102A20000E9462170E94E3130E94C2090E94B01420
:102A3000F7CF9C0190E005C0F901E90FF11D10826C
:102A40009F5F9617C8F30895CF93DF93DC0190E062
:102A50000BC0292F30E0FD01E20FF31FEB01C20F85
:102A6000D31F288120839F5F941798F3DF91CF9124
:102A700008958150863010F481E0089580E0089533
:102A80009FEF980F963020F08F3721F481E0089562
:102A900081E0089580E00895893010F481E0089580
:102AA00080E008950F931F93CF93DF93009709F46D
:102AB00066C0EC011881812F0E943915882309F422
:102AC00060C00981802F0E944015882309F45BC0F3
:102AD0002A81263008F059C0822F07C0FE01E80F76
:102AE000F11D9381911153C08F5F8530B8F313307E
:102AF000C1F028F4113049F0123059F04AC01530B5
:102B000019F1C8F0163089F144C0211144C080E0A9
:102B10005FC00150023008F040C0211140C080E089
:102B200057C003500230E8F52130E9F58B81853B31
:102B3000E0F580E04DC00530D1F52230D1F58B8134
:102B40008230C8F580E044C00630B9F52530B9F5CB
:102B50008B818230B0F58E8190E0982F88272F816D
:102B6000822B892B81F180E033C08BEF800F823084
:102B700010F00F3751F521112AC080E029C086E0FE
:102B800027C083E025C084E023C085E021C086E023
:102B90001FC083E01DC085E01BC084E019C085E034
:102BA00017C084E015C085E013C086E011C084E042
:102BB0000FC085E00DC086E00BC084E009C085E051
:102BC00007C086E005C086E003C084E001C085E060
:102BD000DF91CF911F910F910895CF92DF92EF92E5
:102BE000FF920F931F93CF93DF93009701F126304D
:102BF00000F5222319F001151105E9F07801122FD3
:102C0000EC01688349832A836C0183E0C80ED11CE0
:102C100065E0C6010E941915112329F0412FB70163
:102C2000C6010E942415CE010E94521505C086E0FF
:102C300003C085E001C086E0DF91CF911F910F9125
:102C4000FF90EF90DF90CF900895CF93DF93DC015A
:102C5000EB01892BF1F02097E1F08C91888311969C
:102C60008C911197898312968C9112978A8390E0A8
:102C70000EC0292F30E0F9013396AF014C0F5D1FD4
:102C80002A0F3B1FF9018381FA0180839F5F9530F2
:102C900080F3DF91CF9108951F93CF93DF93FC01D1
:102CA000DB01892B39F1109739F180818C93818177
:102CB00011968C931197828112968C93129713819F
:102CC00013961C93139790E00BC0292F30E0EF016F
:102CD000C20FD31F4C81ED01C20FD31F4C839F5FE6
:102CE000943098F30E944C15882341F0153040F041
:102CF00085E007C086E005C086E003C086E001C02D
:102D000080E0DF91CF911F910895FF920F931F9361
:102D1000CF93DF93009709F48FC06115710509F413
:102D20008DC0FB012081FC011081211389C0FB01B2
:102D30002181FC010181201385C0EB01FA808F2DD8
:102D40000E944C15882309F47FC02B81253008F0A0
:102D50007DC0822F07C0FE01E80FF11D9481911103
:102D600077C08F5F8430B8F3F6E0FF1548F082E05B
:102D7000F81660F4FF2001F1E1E0FE16A9F06AC048
:102D8000F7E0FF1639F088E0F81264C0211164C042
:102D900080E085C0123009F061C0243009F060C0C5
:102DA0008C8181115FC07BC01350143008F05CC06F
:102DB00021115CC080E073C0123081F4243009F02E
:102DC00057C08C81813009F055C0023009F054C0E1
:102DD0008D81823008F052C080E061C0113009F06E
:102DE0004FC0053069F018F4033020F407C00630F6
:102DF00019F004C081E005C084E003C080E001C098
:102E000083E082133FC08DEF800F823018F48C81F5
:102E1000853BD0F5053031F48C818230B8F58E8158
:102E20008230B0F50630B1F58C818230A8F58D8105
:102E30008230A0F580E033C086E031C086E02FC04C
:102E400086E02DC086E02BC086E029C085E027C043
:102E500086E025C086E023C085E021C085E01FC054
:102E600085E01DC086E01BC086E019C085E017C064
:102E700085E015C086E013C080E011C086E00FC079
:102E800086E00DC085E00BC086E009C086E007C083
:102E900086E005C080E003C086E001C086E0DF91E7
:102EA000CF911F910F91FF90089582E084BD83E040
:102EB00085BD89EF87BD16BCEEE6F0E080818260BB
:102EC000808308952FB7F89431E009C060915902CA
:102ED00070915A0280915B0290915C0230E0311156
:102EE000F5CF2FBF08951F920F920FB60F921124A6
:102EF0008F939F93AF93BF938091590290915A0201
:102F0000A0915B02B0915C020196A11DB11D80935E
:102F1000590290935A02A0935B02B0935C02BF9156
:102F2000AF919F918F910F900FBE0F901F901895AA
:102F30009C013327A90102C0440F551F9A95E2F75F
:102F4000CA0101960895CF92DF92EF92FF92611528
:102F5000710581059105E9F0DC01CB010197A1091B
:102F6000B10920E030E006C0B695A7959795879502
:102F70002F5F3F4F6C017D01CC24CD28CE28CF2878
:102F800099F7322F2227BC017727CB01822B932B75
:102F900002C080E090E0FF90EF90DF90CF90089526
:102FA000A82FB0E020E03FE24AE350E00E942C204E
:102FB0006C507E4F8F4F9F4F28EE33E040E050E043
:102FC0000E94F51FCA01B9010895CF93DF93EC0168
:102FD000862F0E94D0179B01AC01DE010E942C209D
:102FE0006C507E4F8F4F9F4F28EE33E040E050E013
:102FF0000E94F51FCA01B901DF91CF9108958F9208
:103000009F92AF92BF92CF92DF92EF92FF924B01CD
:103010005C01842F0E94D0176B017C01A8EEB3E005
:10302000A50194010E942C2046015701B694A79453
:1030300097948794680D791D8A1D9B1DA7019601A1
:103040000E94F51FCA01B901FF90EF90DF90CF9069
:10305000BF90AF909F908F900895EF92FF920F9343
:103060001F93CF93DF930097B1F14115510511F4F0
:10307000211133C0D22F7A01C62F8C010E946C051A
:10308000882369F1F8018081880F0E94B8058111B9
:1030900004C00E94980581E023C08C2F0E94B805CF
:1030A000811112C00E94980581E01AC0F701EC0F4F
:1030B000F11D80810E94B805811104C00E9498050D
:1030C00081E00EC0CF5F01C0C0E0CD1778F30E9451
:1030D000980580E005C084E003C084E001C081E081
:1030E000DF91CF911F910F91FF90EF900895CF93B3
:1030F000DF9300D0CDB7DEB759834A8322E0AE011B
:103100004F5F5F4F0E942D180F900F90DF91CF916E
:1031100008950F931F93CF93DF93009739F1042FF6
:10312000162FEC010E946C05882311F18881880F0D
:103130000E94B805811104C00E94980581E019C061
:10314000812F0E94B805811104C00E94980581E07A
:1031500010C0802F0E94B805811104C00E949805FC
:1031600081E007C00E94980580E003C084E001C0B0
:1031700081E0DF91CF911F910F910895EF92FF921F
:103180000F931F93CF93DF93009709F451C041151C
:10319000510509F44FC0222309F44EC0122F7A01C1
:1031A000062FEC010E946C05882309F447C0888132
:1031B000880F0E94B805811104C00E94980581E023
:1031C0003EC0802F0E94B805811104C00E9498055E
:1031D00081E035C00E948305811104C00E949805DA
:1031E00081E02DC08881880F81600E94B80581111F
:1031F00018C00E94980581E022C08FEF810FC81788
:1032000010F461E001C060E0C7018C0F911D0E94C5
:103210000906811104C00E94980581E010C0CF5FAB
:1032200001C0C0E0C11748F30E94980580E007C0C4
:1032300084E005C084E003C084E001C081E0DF9148
:10324000CF911F910F91FF90EF90089521E00E9480
:10325000BE180895AF92BF92CF92DF92EF92FF9285
:103260000F931F93CF93DF931F92CDB7DEB76115F6
:10327000710509F4CCC04115510509F4CAC07A01A1
:103280006B018C0141E060E80E9489188111C3C084
:1032900041E06FEFC8010E9489188111BEC040E073
:1032A00060E0C8010E9489188111B9C046E06FEF43
:1032B000C8010E9489188111B4C0AE014F5F5F4FF1
:1032C00063E8C8010E9426198111ADC0498144609C
:1032D00063E8C8010E9489188111A7C047E06FEF19
:1032E000C8010E9489188111A2C041E061E8C801AB
:1032F0000E94891881119DC041E060E8C8010E94C8
:103300008918811198C04BE664E9C8010E948918A8
:10331000811193C040E063E8C8010E9489188111BF
:103320008EC0A12CB12CAE014F5F5F4F63E8C80186
:103330000E942619811185C08981811111C0F8016F
:1033400083819481A816B90608F07DC08FE99FE0BB
:103350000197F1F700C000009FEFA91AB90AE3CF67
:1033600041E063E8C8010E94891881116EC0AE0176
:103370004F5F5F4F62E9C8010E942619811167C043
:103380008981982F9F77F6019083881F8827881F4F
:10339000F701808340E061E8C8010E94891881112B
:1033A00058C046E06FEFC8010E948918811153C0D0
:1033B000AE014F5F5F4F63E8C8010E94261981117B
:1033C0004CC049814B7F63E8C8010E948918811174
:1033D00046C041E06FEFC8010E948918811141C0C9
:1033E00041E060E0C8010E94891881113CC040E0C2
:1033F0006FEFC8010E948918811137C040E060E872
:10340000C8010E948918882389F181E02FC084E0D7
:103410002DC084E02BC081E029C081E027C081E07D
:1034200025C081E023C081E021C081E01FC081E090
:103430001DC081E01BC081E019C081E017C081E0A0
:1034400015C081E013C083E011C081E00FC081E0AE
:103450000DC081E00BC081E009C081E007C081E0C0
:1034600005C081E003C081E001C081E00F90DF91E1
:10347000CF911F910F91FF90EF90DF90CF90BF9071
:10348000AF9008950F931F93CF93DF931F92CDB703
:10349000DEB78B011982AE014F5F5F4F61E00E9482
:1034A0002619898184FB992790F9F801908383FB81
:1034B000992790F9918382FB992790F9928386FB53
:1034C000992790F99383881F8827881F84830F90FA
:1034D000DF91CF911F910F910895CF93DF931F92AA
:1034E000CDB7DEB71982662339F0AE014F5F5F4F6B
:1034F00060E70E94261906C0AE014F5F5F4F60E58E
:103500000E94261989818F5F880F0F90DF91CF91DC
:103510000895EF92FF920F931F93CF93DF931F9223
:10352000CDB7DEB78C01462F416060E00E9489185C
:1035300081112EC0E12CF12CAE014F5F5F4F63E192
:10354000C8010E942619811125C08981877081F4E4
:10355000F80183819481E816F906F0F48FE99FE081
:103560000197F1F700C000009FEFE91AF90AE4CFD4
:1035700041E06BE0C8010E94891881110FC040E052
:1035800060E0C8010E948918882349F081E007C0E3
:1035900081E005C081E003C083E001C081E00F90BD
:1035A000DF91CF911F910F91FF90EF9008950F93AE
:1035B0001F93CF93DF9300D0CDB7DEB741155105F0
:1035C000A1F08A0122E0AE014F5F5F4F0E94BE185A
:1035D00081110CC0898190E0982F88272A81822B45
:1035E000F8019183808380E001C084E00F900F9008
:1035F000DF91CF911F910F910895CF92DF92EF92BB
:10360000FF920F931F93CF93DF9300D01F92CDB7FC
:10361000DEB77C016B018A0119821B821A8260E08D
:103620000E946D1AF8018083AE014F5F5F4F66E420
:10363000C7010E942619898190E00196F8019383C1
:10364000828360810E94E517F80160877187828715
:103650009387AE014E5F5F4F61E5C7010E94D71AA5
:103660008A819B810E949817F801958384836081E9
:103670000E94E517F801648775878687978761E060
:10368000C7010E946D1AF8018183AE014E5F5F4F42
:1036900061E7C7010E94D71A8A819B810E9498170F
:1036A000F80197838683F6012381222339F0F801FC
:1036B00024813581821B930B97838683F801618176
:1036C000868197810E94E517F801608B718B828B50
:1036D000938B0F900F900F90DF91CF911F910F91CF
:1036E000FF90EF90DF90CF9008950F931F93CF93AB
:1036F000DF93CDB7DEB769970FB6F894DEBF0FBE84
:10370000CDBF8C01BE016F5F7F4F0E94421AAE0198
:103710004A5F5F4FBE016F5F7F4FC8010E94FD1A75
:103720008981882359F08E859F85A889B989BC0134
:10373000CD016C57724F8F4F9F4F04C066E37BE003
:1037400080E090E02A81222389F00E851F85288958
:1037500039890E541D4F2F4F3F4F000F111F221F4D
:10376000331F600F711F821F931F13C02B812223F1
:1037700081F00E851F8528893989DC01CB01800FF6
:10378000911FA21FB31FBC01CD016C567D4F8F4FFF
:103790009F4F2C81222381F00A891B892C893D8926
:1037A000DC01CB01800F911FA21FB31FBC01CD0113
:1037B0006C567D4F8F4F9F4F2D81222381F00E89B4
:1037C0001F89288D398DDC01CB01800F911FA21F2D
:1037D000B31FBC01CD016A5D7D4F8F4F9F4F69962E
:1037E0000FB6F894DEBF0FBECDBFDF91CF911F9112
:1037F0000F910895BF92CF92DF92EF92FF920F93B5
:103800001F93CF93DF93CDB7DEB769970FB6F894C8
:10381000DEBF0FBECDBF8C016A017B01BE016F5FB1
:103820007F4F0E94421AAE014A5F5F4FBE016F5F39
:103830007F4FC8010E94FD1A8981882349F08E8537
:103840009F85A889B9898C57924FAF4FBF4F04C04D
:1038500086E39BE0A0E0B0E02A81222389F04E8538
:103860005F85688979894E545D4F6F4F7F4F440F54
:10387000551F661F771F840F951FA61FB71F0FC008
:103880002B81222361F04E855F8568897989840FB9
:10389000951FA61FB71F8C569D4FAF4FBF4FBC80C3
:1038A000BB2061F04A895B896C897D89840F951FF3
:1038B000A61FB71F8C569D4FAF4FBF4F2D812223A0
:1038C00021F18A5D9D4FAF4FBF4FC816D906EA065A
:1038D000FB06E8F0A7019601281B390B4A0B5B0B8E
:1038E000CA01B9014F810E94FF17BB2031F02A8520
:1038F0003B85620F731F811D911D0E94A317AC01B0
:1039000061E7C8010E94771803C080E001C084E02D
:1039100069960FB6F894DEBF0FBECDBFDF91CF9191
:103920001F910F91FF90EF90DF90CF90BF9008957F
:10393000FC01892BC1F089E280831182128288EC1C
:1039400090E09483838316821582108617821286F4
:1039500011861386148616861586108A1786128A93
:10396000118A138A148A0895009769F16115710507
:1039700061F14115510559F1283058F5DC011696D1
:103980007C936E93159718965C934E931797E1E08E
:10399000F0E0DF0102C0AA0FBB1F2A95E2F79D01EC
:1039A000FC01A38731E03487DA013C912095232381
:1039B0002C93FB012081DC011B968C918095822346
:1039C000808380E0089584E0089584E0089584E091
:1039D000089584E00895009739F1DC011C962C913C
:1039E0001C97222319F11796ED91FC9118973081BD
:1039F0001B962C911B972095232320831596ED91E0
:103A0000FC91169730811B962C911B97232B2083BA
:103A1000EFE9FFE03197F1F700C0000029E22C93B5
:103A200012961C9280E0089584E0089584E0089541
:103A3000FC01892BB1F18485882341F1A781B085F0
:103A40009C918385809589238C93A581B6819C91D7
:103A50008385892B8C938FE39FE10197F1F700C059
:103A60000000A781B0859C918385809589238C93E4
:103A7000A581B6819C918385809589238C938FED58
:103A80009EE20197F1F700C0000006C08FED9EE2B4
:103A90000197F1F700C0000089E28083128280E084
:103AA000089584E00895CF93DF931F92CDB7DEB7DA
:103AB0001982009769F0AE014F5F5F4F60EC0E9482
:103AC0002619811107C099819E3E29F082E003C02A
:103AD00084E001C081E00F90DF91CF910895CF92F3
:103AE000DF92EF92FF920F931F93CF93DF93CDB7A7
:103AF000DEB729970FB6F894DEBF0FBECDBF009793
:103B000009F468C18C010E94181D81119EC1C80171
:103B10000E94531D811199C1AE014F5F5F4F69E84B
:103B2000C8010E942619811190C14981416069E84C
:103B3000C8010E948918811188C140E068E8C80165
:103B40000E948918811148C141E060E8C8010E94C3
:103B50008918811143C141E06FEFC8010E948918A3
:103B600081113EC140E060E0C8010E9489188111C6
:103B700039C1A8014F5F5F4F61E9C8010E94261952
:103B8000811132C141E060E0C8010E9489188111B1
:103B90002DC140E06FEFC8010E948918811128C132
:103BA00040E060E8C8010E948918811123C1AE017C
:103BB0004F5F5F4F60E6C8010E94261981111CC14A
:103BC0004981426160E6C8010E948918811116C1CD
:103BD00040E250E064E4C8010E947718811110C1EE
:103BE0004FEF61E0C8010E94891881110BC1AE013D
:103BF0004D5F5F4FBE016E5F7F4FC8010E942A1963
:103C0000811123C126E0AE014C5F5F4F60EBC8011C
:103C10000E94BE188111F8C041E06FEFC8010E94F8
:103C200089188111F3C040E06FE4C8010E9489182F
:103C30008111EEC04CE26EE4C8010E948918811126
:103C4000E9C040E06FEFC8010E9489188111E4C00B
:103C500044EB66EBC8010E9489188111DFC08B819B
:103C6000882311F05CE001C050E080E040E033C008
:103C7000851718F09A81491318C0982F977021E082
:103C800030E002C0220F331F9A95E2F72095982F5B
:103C9000969596959695E4E0F0E0EC0FFD1FE90F00
:103CA000F11D90819223908315C0982F969596953B
:103CB0009695E4E0F0E0EC0FFD1FE90FF11D208187
:103CC00030E0982F977002C0359527959A95E2F7C6
:103CD00020FD4F5F8F5F803358F226E0AE014C5FCE
:103CE0005F4F60EBC8010E942D18811199C0F12C23
:103CF00012C08F2D90E0880F991FFC01E651F74FFD
:103D00006491FC01E551F74F4491C8010E94891864
:103D1000811188C0F3948FE48F1558F744E06AE06E
:103D2000C8010E94891881117FC0AE014F5F5F4FAB
:103D300064E8C8010E942619811178C049814F7E2C
:103D400064E8C8010E948918811172C041E06BE0EB
:103D5000C8010E94891881116DC0C8010E94751B9D
:103D60006B017C01672B682B692B09F465C048EE59
:103D700061E0C8010E948918811160C0B701A601E5
:103D8000C8010E94FA1B811160C041E061E0C801D6
:103D90000E948918811154C060E4C8010E94891AE8
:103DA000811153C042E061E0C8010E94891881116D
:103DB00049C060E0C8010E94891A811146C048EEDE
:103DC00061E0C8010E94891881113EC091E0F801AC
:103DD00092833BC084E039C081E037C081E035C0C8
:103DE00081E033C081E031C081E02FC081E02DC08F
:103DF00081E02BC081E029C081E027C081E025C09F
:103E000081E023C081E021C081E01FC081E01DC0AE
:103E100081E01BC081E019C081E017C081E015C0BE
:103E200081E013C081E011C081E00FC081E00DC0CE
:103E300081E00BC081E009C081E007C081E005C0DE
:103E400081E003C081E001C081E029960FB6F894BB
:103E5000DEBF0FBECDBFDF91CF911F910F91FF90BD
:103E6000EF90DF90CF900895CF93DF930097F1F11B
:103E7000FC0122812223E1F1EC0141E060E80E9493
:103E80008918811137C041E06FEFCE010E94891877
:103E9000811132C040E060E0CE010E94891881119A
:103EA0002DC0498161E9CE010E948918811128C085
:103EB00041E060E0CE010E948918811123C040E0FA
:103EC0006FEFCE010E94891881111EC040E060E8AA
:103ED000CE010E948918811119C041E060E0CE0135
:103EE0000E948918882399F081E011C084E00FC0F6
:103EF00085E00DC081E00BC081E009C081E007C012
:103F000081E005C081E003C081E001C081E0DF9174
:103F1000CF9108950F931F93CF93DF931F92CDB747
:103F2000DEB7009771F16115710569F1DC01129638
:103F30002C911297222349F154962C9154972223C5
:103F400081F05196ED91FC915297208153968C917E
:103F5000822311F481E001C080E0FB01808380E0D6
:103F600017C08B01AE014F5F5F4F63E10E942619BE
:103F700081110DC09981977009F091E0D8019C934F
:103F800007C084E005C084E003C085E001C081E093
:103F90000F90DF91CF911F910F910895009729F015
:103FA00041E06BE00E948918089584E00895CF9362
:103FB000DF93009791F06115710589F0FC01228172
:103FC000222379F0AB01EC016EE10E94D71A811136
:103FD00009C0CE010E94CE1F05C084E003C084E06A
:103FE00001C085E0DF91CF910895A1E21A2EAA1BAE
:103FF000BB1BFD010DC0AA1FBB1FEE1FFF1FA21799
:10400000B307E407F50720F0A21BB30BE40BF50B95
:10401000661F771F881F991F1A9469F7609570951E
:10402000809590959B01AC01BD01CF010895EE0FE5
:10403000FF1F0590F491E02D0994A29FB001B39F5A
:10404000C001A39F700D811D1124911DB29F700DA1
:10405000811D1124911D08950E941D20A59F900D82
:10406000B49F900DA49F800D911D11240895F89484
:02407000FFCF80
:08407200F80008000001000045
:00000001FF
