S01100004D41535445523132432E73726563A1
S11300000C9484000C9499000C9499000C9499001D
S11300100C9499000C9499000C9499000C949900F8
S11300200C9499000C9499000C9499000C949900E8
S11300300C9499000C9499000C9499000C949900D8
S11300400C9499000C9499000C9499000C949900C8
S11300500C9499000C9499000C9499000C949900B8
S11300600C9499000C949900FF010000FF00090012
S113007010001100240125FF7500FF014E2C4800DB
S11300803020FF00300954003104320340834625F8
S11300906000270050065100529656085730610000
S11300A062006400650066A0FF012232471449FF24
S11300B04A00FF007A0A7B007821FF0123344200C2
S11300C044FF4526460540400E06201A4340FF00E3
S11300D034033544FF0131044B094C054D04FF0042
S11300E0440045204708482867007004710172FEE7
S11300F076007700FF010D01FF00800101F8FF0188
S11301008E010001FF00800011241FBECFEFD8E054
S1130110DEBFCDBF15E0A0E0B1E0E2EDFEE102C03C
S113012005900D92AA3DB107D9F70E944D050C9494
S1130130670F0C94000080E69AEEA0E0B0E011C0D6
S11301400097A105B10551F48091B900887F80938F
S1130150000184E08093BC0080E008950197A10928
S1130160B1092091BC0022235CF781E008958091BD
S1130170000108950F931F93CF938B019C01C42F0B
S113018087B18F7C87B9443079F018F4413031F06D
S113019023C0403191F04034C9F01EC0E9EBF0E0D7
S11301A080818C7F80831EC0E9EBF0E080818D7FAD
S11301B0808380818160808315C0E9EBF0E08081D9
S11301C08E7F80838081826080830CC0E9EBF0E0C5
S11301D080818360808306C0E9EBF0E080818C7FBE
S11301E08083C1E060E074E284EF90E0A9019801AB
S11301F00E942B0FCA01B90160517109810991094B
S11302000C2F10E020E030E0A9019801220F331FE9
S1130210441F551F0E942B0F2093B80084E0809345
S1130220BC008091B900887F80930001CF911F9119
S11302300F91089584EA8093BC000E949B00882358
S113024049F09091B900987F9093000181E0983033
S113025009F080E0089584EA8093BC000E949B002A
S1130260882349F09091B900987F9093000181E030
S1130270903109F080E0089584E98093BC0080E621
S11302809AEEA0E0B0E012C00097A105B10559F4C0
S11302908091B900887F80930001ECEBF0E010823C
S11302A084E0808308950197A109B1092091BC00DD
S11302B024FDEACF08958093BB0084E88093BC00BA
S11302C00E949B00882391F08091B900887F8093DD
S11302D00001883131F0883231F0803431F481E02A
S11302E0089581E0089581E0089580E008950F93D2
S11302F01F93CF93009711F1662321F024EC2093F0
S1130300BC0003C024E82093BC00C62F8C010E94CB
S11303109B008823C1F08091B900887F80930001FD
S1130320CC2311F0803561F4C11102C0883551F439
S11303308091BB00F801808381E005C080E003C0A8
S113034080E001C080E0CF911F910F91089588B1A2
S1130350816088B985E08A95F1F7000088B18E7FC5
S113036088B98FE891E00197F1F700C00000089583
S11303709BB193709BB995B19C7F95B980FF03C0E5
S11303809BB194609BB981FF03C09BB198609BB9FA
S113039082FF03C09BB190619BB983FF03C09BB1F3
S11303A090629BB984FF03C09BB190649BB985FFA5
S11303B003C09BB190689BB986FF03C095B191605F
S11303C095B988231CF485B1826085B9089598B1E4
S11303D09D7F98B90E94B8010E94A7018FE39FE115
S11303E00197F1F700C00000089598B1926098B9A0
S11303F00E94B8010E94A7018FE891E00197F1F7EC
S113040000C000000895CF93DF93EC0103C00E9465
S1130410F501219688818111FACFDF91CF9108955A
S1130420613021F481580E94E701089581540E94AB
S1130430E701089581E00E94E7018FE39FE10197BE
S1130440F1F700C0000008958AB18C6F8AB984B1B5
S1130450836084B987B1826087B987B1816087B9C5
S113046088B18D7F88B988B18E7F88B98BB183704C
S11304708BB985B18C7F85B92FEF89EF90E021503E
S113048080409040E1F700C0000088E30E94E7014B
S11304908CE00E94E70186E00E94E7010E941A02B4
S11304A008959C01AFE9B6E40E944D0F92958295A0
S11304B08F7089279F70892708958F3621F08F3494
S11304C021F481E0089581E0089580E00895833661
S11304D021F0833421F481E0089581E0089580E0DF
S11304E008951F93CF93DF93D82F162F0E941A01DC
S11304F0C82F8823B1F08D2F880F0E945B01C82F6D
S1130500811103C00E943C010CC0812F0E945B0139
S1130510C82F811103C00E943C0103C00E943C010A
S1130520C1E08C2FDF91CF911F910895682F81E155
S11305300E9471020895682F82E10E947102089559
S1130540CF93C82F0E941A01882341F08C2F880F63
S11305500E945B01C82F0E943C0101C0C0E08C2FA7
S1130560CF910895EF92FF921F93CF93DF9361157C
S1130570710581F1442381F1142F7B01C82F0E945E
S11305801A01D82F882349F18C2F880F81600E948B
S11305905B01D82F811117C00E943C011EC08FEF50
S11305A0810FC81710F461E001C060E0C7018C0F2F
S11305B0911D0E947701D82F811103C00E943C0134
S11305C00CC0CF5F01C0C0E0C11748F30E943C01DA
S11305D0D1E003C0D0E001C0D0E08D2FDF91CF91F6
S11305E01F91FF90EF900895CF92DF92EF92FF92C8
S11305F00F931F93CF93DF9300D000D0CDB7DEB716
S1130600009719F16115710511F14115510509F1B1
S11306106A017B018C0144E0BE016F5F7F4F81E181
S11306200E94B2028823B1F08981F80180838B8112
S113063090E0982F88272A81822BF7019183808369
S11306408C81F601808381E005C080E003C080E0F6
S113065001C080E00F900F900F900F90DF91CF9129
S11306601F910F91FF90EF90DF90CF900895AF927C
S1130670BF92CF92DF92EF92FF920F931F93CF938B
S1130680DF9300D000D0CDB7DEB7009721F161151C
S1130690710519F14115510511F12115310509F1C2
S11306A059016A017B018C0144E0BE016F5F7F4FF9
S11306B082E10E94B2028823A9F08981F801808333
S11306C08A81F70180838B81F60180838C81F50117
S11306D0808381E007C080E005C080E003C080E043
S11306E001C080E00F900F900F900F90DF91CF9199
S11306F01F910F91FF90EF90DF90CF90BF90AF903C
S113070008951092C50087E68093C40088E1809321
S1130710C10086E08093C20008959091C00095FFC7
S1130720FCCF8093C6000895CF93DF93EC0103C000
S11307300E948D03219688818111FACFDF91CF9198
S1130740089581E091E00E94940387E191E00E9482
S1130750940383E391E00E94940385E491E00E9472
S113076094038FE591E00E94940389E791E00E944D
S1130770940387E991E00E94940383EB91E00E9443
S113078094038CEC91E00E94940381EE91E00E942A
S1130790940387EF91E00E94940387EB93E00E9417
S11307A0940308958091C000882314F481E008958F
S11307B080E008958091C60008950E94D2038823A2
S11307C0E1F30E94DA0308951F93CF93DF9300D0DF
S11307D000D000D0CDB7DEB7AC01892B91F580E312
S11307E00E948D0341C09A01ADECBCEC0E944D0FF8
S11307F09695879596958795969587959C01220F52
S1130800331F880F991F880F991F880F991F820F14
S1130810931F9A01281B390BC901805DE1E0F0E0C8
S1130820EC0FFD1FE10FF11D80839A010E944D0F13
S1130830AC015695479556954795569547951F5F34
S113084001C010E04115510569F0163060F20AC08C
S11308501150E1E0F0E0EC0FFD1FE10FF11D80818C
S11308600E948D031111F4CF26960FB6F894DEBFC3
S11308700FBECDBFDF91CF911F9108950F931F93AA
S1130880CF93DF93082FEB01142F85E192E00E94B0
S1130890940300FF15C0CF3F8FEFD80789F0CE0136
S11308A00E9451020E94E40386E292E00E949403B3
S11308B0CE010E94E40381E392E00E94940304C009
S11308C086E392E00E9494038EE392E00E949403F4
S11308D0812F90E00E94E40380ED94E00E94940351
S11308E0DF91CF911F910F9108950F931F93CF9391
S11308F0DF93C82FD62F142F022F87E492E00E9493
S11309009403C0FF18C0D11105C083E592E00E9492
S1130910940304C084E692E00E9494038AE692E081
S11309200E9494038D2F90E00E94E40384E392E0FC
S11309300E94940304C083E792E00E94940383E836
S113094092E00E949403C1FD05C083E792E00E94F7
S1130950940312C0111105C08FE892E00E94940321
S11309600BC0013029F488E992E00E94940304C08A
S113097081EA92E00E94940383EC92E00E94940343
S1130980DF91CF911F910F9108958F708A3020F4D9
S1130990805D0E948D030895895C0E948D030895F3
S11309A0CF93C82F87EA92E00E9494038C2F8295FC
S11309B08F700E94C5048C2F0E94C504CF910895A6
S11309C0CF93C62F0E94940384E292E00E94940382
S11309D08C2F0E94D00483E292E00E9494038C2F17
S11309E00E94A002882329F08AEA92E00E949403DC
S11309F004C08DEA92E00E9494038BEB92E00E9483
S1130A0094030E94B7000E94D00482EC92E00E94FA
S1130A109403CF91089586EC92E00E94940361E1DF
S1130A208CEE92E00E94E00462E183EF92E00E9487
S1130A30E00469E28AEF92E00E94E0040895CF9313
S1130A40DF9382E093E00E949403D0E0C8E01AC0F0
S1130A508C2F0E94A0028823A1F08BE193E00E94D6
S1130A6094038C2F0E94D0048BEB92E00E94940399
S1130A700E94B7000E94D00482EC92E00E9494038A
S1130A80D1E0CF5FC83720F3D11104C089E293E0ED
S1130A900E949403DF91CF910895CF93DF93CDB754
S1130AA0DEB76F970FB6F894DEBF0FBECDBF1F8AB7
S1130AB01E8A8FEF9FEF998F888F1A8E1B8E1C8E44
S1130AC081E08D8F1E8E8F8F0E94810383EC92E0D4
S1130AD00E94940389E493E00E9494030E942402F8
S1130AE061E081E00E9410028CE593E00E94030221
S1130AF041E060EA76E881E090E00E94BA00CE012D
S1130B0001960E94C80B0E940B050E941F0586E6F1
S1130B1093E00E949403C12C612C77247394812C5C
S1130B2099249394A12CB12CD12C00E0EE24EA94C6
S1130B30FE2C0E94A1030E94DD03182F0E948D0346
S1130B4083EC92E00E949403183611F0183441F5B6
S1130B50AE01455E5F4FBE01685E7F4FCE014A968F
S1130B600E94F402882361F00A8DE88CF98CDB8CF6
S1130B704D2DB701802F0E943E04BB24B394D9CFDE
S1130B8082E893E00E949403BB2099F28EE993E0FB
S1130B900E9494034D2DB701802F0E943E04C9CFBB
S1130BA0193611F0193471F59E01215E3F4FAE01E3
S1130BB0425E5F4FBE01635E7F4FCE014C960E9442
S1130BC03703882369F0AC8C9D8C8E8C7F8C272D09
S1130BD0482D692D8A2D0E94750466246394A9CF3B
S1130BE08AEB93E00E949403662009F4A2CF8EE975
S1130BF093E00E949403272D482D692D8A2D0E948D
S1130C00750497CF163719F0163509F04BC0C1108B
S1130C1022C086ED93E00E949403CE0101960E94C7
S1130C20C80BCE0101960E943B0C182F811107C0FE
S1130C3081EF93E00E949403CC24C3940CC082E01F
S1130C4094E00E949403812F90E00E94E40383ECDB
S1130C5092E00E949403CC2009F46BCFBE016A5E3B
S1130C607F4FCE0101960E94C10E182F81110DC035
S1130C7085E394E00E9494038E899F890E94E40393
S1130C808FE394E00E94940354CF85E494E00E949F
S1130C909403812F90E00E94E40383EC92E00E948D
S1130CA0940347CF812F0E945D02882379F08FE659
S1130CB00E949602882329F088E694E00E94940317
S1130CC038CF8FE894E00E94940333CF812F0E94A1
S1130CD06702882379F083E60E949602882329F02C
S1130CE080EB94E00E94940324CF87ED94E00E946B
S1130CF094031FCF163611F0163479F486E60E9459
S1130D009B02882329F089EF94E00E94940311CF79
S1130D108CE195E00E9494030CCF123611F012344A
S1130D2079F482E60E949B02882329F082E495E00C
S1130D300E949403FECE82E695E00E949403F9CECD
S1130D40183711F0183579F488E70E949B0288233C
S1130D5029F085E895E00E949403EBCE87EA95E0BC
S1130D600E949403E6CE103711F0103519F40E9456
S1130D700B05DFCE133711F0133529F40E940B0550
S1130D800E941F05D6CE86EC95E00E949403D1CE36
S1130D909C013327A90102C0440F551F9A95E2F71D
S1130DA0CA0101960895CF92DF92EF92FF926115E6
S1130DB0710581059105E9F0DC01CB010197A109D9
S1130DC0B10920E030E006C0B695A79597958795C0
S1130DD02F5F3F4F6C017D01CC24CD28CE28CF2836
S1130DE099F7322F2227BC017727CB01822B932B33
S1130DF002C080E090E0FF90EF90DF90CF900895E4
S1130E00A82FB0E020E03FE24AE350E00E945C0FEC
S1130E106C507E4F8F4F9F4F28EE33E040E050E000
S1130E200E942B0FCA01B9010895CF93DF93EC01FF
S1130E30862F0E9400079B01AC01DE010E945C0F1B
S1130E406C507E4F8F4F9F4F28EE33E040E050E0D0
S1130E500E942B0FCA01B901DF91CF9108958F929F
S1130E609F92AF92BF92CF92DF92EF92FF924B018B
S1130E705C01842F0E9400076B017C01A8EEB3E0A3
S1130E80A50194010E945C0F46015701B694A794F2
S1130E9097948794680D791D8A1D9B1DA70196015F
S1130EA00E942B0FCA01B901FF90EF90DF90CF9001
S1130EB0BF90AF909F908F900895EF92FF920F9301
S1130EC01F93CF93DF930097B1F14115510511F4AE
S1130ED0211133C0D22F7A01C62F8C010E941A012E
S1130EE0882369F1F8018081880F0E945B018111D8
S1130EF004C00E943C0181E023C08C2F0E945B014E
S1130F00811112C00E943C0181E01AC0F701EC0F6C
S1130F10F11D80810E945B01811104C00E943C018B
S1130F2081E00EC0CF5F01C0C0E0CD1778F30E940E
S1130F303C0180E005C084E003C084E001C081E09E
S1130F40DF91CF911F910F91FF90EF900895CF9370
S1130F50DF9300D0CDB7DEB759834A8322E0AE01D8
S1130F604F5F5F4F0E945D070F900F90DF91CF910D
S1130F7008950F931F93CF93DF93009739F1042FB4
S1130F80162FEC010E941A01882311F18881880F21
S1130F900E945B01811104C00E943C0181E019C0E0
S1130FA0812F0E945B01811104C00E943C0181E0F9
S1130FB010C0802F0E945B01811104C00E943C017B
S1130FC081E007C00E943C0180E003C084E001C0CE
S1130FD081E0DF91CF911F910F910895EF92FF92DD
S1130FE00F931F93CF93DF93009709F451C04115DA
S1130FF0510509F44FC0222309F44EC0122F7A017F
S1131000062FEC010E941A01882309F447C0888145
S1131010880F0E945B01811104C00E943C0181E0A1
S11310203EC0802F0E945B01811104C00E943C01DC
S113103081E035C00E942B01811104C00E943C0153
S113104081E02DC08881880F81600E945B0181113D
S113105018C00E943C0181E022C08FEF810FC817A5
S113106010F461E001C060E0C7018C0F911D0E9483
S11310707701811104C00E943C0181E010C0CF5F60
S113108001C0C0E0C11748F30E943C0180E007C0E2
S113109084E005C084E003C084E001C081E0DF9106
S11310A0CF911F910F91FF90EF90089521E00E943E
S11310B0EE070895AF92BF92CF92DF92EF92FF9224
S11310C00F931F93CF93DF931F92CDB7DEB76115B4
S11310D0710509F4CCC04115510509F4CAC07A015F
S11310E06B018C0141E060E80E94B9078111C3C023
S11310F041E06FEFC8010E94B9078111BEC040E012
S113110060E0C8010E94B9078111B9C046E06FEFE1
S1131110C8010E94B9078111B4C0AE014F5F5F4F8F
S113112063E8C8010E9456088111ADC0498144603A
S113113063E8C8010E94B9078111A7C047E06FEFB7
S1131140C8010E94B9078111A2C041E061E8C80149
S11311500E94B90781119DC041E060E8C8010E9466
S1131160B907811198C04BE664E9C8010E94B90728
S1131170811193C040E063E8C8010E94B90781115E
S11311808EC0A12CB12CAE014F5F5F4F63E8C80144
S11311900E945608811185C08981811111C0F8010E
S11311A083819481A816B90608F07DC08FE99FE079
S11311B00197F1F700C000009FEFA91AB90AE3CF25
S11311C041E063E8C8010E94B90781116EC0AE0115
S11311D04F5F5F4F62E9C8010E945608811167C0E2
S11311E08981982F9F77F6019083881F8827881F0D
S11311F0F701808340E061E8C8010E94B9078111CA
S113120058C046E06FEFC8010E94B907811153C06E
S1131210AE014F5F5F4F63E8C8010E945608811119
S11312204CC049814B7F63E8C8010E94B907811112
S113123046C041E06FEFC8010E94B907811141C067
S113124041E060E0C8010E94B90781113CC040E060
S11312506FEFC8010E94B907811137C040E060E810
S1131260C8010E94B907882389F181E02FC084E076
S11312702DC084E02BC081E029C081E027C081E03B
S113128025C081E023C081E021C081E01FC081E04E
S11312901DC081E01BC081E019C081E017C081E05E
S11312A015C081E013C083E011C081E00FC081E06C
S11312B00DC081E00BC081E009C081E007C081E07E
S11312C005C081E003C081E001C081E00F90DF919F
S11312D0CF911F910F91FF90EF90DF90CF90BF902F
S11312E0AF9008950F931F93CF93DF931F92CDB7C1
S11312F0DEB78B011982AE014F5F5F4F61E00E9440
S11313005608898184FB992790F9F801908383FB1F
S1131310992790F9918382FB992790F9928386FB10
S1131320992790F99383881F8827881F84830F90B7
S1131330DF91CF911F910F910895CF93DF931F9267
S1131340CDB7DEB71982662339F0AE014F5F5F4F28
S113135060E70E94560806C0AE014F5F5F4F60E52C
S11313600E94560889818F5F880F0F90DF91CF917B
S11313700895EF92FF920F931F93CF93DF931F92E1
S1131380CDB7DEB78C01462F416060E00E94B907FB
S113139081112EC0E12CF12CAE014F5F5F4F63E150
S11313A0C8010E945608811125C08981877081F483
S11313B0F80183819481E816F906F0F48FE99FE03F
S11313C00197F1F700C000009FEFE91AF90AE4CF92
S11313D041E06BE0C8010E94B90781110FC040E0F1
S11313E060E0C8010E94B907882349F081E007C082
S11313F081E005C081E003C083E001C081E00F907B
S1131400DF91CF911F910F91FF90EF9008950F936B
S11314101F93CF93DF9300D0CDB7DEB741155105AD
S1131420A1F08A0122E0AE014F5F5F4F0E94EE07F8
S113143081110CC0898190E0982F88272A81822B02
S1131440F8019183808380E001C084E00F900F90C5
S1131450DF91CF911F910F910895CF92DF92EF9278
S1131460FF920F931F93CF93DF9300D01F92CDB7BA
S1131470DEB77C016B018A0119821B821A8260E04B
S11314800E949D09F8018083AE014F5F5F4F66E4BF
S1131490C7010E945608898190E00196F801938360
S11314A0828360810E941507F801608771878287B3
S11314B09387AE014E5F5F4F61E5C7010E94070A43
S11314C08A819B810E94C806F80195838483608188
S11314D00E941507F801648775878687978761E0FE
S11314E0C7010E949D09F8018183AE014E5F5F4FE1
S11314F061E7C7010E94070A8A819B810E94C8068E
S1131500F80197838683F6012381222339F0F801B9
S113151024813581821B930B97838683F801618133
S1131520868197810E941507F801608B718B828BED
S1131530938B0F900F900F90DF91CF911F910F918C
S1131540FF90EF90DF90CF9008950F931F93CF9368
S1131550DF93CDB7DEB769970FB6F894DEBF0FBE41
S1131560CDBF8C01BE016F5F7F4F0E947209AE0137
S11315704A5F5F4FBE016F5F7F4FC8010E942D0A13
S11315808981882359F08E859F85A889B989BC01F2
S1131590CD016C57724F8F4F9F4F04C066E37BE0C1
S11315A080E090E02A81222389F00E851F85288916
S11315B039890E541D4F2F4F3F4F000F111F221F0B
S11315C0331F600F711F821F931F13C02B812223AF
S11315D081F00E851F8528893989DC01CB01800FB4
S11315E0911FA21FB31FBC01CD016C567D4F8F4FBD
S11315F09F4F2C81222381F00A891B892C893D89E4
S1131600DC01CB01800F911FA21FB31FBC01CD01D0
S11316106C567D4F8F4F9F4F2D81222381F00E8971
S11316201F89288D398DDC01CB01800F911FA21FEA
S1131630B31FBC01CD016A5D7D4F8F4F9F4F6996EB
S11316400FB6F894DEBF0FBECDBFDF91CF911F91CF
S11316500F910895BF92CF92DF92EF92FF920F9372
S11316601F93CF93DF93CDB7DEB769970FB6F89486
S1131670DEBF0FBECDBF8C016A017B01BE016F5F6F
S11316807F4F0E947209AE014A5F5F4FBE016F5FD8
S11316907F4FC8010E942D0A8981882349F08E85D5
S11316A09F85A889B9898C57924FAF4FBF4F04C00B
S11316B086E39BE0A0E0B0E02A81222389F04E85F6
S11316C05F85688979894E545D4F6F4F7F4F440F12
S11316D0551F661F771F840F951FA61FB71F0FC0C6
S11316E02B81222361F04E855F8568897989840F77
S11316F0951FA61FB71F8C569D4FAF4FBF4FBC8081
S1131700BB2061F04A895B896C897D89840F951FB0
S1131710A61FB71F8C569D4FAF4FBF4F2D8122235D
S113172021F18A5D9D4FAF4FBF4FC816D906EA0617
S1131730FB06E8F0A7019601281B390B4A0B5B0B4B
S1131740CA01B9014F810E942F07BB2031F02A85BD
S11317503B85620F731F811D911D0E94D306AC014E
S113176061E7C8010E94A70703C080E001C084E0CC
S113177069960FB6F894DEBF0FBECDBFDF91CF914F
S11317801F910F91FF90EF90DF90CF90BF9008953D
S1131790FC01892BC1F089E280831182128288ECDA
S11317A090E09483838316821582108617821286B2
S11317B011861386148616861586108A1786128A51
S11317C0118A138A148A0895FC01892BB1F1848546
S11317D0882341F1A781B0859C91838580958923D5
S11317E08C93A581B6819C918385892B8C938FE3FF
S11317F09FE10197F1F700C00000A781B0859C919B
S11318008385809589238C93A581B6819C9183855A
S1131810809589238C938FED9EE20197F1F700C0A8
S1131820000006C08FED9EE20197F1F700C00000B2
S113183089E28083128280E0089584E00895CF9342
S1131840DF931F92CDB7DEB71982009769F0AE011E
S11318504F5F5F4F60EC0E945608811107C0998169
S11318609E3E29F082E003C084E001C081E00F9035
S1131870DF91CF910895CF92DF92EF92FF920F9371
S11318801F93CF93DF93CDB7DEB729970FB6F894A4
S1131890DEBF0FBECDBF009709F468C18C010E9462
S11318A0E40B81119EC1C8010E941F0C811199C1D2
S11318B0AE014F5F5F4F69E8C8010E94560881116D
S11318C090C14981416069E8C8010E94B90781114A
S11318D088C140E068E8C8010E94B907811148C185
S11318E041E060E8C8010E94B907811143C141E0A9
S11318F06FEFC8010E94B90781113EC140E060E06A
S1131900C8010E94B907811139C1A8014F5F5F4F17
S113191061E9C8010E945608811132C141E060E0CA
S1131920C8010E94B90781112DC140E06FEFC801C1
S11319300E94B907811128C140E060E8C8010E94F3
S1131940B907811123C1AE014F5F5F4F60E6C80143
S11319500E94560881111CC14981426160E6C80198
S11319600E94B907811116C140E250E064E4C80145
S11319700E94A707811110C14FEF61E0C8010E94C6
S1131980B90781110BC1AE014D5F5F4FBE016E5FA0
S11319907F4FC8010E945A08811123C126E0AE017D
S11319A04C5F5F4F60EBC8010E94EE078111F8C0E5
S11319B041E06FEFC8010E94B9078111F3C040E014
S11319C06FE4C8010E94B9078111EEC04CE26EE4D5
S11319D0C8010E94B9078111E9C040E06FEFC80156
S11319E00E94B9078111E4C044EB66EBC8010E9470
S11319F0B9078111DFC08B81882311F05CE001C03D
S1131A0050E080E040E033C0851718F09A81491314
S1131A1018C0982F977021E030E002C0220F331FC6
S1131A209A95E2F72095982F969596959695E4E0E9
S1131A30F0E0EC0FFD1FE90FF11D908192239083DC
S1131A4015C0982F969596959695E4E0F0E0EC0FE6
S1131A50FD1FE90FF11D208130E0982F977002C01F
S1131A60359527959A95E2F720FD4F5F8F5F803378
S1131A7058F226E0AE014C5F5F4F60EBC8010E9454
S1131A805D07811199C0F12C12C08F2D90E0880F51
S1131A90991FFC01E859FF4F6491FC01E759FF4F7E
S1131AA04491C8010E94B907811188C0F3948FE45E
S1131AB08F1558F744E06AE0C8010E94B907811104
S1131AC07FC0AE014F5F5F4F64E8C8010E945608B3
S1131AD0811178C049814F7E64E8C8010E94B9072A
S1131AE0811172C041E06BE0C8010E94B907811105
S1131AF06DC0C8010E94A50A6B017C01672B682B8D
S1131B00692B09F465C048EE61E0C8010E94B90779
S1131B10811160C0B701A601C8010E942A0B81117E
S1131B2060C041E061E0C8010E94B907811154C05E
S1131B3060E4C8010E94B909811153C042E061E028
S1131B40C8010E94B907811149C060E0C8010E9420
S1131B50B909811146C048EE61E0C8010E94B90785
S1131B6081113EC091E0F80192833BC084E039C00A
S1131B7081E037C081E035C081E033C081E031C00D
S1131B8081E02FC081E02DC081E02BC081E029C01D
S1131B9081E027C081E025C081E023C081E021C02D
S1131BA081E01FC081E01DC081E01BC081E019C03D
S1131BB081E017C081E015C081E013C081E011C04D
S1131BC081E00FC081E00DC081E00BC081E009C05D
S1131BD081E007C081E005C081E003C081E001C06D
S1131BE081E029960FB6F894DEBF0FBECDBFDF911A
S1131BF0CF911F910F91FF90EF90DF90CF900895B8
S1131C00CF93DF930097F1F1FC0122812223E1F1CC
S1131C10EC0141E060E80E94B907811137C041E05E
S1131C206FEFCE010E94B907811132C040E060E03D
S1131C30CE010E94B90781112DC0498161E9CE010D
S1131C400E94B907811128C041E060E0CE010E94E2
S1131C50B907811123C040E06FEFCE010E94B9079C
S1131C6081111EC040E060E8CE010E94B9078111D5
S1131C7019C041E060E0CE010E94B907882399F0C1
S1131C8081E011C084E00FC085E00DC081E00BC08D
S1131C9081E009C081E007C081E005C081E003C0A4
S1131CA081E001C081E0DF91CF9108950F931F93EC
S1131CB0CF93DF931F92CDB7DEB7009771F1611513
S1131CC0710569F1DC0112962C911297222349F1D6
S1131CD054962C915497222381F05196ED91FC91C6
S1131CE05297208153968C91822311F481E001C094
S1131CF080E0FB01808380E017C08B01AE014F5F61
S1131D005F4F63E10E94560881110DC0998197705D
S1131D1009F091E0D8019C9307C084E005C084E0F9
S1131D2003C085E001C081E00F90DF91CF911F9146
S1131D300F910895009729F041E06BE00E94B907E4
S1131D40089584E00895CF93DF93009791F061158F
S1131D50710589F0FC012281222379F0AB01EC01A9
S1131D606EE10E94070A811109C0CE010E949A0EF9
S1131D7005C084E003C084E001C085E0DF91CF9119
S1131D800895CF92DF92EF92FF920F931F93CF9318
S1131D90DF9300D0CDB7DEB7009709F44AC06115D0
S1131DA0710509F448C06B018C010E94000E811179
S1131DB047C0E12CF12CAE014F5F5F4F60E0C801DA
S1131DC00E94560881113CC0898180FF10C0F8012F
S1131DD083819481E816F90680F58FE99FE00197E5
S1131DE0F1F700C000009FEFE91AF90AE4CFE12CF3
S1131DF0F12CBE016E5F7F4FC8010E94560E811107
S1131E001FC08A81811110C0F80183819481E81672
S1131E10F906A8F48FE99FE00197F1F700C00000EC
S1131E209FEFE91AF90AE5CFB601C8010E94A30E93
S1131E3007C084E005C084E003C083E001C083E000
S1131E400F900F90DF91CF911F910F91FF90EF9022
S1131E50DF90CF900895A1E21A2EAA1BBB1BFD01AF
S1131E600DC0AA1FBB1FEE1FFF1FA217B307E40775
S1131E70F50720F0A21BB30BE40BF50B661F771FCD
S1131E80881F991F1A9469F76095709580959095AD
S1131E909B01AC01BD01CF010895A29FB001B39F86
S1131EA0C001A39F700D811D1124911DB29F700D5F
S1131EB0811D1124911D08950E944D0FA59F900D21
S1131EC0B49F900DA49F800D911D11240895F89442
S1051ED0FFCF3E
S1131ED2F80D0A5175652064657365617320686144
S1131EE26365723F0D0A00683A206C65657220488A
S1131EF2432D5352303420656E20536C6176653124
S1131F020D0A00763A206C65657220564C35334CC6
S1131F1230580D0A006F3A2061627269722073654B
S1131F2272766F2061203930206465670D0A006380
S1131F323A2063657272617220736572766F2061F2
S1131F422030206465670D0A00693A206C65657269
S1131F522073656E736F7220495220656E20536C34
S1131F62617665320D0A00663A206D6F76657220DD
S1131F7273746570706572206164656C616E7465FA
S1131F820D0A00623A206D6F766572207374657073
S1131F927065722061747261730D0A00783A20646C
S1131FA26574656E657220737465707065720D0A6E
S1131FB200733A20657363616E65617220627573A2
S1131FC2204932430D0A00703A20636F6E666972CB
S1131FD26D617220736C6176657320706F72204933
S1131FE232430D0A00536C617665312048432D5308
S1131FF25230343A200020636D20286563686F20D4
S113200200207573290073696E2065636F002C20AC
S1132012736572766F2000536C6176653220495283
S11320223A20006F626A65746F2064657465637434
S113203261646F006C696272650020286E6976655E
S11320426C20006E6F20696E696369616C697A61E4
S1132052646F002C20737465707065723A2000649A
S11320626574656E69646F006164656C616E746544
S1132072006174726173003078004F4B0073696EB3
S11320822072657370756573746100202854574912
S11320922000290D0A00436F6E6669726D616E64D9
S11320A26F20646973706F73697469766F732070DB
S11320B26F72204932432E2E2E0D0A00536C617624
S11320C2653100536C6176653200564C35334C30C1
S11320D25800457363616E656F204932432030783E
S11320E230382D307837373A0D0A002020656E6378
S11320F26F6E747261646F200020206E696E677562
S11321026E6120646972656363696F6E20726573C0
S1132112706F6E64696F0D0A004D4153544552311C
S11321223243206C6973746F2E0D0A00636F6E65FF
S1132132637461646F002D2D2D2D2D2D2D2D2D2DCC
S11321422D2D2D2D2D2D2D2D2D2D2D2D2D2D2D0DD9
S11321520A00536C617665313A2073696E207265A8
S113216273707565737461204932430D0A00556CAE
S113217274696D612072657370756573746120761C
S1132182616C696461202D3E2000536C6176653276
S11321923A2073696E207265737075657374612079
S11321A24932430D0A00496E696369616C697A6157
S11321B26E646F20564C35334C30582E2E2E0D0A39
S11321C200564C35334C3058206C6973746F2E0DA5
S11321D20A004552524F523A206E6F2073652070A6
S11321E275646F20696E696369616C697A617220D2
S11321F2656C20564C35334C30582E20436F64693D
S1132202676F3A2000564C35334C30583A20002040
S11322126D6D0D0A004552524F52206465206C6563
S1132222637475726120564C35334C30582E2043FA
S11322326F6469676F3A2000436F6D616E646F204B
S1132242536C617665313A206162726972207365FA
S113225272766F2061203930206465670D0A00456B
S113226252524F522049324320656E7669616E6440
S11322726F20616272697220736572766F0D0A0053
S1132282436F6D616E646F20536C617665313A20E1
S113229263657272617220736572766F2061203099
S11322A2206465670D0A004552524F522049324359
S11322B220656E7669616E646F2063657272617205
S11322C220736572766F0D0A00436F6D616E646FE1
S11322D220536C617665323A20737465707065724E
S11322E2206164656C616E74650D0A004552524F3B
S11322F2522049324320656E7669616E646F2073A1
S1132302746570706572206164656C616E74650DCC
S11323120A00436F6D616E646F20536C617665329F
S11323223A20737465707065722061747261730D02
S11323320A004552524F522049324320656E766953
S1132342616E646F2073746570706572206174725B
S113235261730D0A00436F6D616E646F20536C618B
S11323627665323A20646574656E657220737465AD
S1132372707065720D0A004552524F522049324321
S113238220646574656E69656E646F20737465702C
S11323927065720D0A004F7063696F6E206E6F2054
S10D23A276616C6964612E0D0A0077
S9030000FC
