S01100004D41535445523132432E73726563A1
S11300000C9402060C941F060C941F060C9475069F
S11300100C941F060C941F060C941F060C941F06C8
S11300200C941F060C941F060C941F060C94AC062B
S11300300C941F060C941F060C943B1E0C941F0674
S11300400C941F060C941F060C941F060C94501B52
S11300500C941F060C941F060C941F060C941F0688
S11300600C941F060C941F06450B4A0B4F0B540BA4
S1130070590B5E0B630B680B6D0B720B770B7C0BD0
S1130080810B9B1AA01AA51AB71ABC1ABC1AB71A64
S1130090C11AB71AC61AF01AF51AFA1A4573636127
S11300A06E656F207465726D696E61646F2E0D0AE2
S11300B000202030783239206573746120617061CA
S11300C06761646F20706F722058534855542E0D29
S11300D00A0020206E696E67756E6120646972651E
S11300E06363696F6E20726573706F6E64696F0D00
S11300F00A000D0A002020656E636F6E74726164DD
S11301006F20000D0A002C2072656D20002C2064E5
S11301106972200072756E20000D0A002C20454E75
S11301204120002C2070776D20006469722000202B
S11301306465670D0A006E6F20646973706F6E6981
S1130140626C650D0A002020537465707065723A04
S11301502000202044432F4C3239384E3A200020CE
S1130160205075657274613A2000202041677561E2
S11301703A2000457363616E656F20493243203035
S11301807830382D3078373720696E696369616457
S11301906F2E0D0A00457363616E656F204932430B
S11301A02079612061637469766F2E0D0A004465BD
S11301B073636F6E6F6369646F004572726F723A36
S11301C0206573706572616E646F204952206C699A
S11301D0627265004572726F723A2072656375705F
S11301E06572616E646F20656E6C61636573004552
S11301F073706572616E646F2072657469726F00EA
S11302005265746F726E6F2066696E616C00427520
S11302107363616E646F2073616C696461004C6127
S11302207661646F0042757363616E646F206C6104
S11302307661646F00456E6A61626F6E61646F001F
S11302405265666572656E6369612048432D535239
S113025030340042757363616E646F20656E6A6149
S1130260626F6E61646F00456E7472616461005206
S113027065706F736F005265766973696F6E20499C
S11302803243000D0A4163747561646F7265733A99
S11302900D0A0073696E206D7565737472610020B8
S11302A06D6D002C20756C74696D612076616C69CC
S11302B0646120005853485554204C4F57004F4E0A
S11302C0000D0A564C35333A2000206D6D2C202346
S11302D0002075732C200073696E206D756573742E
S11302E07261000D0A484320756C74696D61207653
S11302F0616C6964613A20002C2023006C6962728D
S1130300650064657465637461646F0073696E206D
S11303106D756573747261000D0A495220756C74B1
S1130320696D612076616C6964613A2000415554BD
S11303304F4D415449434F2C2065737461646F3AA7
S113034020004D414E55414C2041444146525549AF
S113035054000D0A4D6F646F3A2000557365207088
S11303603D65737461646F2C20733D657363616EC6
S1130370656F206F20626F746F6E2044313120707E
S1130380617261206D6F646F2E0D0A004572726F89
S11303907220493243004573706572616E646F2E3A
S11303A02E2E000D0A004552524F523A2000656E1F
S11303B06C616365207065726469646F2064757232
S11303C0616E746520726563757065726163696FCF
S11303D06E00456E6C61636573207265637570654C
S11303E07261646F733B206573706572616E646FD4
S11303F0204952206C696272652E0D0A00564C35F4
S1130400334C30582061756E206E6F2064697370B0
S11304106F6E69626C652E0D0A00736520706572DB
S113042064696F20495220616C2066696E616C6951
S11304307A6172000D0A0043617257617368202D5E
S11304403E2000564C3533206E6F20696E69636917
S11304506F2074726173206C617661646F007374D1
S11304606570706572206E6F207265696E6963696C
S11304706F00564C3533206E6F207265696E696368
S1130480696F2074726173206C617661646F006DB2
S11304906F746F72204443206E6F2073652064650F
S11304A07475766F0042757363616E646F206C615E
S11304B07661646F0073746570706572206E6F206E
S11304C07265696E6963696F0061677561206E6F3B
S11304D020636572726F0061677561206E6F2061C1
S11304E06272696F0061677561206E6F2063657267
S11304F0726F2074726173204E4F5F53414D504CA4
S113050045007265737075657374612048432D539B
S113051052303420696E76616C696461005265748E
S11305206F726E6F2066696E616C203520730047B0
S113053072616369617320706F7200656C656769CD
S1130540726E6F730073746570706572206E6F20C5
S113055061636570746F207265746F726E6F00668C
S1130560616C6C6F20656E207061726164612066DD
S1130570696E616C004C617661646F004C617661F8
S11305806E646F007475206175746F006D6F746FA5
S113059072204443206E6F2061636570746F206F16
S11305A07264656E0073746570706572206E6F207E
S11305B073652064657475766F00456E6A61626F59
S11305C06E61646F00456E6A61626F6E616E646F26
S11305D0007475206175746F0066616C6C6F2061C6
S11305E06C20707265706172617220656E6A6162FE
S11305F06F6E61646F0046494E0D0A00206D6D0DEB
S11306000A00564C35334C30583A20006572726FEC
S113061072204932432064656C20564C35334C308B
S1130620580042757363616E646F20656E6A61621F
S11306306F6E61646F0073746570706572206E6FA5
S11306402061636570746F206176616E6365006616
S1130650616C6C6F20616C20696E696369616C699F
S11306607A617220564C35334C305800456E7472A2
S113067061646100496E67726573616E646F0074D2
S113068075206175746F00707565727461206E6F8A
S11306902061636570746F20353020677261646F08
S11306A073006C65637475726120495220696E76BB
S11306B0616C696461005265706F736F00426965B3
S11306C06E76656E69646F20616C00436172576178
S11306D07368006E6F207365207075646F2061739A
S11306E065677572617220656C207265706F736FD7
S11306F00029002C2054574920004552524F5220C3
S11307002849324320000D0A00290D0A002C2054E8
S1130710574920004552524F52202850726F746F2F
S1130720636F6C2065737461646F20004F4B0D0A16
S1130730003A200020002020000D0A002020202064
S1130740536572766F207075657274613A20000D7E
S11307500A0020202020536572766F20616775613E
S11307603A20000D0A0020202020536C6176653267
S11307702053544F503A20000D0A002020202053CB
S11307806C617665312053544F503A2000455252E3
S11307904F520D0A004F4B0D0A00202053544F5066
S11307A02073656775726F3A2000290D0A002C20AA
S11307B054574920002C2049324320004552524FBF
S11307C0522028564C20004F4B0D0A003A2000209E
S11307D020564C35334C30582000536C61766532CA
S11307E000536C61766531005265766973696F6E8A
S11307F02049324320696E696369616C3A0D0A00CD
S11308005265696E74656E74616E646F20656E20E6
S113081031303030206D732E2E2E0D0A00436F6E52
S11308206578696F6E204932433A204552524F52DF
S11308300D0A004572726F72204932430052656995
S11308406E74656E74616E646F0043617257617398
S113085068206175746F6D617469636F206861628B
S1130860696C697461646F2E0D0A00436F6E65785C
S1130870696F6E204932433A20455849544F5341D9
S11308800D0A005265766973616E646F20493243C4
S1130890004573706572652E2E2E00736520706599
S11308A07264696F20756E20536C617665006573A0
S11308B07461646F20696E7465726E6F2064657311
S11308C0636F6E6F6369646F004573706572616E08
S11308D0646F2072657469726F00737465707065FB
S11308E072206E6F2064657475766F207265746F04
S11308F0726E6F00564C00564C00564C0049520024
S113090049520048435200484352004D4F44450069
S11309104C4344004572726F7220636F6D616E6464
S11309206F004D616E75616C3A206F7264656E2064
S113093072656368617A61646120706F7220656CAE
S113094020536C6176652E0D0A004D616E75616CE5
S11309503A20646973706F73697469766F206F20CD
S113096072616E676F20696E76616C69646F2E0DBB
S11309700A004C434400446574656E69646F005317
S11309805400444F005741004443004F7264656E65
S11309902041646166727569742069676E6F726163
S11309A0646120656E206D6F646F206175746F6D76
S11309B0617469636F2E0D0A004D616E75616C3A46
S11309C02076616C6F7220726563696269646F205E
S11309D0696E76616C69646F2E0D0A004553502070
S11309E0554152543A206275666665722064657397
S11309F0626F726461646F2E0D0A004D6F646F2024
S1130A004155544F4D415449434F3A207265696EE4
S1130A10696369616E646F207265766973696F6E6C
S1130A20204932432E0D0A004D4F4445000D0A0063
S1130A304043572C542C00535400444F005741005A
S1130A404443004D616E75616C3A206E6F2073658E
S1130A5020636F6E6669726D6F206C6120706172C5
S1130A60616461207365677572612E0D0A004D6FB4
S1130A70646F204D414E55414C204164616672754E
S1130A80697420686162696C697461646F2E0D0A0F
S1130A90004C4344004D6F646F206D616E75616C52
S1130AA0004D4F4445004D6F646F206D616E75615C
S1130AB06C00416461667275697420494F00526527
S1130AC0766973616E646F204932430045737065C3
S1130AD072652E2E2E000D0A004043572C542C0014
S1130AE03078004D4F444500455350205258206300
S1130AF06F6D616E646F733A204431322061203926
S1130B003630302062617564696F732E0D0A00708F
S1130B103A2065737461646F2020733A20657363AF
S1130B20616E656F20204431313A206175746F6DB8
S1130B30617469636F2F6D616E75616C0D0A000DD0
S1130B400A005265736574204D435553523A200090
S1130B504D4153544552313243206C6973746F2EA6
S1130B600D0A00FF010000FF00090010001100241D
S1130B700125FF7500FF014E2C48003020FF003096
S1130B800954003104320340834625600027005095
S1130B9006510052965608573061006200640065A1
S1130BA00066A0FF012232471449FF4A00FF007A81
S1130BB00A7B007821FF012334420044FF45264686
S1130BC00540400E06201A4340FF0034033544FF1D
S1130BD00131044B094C054D04FF004400452047F6
S1130BE008482867007004710172FE76007700FFE0
S1130BF0010D01FF00800101F8FF018E010001FFDA
S1130C000080000011241FBECFEFD8E0DEBFCDBFAF
S1130C1011E0A0E0B1E0E6E4FEE402C005900D922C
S1130C20A433B107D9F722E0A4E3B1E001C01D92D7
S1130C30AD3FB207E1F70E947B1B0C9421270C9473
S1130C40000084B18F7E84B985B1806185B910922A
S1130C50800082E0809381001092850010928400CD
S1130C60EFE6F0E080818D7F8083EBE6F0E0808129
S1130C708061808381E08BBBE8E6F0E08081816065
S1130C8080830895209139019091380181E02913DE
S1130C9001C080E008954FB7F89491E080E014C05B
S1130CA0309139012091380190E0321769F0E091D8
S1130CB03801F0E0E65CFE4F8081909138019F5F3F
S1130CC09F739093380190E09111EACF4FBF08953C
S1130CD02FB7F89491E005C0809137011092370145
S1130CE090E09111F9CF2FBF08951F920F920FB684
S1130CF00F9211242F938F939F93EF93FF938091DF
S1130D008400909185002091360121111BC01C990B
S1130D1019C021E02093360110923501109234015C
S1130D20EBE6F0E020812F7E2083885C9E4F909339
S1130D3089008093880082E086BBEFE6F0E0808142
S1130D4082608083FF91EF919F918F912F910F90FB
S1130D500FBE0F901F9018951F920F920FB60F920F
S1130D6011242F938F939F93EF93FF9380913501D9
S1130D708830F0F41C9B0EC02091350181E090E096
S1130D8002C0880F991F2A95E2F790913401892BAC
S1130D9080933401809135018F5F80933501E8E8B9
S1130DA0F0E08081918180539F4F9183808326C09E
S1130DB01C9B16C0809139018F5F8F73909138010D
S1130DC0891759F0E0913901F0E090913401E65C23
S1130DD0FE4F90838093390103C081E080933701F3
S1130DE0EFE6F0E080818D7F80831092360181E010
S1130DF08BBBEBE6F0E0808180618083FF91EF9113
S1130E009F918F912F910F900FBE0F901F90189567
S1130E1088E893E114C0009769F48091B900887F51
S1130E208093000186E080937A0184E08093BC0083
S1130E3080E00895019725E02A95F1F700002091BC
S1130E40BC00222344F781E008950F931F93CF93AE
S1130E508B019C01C42F87B18F7C87B9443079F012
S1130E6018F4413031F023C0403191F04034C9F0DE
S1130E701EC0E9EBF0E080818C7F80831EC0E9EB2B
S1130E80F0E080818D7F808380818160808315C0C4
S1130E90E9EBF0E080818E7F8083808182608083B3
S1130EA00CC0E9EBF0E080818360808306C0E9EB4D
S1130EB0F0E080818C7F8083C1E00115110521055C
S1130EC0310521F400EA16E821E030E060E074E244
S1130ED084EF90E0A90198010E94BD26CA01B901DE
S1130EE060517109810991090C2F10E020E030E074
S1130EF0A9019801220F331F441F551F0E94BD26CC
S1130F002093B80084E08093BC008091B900887F6E
S1130F108093000110927A01CF911F910F9108954F
S1130F2010927A0184EA8093BC000E940807882307
S1130F3069F08091B900887F80930001883029F09E
S1130F4082E080937A0180E0089581E0089584EA44
S1130F508093BC000E940807882369F08091B9003F
S1130F60887F80930001803129F082E080937A01A8
S1130F7080E0089581E0089584E98093BC0088E8C6
S1130F8093E115C0009771F48091B900887F809334
S1130F90000187E080937A01ECEBF0E0108284E0BA
S1130FA080830895019725E02A95F1F700002091A8
S1130FB0BC0024FDE7CF08958093BB0084E88093B0
S1130FC0BC000E9408078823A9F08091B900887F9B
S1130FD080930001883149F0883249F0803449F027
S1130FE084E080937A0180E0089581E0089581E0AF
S1130FF0089581E00895880F611181600E94DC07E3
S1131000811104C093E090937A01089581E00895DA
S11310100F931F93CF93C82F8B010E9490078823AF
S1131020C1F060E08C2F0E94FB07882391F0C0E0A0
S11310300DC0F801EC0FF11D80810E94DC078111C5
S113104004C094E090937A0104C0CF5FC83088F361
S113105081E0CF911F910F9108950F931F93CF9328
S1131060009729F481E080937A0180E026C066230A
S113107021F024EC2093BC0003C024E82093BC009E
S1131080C62F8C010E9408078823B9F08091B9000B
S1131090887F80930001CC2311F0803521F4C111A5
S11310A007C0883529F085E080937A0180E005C087
S11310B08091BB00F801808381E0CF911F910F9153
S11310C008950F931F93CF93C82F8B01442329F0C6
S11310D00E94A707811105C01FC00E9490078823A2
S11310E0D9F061E08C2F0E94FB078823A9F0C0E0AF
S11310F010C061E0C73008F060E0C8018C0F911D9A
S11311000E942D08811104C095E090937A0104C0D7
S1131110CF5FC83070F381E0CF911F910F91089594
S1131120CF93DF93D82F10927A010E949007C82F93
S1131130882329F060E08D2F0E94FB07C82F0E94AE
S1131140BC0780917A01873011F480E001C08C2FB4
S1131150DF91CF910895CF92DF92EF92FF920F9398
S11311601F93CF93DF936115710519F04115510554
S113117029F481E080937A01C0E077C0F22E8A01DD
S11311806B01E82E10927A010E940808C82F811181
S113119003C00E94BC0769C0F11027C041E0B80138
S11311A08E2D0E946108C82F811103C00E94BC07C4
S11311B05CC00E94BC0780917A01873009F450C05A
S11311C0F8019081F6018081981306C0F80191819D
S11311D0F6018181981729F088E080937A01C0E0B4
S11311E044C010927A01C1E040C00E94BC078091C3
S11311F07A018730B9F1D0E02CC08FE99FE00197E4
S1131200F1F700C0000040E0B8018E2D0E94610893
S1131210C82F811107C00E94BC0780917A018730D2
S1131220B9F423C00E94BC0780917A018730E1F0B1
S1131230F8019081F601808198130AC0F801918128
S1131240F6018181981304C010927A01C1E00DC0A7
S1131250DF5FD83290F288E080937A01C0E005C065
S1131260C0E003C0C0E001C0C0E08C2FDF91CF918B
S11312701F910F91FF90EF90DF90CF90089521E0A0
S11312800E94AB08089580910001089580917A012D
S1131290089588B1816088B985E08A95F1F70000E6
S11312A088B18E7F88B98FE891E00197F1F700C08B
S11312B0000008959BB193709BB995B19C7F95B93B
S11312C080FF03C09BB194609BB981FF03C09BB1B5
S11312D098609BB982FF03C09BB190619BB983FF67
S11312E003C09BB190629BB984FF03C09BB190641F
S11312F09BB985FF03C09BB190689BB986FF03C06F
S113130095B1916095B988231CF485B1826085B943
S1131310089598B19D7F98B90E945A090E9449097D
S11313208FE39FE10197F1F700C00000089598B1A1
S1131330926098B90E945A090E9449098FE891E085
S11313400197F1F700C000000895613021F481583D
S11313500E948909089581540E948909089581E0B1
S11313600E9489098FE39FE10197F1F700C0000013
S113137008958AB18C6F8AB984B1836084B987B1C6
S1131380826087B987B1816087B988B18D7F88B958
S113139088B18E7F88B98BB183708BB985B18C7F0E
S11313A085B92FEF89EF90E0215080409040E1F71C
S11313B000C0000088E30E9489098CE00E9489092A
S11313C086E00E9489090E94AF0908951092C50021
S11313D087E68093C40088E18093C10086E080930F
S11313E0C20008959091F8019F5F2091F701921730
S11313F0C9F3E091F801F0E0E750FE4F8083909349
S1131400F801E1ECF0E08081806280830895CF935D
S1131410DF93EC01FC01849105C00E94F20921963E
S1131420FE0184918111F9CFDF91CF9108958091CC
S1131430C000881F8827881F08958091C6000895DA
S11314401F93CF93DF9300D000D01F92CDB7DEB7A8
S1131450AC01892B91F580E30E94F2093FC09A0107
S1131460ADECBCEC0E94E5269695879596958795FC
S1131470969587959C01220F331F880F991F880F1B
S1131480991F880F991F820F931F9A01281B390BEC
S1131490C901805DE1E0F0E0EC0FFD1FE10FF11DFB
S11314A080839A010E94E526AC015695479556958E
S11314B04795569547951F5F01C010E041155105AA
S11314C071F60AC01150E1E0F0E0EC0FFD1FE10FEE
S11314D0F11D80810E94F2091111F4CF0F900F9039
S11314E00F900F900F90DF91CF911F910895CF939C
S11314F0DF93EC01992344F48DE20E94F2098827DA
S113150099278C1B9D0B00C00E94200ADF91CF916C
S113151008958F708A3010F4805D01C0895C0E9448
S1131520F2090895CF93C82F80EE9AE00E94070A2B
S11315308C2F82958F700E94890A8C2F0E94890AB1
S1131540CF910895CF93DF93D82FC62F8AEF96E0DB
S11315500E94070A8D2F90E00E94200A83EF96E0F4
S11315600E94070A8C2F0E94920A81EF96E00E9443
S1131570070ADF91CF9108950F931F93CF93DF93C1
S11315808C01EB0189ED9AE00E94070AC8010E94D0
S1131590070A8CE20E94F209CE010E94770A86EDC6
S11315A09AE00E94070ADF91CF911F910F9108954D
S11315B00F931F93CF93DF938C01EB0180E39AE0A9
S11315C00E94070AC8010E94070A8CE20E94F209DD
S11315D0CE010E94070A8DE29AE00E94070ADF9179
S11315E0CF911F910F910895DC01CB01821B930BC6
S11315F0A40BB50B80959095A095B0958827B7FD61
S113160083959927AA27BB270895FB0190819923E5
S113161021F0FA019081981739F091E0FB01908351
S1131620FA01808381E0089580E00895A0E0B0E0AD
S1131630880F991FAA1FBB1FAC01BD01440F551F82
S1131640661F771F440F551F661F771F840F951F52
S1131650A61FB71FBC01CD01635E7F4F8F4F9F4F05
S11316602AE330E040E050E00E94BD26C90108951D
S1131670E091AA018E2F90E08D30910508F046C0CC
S1131680FC01EC5CFF4F0C94DF2686E792E00E949D
S1131690070A08958FE692E00E94070A089587E6F4
S11316A092E00E94070A089583E592E00E94070AE7
S11316B0089580E492E00E94070A089585E392E089
S11316C00E94070A089585E292E00E94070A08959D
S11316D08EE192E00E94070A08958EE092E00E9453
S11316E0070A089580E092E00E94070A08958FEEA9
S11316F091E00E94070A089584ED91E00E94070A90
S113170008958AEB91E00E94070A08958EEA91E019
S11317100E94070A0895CF93DF9382E593E00E9425
S1131720070A8091A801882329F082E493E00E94AB
S1131730070A06C08DE293E00E94070A0E94380B54
S113174088E193E00E94070A80911901811105C084
S11317508CE093E00E94070A16C080911A0181115F
S113176005C082E093E00E94070A04C08CEF92E077
S11317700E94070A88EF92E00E94070A80911B01E9
S113178090E00E94200A83EE92E00E94070A809172
S1131790DE01811105C087ED92E00E94070A18C09E
S11317A0CEEDD1E089819A810E94200A81ED92E0F8
S11317B00E94070A89819A810E94160B0E94200ABE
S11317C08AEC92E00E94070A8B8190E00E94200A32
S11317D081EC92E00E94070A8091DC01882329F0C1
S11317E08EEB92E00E94070A04C084EB92E00E9410
S11317F0070A83EA92E00E94070A8091D3018823B2
S113180059F08091D1019091D2010E94200A8FE970
S113181092E00E94070A04C083E992E00E94070A4A
S113182083E892E00E94070ADF91CF9108958091A6
S11318301601882329F085E991E00E94070A08959A
S1131840E6E1F1E081E0808388E08183128283E72E
S113185091E00E94070A089524B1277F24B925B195
S1131860286025B923B123FB222720F9E0E1F1E028
S113187020832183628373838483958308950F93E4
S11318801F93CF93FC01DB01892B09F45DC01097F2
S113189009F45CC08081882309F45AC08D3219F49C
S11318A03196C1E006C08B3219F43196C0E001C014
S11318B0C0E08081882309F44DC040E050E0BA01C3
S11318C021C090539A3008F047C0440F551F661F3B
S11318D0771F8A019B01000F111F221F331F000F66
S11318E0111F221F331F400F511F621F731F490F07
S11318F0511D611D711D413080E858076105710556
S113190068F5319690819111DCCFCC2399F0411583
S113191080E858076105710531F480E090E88D9303
S11319209C9381E01EC05195419551094D935C9360
S113193081E017C0411580E858076105710580F4FE
S11319404D935C9381E00DC080E00BC080E009C042
S113195080E007C080E005C080E003C080E001C0F3
S113196080E0CF911F910F910895CF93DF93C1E051
S1131970D1E06885798580E49AE00E94BC0A6C8590
S113198070E08DE39AE00E94BC0A6D8570E08AE302
S11319909AE00E94BC0A6A857B8587E39AE00E94EC
S11319A0BC0ADF91CF910895CF92DF92EF92FF921C
S11319B06B017C012091A4013091A5014091A60105
S11319C05091A7010E94F40A8823A9F088EEC80E5A
S11319D083E0D81EE11CF11CC092A401D092A501A1
S11319E0E092A601F092A7016091A80170E08BE05B
S11319F099E00E94BC0AFF90EF90DF90CF90089589
S1131A00CF93DF93EC0187E394E00E94070ACE01B1
S1131A100E94070A84E394E00E94070ADF91CF91B1
S1131A2008950E94170A8823D9F00E941D0A8D3058
S1131A30B9F08A30A9F0803711F0803531F40E9472
S1131A408B0B81E08093A9010895833711F08335CE
S1131A5019F40E94170C08958BE593E00E94070A7D
S1131A60089582EE91E00E94B323EAEAF1E012AA1B
S1131A7013AA0895CF93DF93EC01FC01849105C070
S1131A800E9497092196FE0184918111F9CFDF917B
S1131A90CF9108950F931F93CF93DF938C01EB01A4
S1131AA00E94AF0961E081E00E94A509C8010E947B
S1131AB03A0D62E081E00E94A509CE010E943A0D30
S1131AC0DF91CF911F910F910895EAEAF1E010821E
S1131AD061A372A383A394A30E94310D6CEC7AE0FA
S1131AE08EEB9AE00E944A0D0895DF92EF92FF92E6
S1131AF00F931F93CF93DF93CDB7DEB760970FB6E5
S1131B00F894DEBF0FBECDBF61157105B1F141156B
S1131B105105A9F17A018B01D82EBE016F5F7F4F69
S1131B20C8010E94ED1CF8018081813051F4AE019E
S1131B30475F5F4FBE016F5F7F4F8D2D0E943F094E
S1131B400AC021E0AE01475F5F4FBE016F5F7F4F68
S1131B508D2D0E94AB088823A1F0B701CE01099610
S1131B600E94141D81110FC0B701C8010E944D1DB0
S1131B7091E0882349F090E007C090E005C090E030
S1131B8003C090E001C090E0892F60960FB6F894EE
S1131B90DEBF0FBECDBFDF91CF911F910F91FF909C
S1131BA0EF90DF900895DF92EF92FF920F931F93CF
S1131BB0CF93DF93CDB7DEB728970FB6F894DEBF87
S1131BC00FBECDBFD82ECE0101960E94B51C811147
S1131BD008C0A701BE016F5F7F4F8D2D0E94750D58
S1131BE001C080E028960FB6F894DEBF0FBECDBFCB
S1131BF0DF91CF911F910F91FF90EF90DF900895A7
S1131C00EF92FF920F931F93CF93DF93CDB7DEB77D
S1131C1028970FB6F894DEBF0FBECDBFFE013196F4
S1131C207F010E94D30D882329F09B8181E09130AC
S1131C3009F080E028960FB6F894DEBF0FBECDBF42
S1131C40DF91CF911F910F91FF90EF9008950F9323
S1131C501F93462F00E010E020E066E00E94000E93
S1131C601F910F9108950F931F93CF93DF931F92AA
S1131C70CDB7DEB749838E010F5F1F4F21E0462F9A
S1131C8063E00E94000E0F90DF91CF911F910F919E
S1131C9008951F93CF93DF936FE781E10E94270E8E
S1131CA0C82F6FE782E10E94270ED82F40E063E03F
S1131CB081E10E94330E182F41E964E082E10E9421
S1131CC0330ECC2339F0DD2339F0112339F081119F
S1131CD007C007C080E005C080E003C080E001C009
S1131CE081E0DF91CF911F9108950E94490E8823CE
S1131CF061F0E1E0F1E01186108613861286148605
S1131D0081E985870E94B50C81E00895CF92DF9226
S1131D10EF92FF92CF936B017C0181E08093A80145
S1131D200E94310D0E94750EC82FE1E0F1E0C082DF
S1131D30D182E282F382C482D582E682F782168659
S1131D401092D30162EB7AE086EA9AE00E944A0D8F
S1131D5061E070E081EA9AE00E94BC0A65E97AE0F9
S1131D6081E99AE00E94D80A8EE69AE00E94070A66
S1131D70C11104C083E49AE00E94070ACF91FF9046
S1131D80EF90DF90CF900895CF92DF92EF92FF9281
S1131D906B017C010E94750E0E94310D1092A80106
S1131DA060E070E088E29AE00E94BC0A8BEF99E060
S1131DB00E94070AC701B6010E94650DFF90EF90CB
S1131DC0DF90CF900895CF92DF92EF92FF92CF935E
S1131DD0DF9333B121E0D32FD87033FF20E0C22F3B
S1131DE030911001231741F0E0E1F1E02083628398
S1131DF07383848395832BC020911101C21739F119
S1131E006B017C018091120190911301A091140146
S1131E10B09115019C01AD01285D3F4F4F4F5F4FBD
S1131E20C701B6010E94F40A882389F0C093110106
S1131E30D1110DC08091A801811105C0C701B6015F
S1131E400E94860E04C0C701B6010E94C40EDF9131
S1131E50CF91FF90EF90DF90CF900895CF92DF92D3
S1131E60EF92FF92CF93DF936B017C01EA0186EA44
S1131E7093E00E94070ACE010E94070A83EA93E0D6
S1131E800E94070ACAEAD1E08BE0888319AA1FA638
S1131E901AA60E94310D0E94490E66E973E08CE88F
S1131EA093E00E944A0DCD8EDE8EEF8EF8A284EF71
S1131EB0C80E81E0D81EE11CF11CC98EDA8EEB8EAF
S1131EC0FC8EDF91CF91FF90EF90DF90CF9008953B
S1131ED0EAEAF1E081E0808316A617A612A613A60B
S1131EE016A215A210AA0E94310D0E94490E81115A
S1131EF007C00E942A1E43ED56E00E942E0F08954B
S1131F000E942A1EEAEAF1E065837683878390873C
S1131F10DC01CB018C509E4FAF4FBF4F818F928F0E
S1131F20A38FB48F6BEC76E08DEB96E00E944A0DA4
S1131F3086EB96E00E94000D0895CF93DF9342E371
S1131F4064E082E10E94330E811107C00E942A1EC0
S1131F5047E856E00E942E0F1BC0CAEAD1E082E097
S1131F6088830E942A1EDC01CB018854944FAF4F12
S1131F70BF4F89839A83AB83BC831EA66FE776E049
S1131F8084E796E00E944A0D8CE696E00E94000DDC
S1131F90DF91CF910895CF93DF9366E082E10E94B1
S1131FA0270EC82F41E964E082E10E94330ED82F46
S1131FB040E063E081E10E94330ECC2321F0DD2375
S1131FC011F0811107C00E942A1E49ED55E00E94BC
S1131FD02E0F18C0CAEAD1E084E088831EA21DA295
S1131FE01BA61BAA0E942A1E69877A878B879C8757
S1131FF061ED75E085EC95E00E944A0D8AEB95E071
S11320000E94000DDF91CF9108950F931F93CF93FA
S1132010DF9300D0CDB7DEB789836A838E010F5F6B
S11320201F4F22E045E064E081E10E94000E0F9022
S11320300F90DF91CF911F910F910895CF93DF936C
S113204066E082E10E94270E811107C00E942A1EC9
S113205045EA55E00E942E0F29C060E881E00E9405
S11320600510811107C00E942A1E4CE855E00E9409
S11320702E0F1CC0CAEAD1E087E0888318AA1BAAE5
S11320800E942A1EDC01CB0188519C4FAF4FBF4FE9
S113209089839A83AB83BC8364E875E08CE795E01D
S11320A00E944A0D85E795E00E94000DDF91CF91D3
S11320B008950F931F93CF93DF9300D000D01F9206
S11320C0CDB7DEB789831A821B827C836D838E0130
S11320D00F5F1F4F25E046E065E082E10E94000E9D
S11320E00F900F900F900F900F90DF91CF911F9151
S11320F00F91089560E273E00E9459100895CF9300
S1132100DF930E94490E811107C00E942A1E4FE5E9
S113211055E00E942E0F28C00E94310D80E00E94DD
S11321207A10811107C00E942A1E45E455E00E94DE
S11321302E0F1AC0CAEAD1E089E088830E942A1EC1
S1132140DC01CB0188579C4EAF4FBF4F89839A83E4
S1132150AB83BC836BE375E08FE295E00E944A0D8C
S11321608DE195E00E94000DDF91CF910895CF930A
S1132170DF9340E063E081E10E94330E811107C0E8
S11321800E942A1E49EC54E00E942E0F1BC081E0DD
S11321900E947A10811107C00E942A1E45EB54E068
S11321A00E942E0F0FC0CAEAD1E086E088830E9405
S11321B02A1E6D877E878F87988B1BAA85EA94E0F9
S11321C00E94000DDF91CF910895AF92BF92CF92FC
S11321D0DF92EF92FF920F931F93CF93DF93CDB7CC
S11321E0DEB728970FB6F894DEBF0FBECDBF0097B9
S11321F091F16115710589F15B016C01CE010196C4
S11322007C0100E010E020E041E062E081E10E9416
S1132210D30D882321F18E8190E0982F88272F8178
S1132220822BD60111969C938E939885F501908309
S11322308B818730B1F0811116C08D818823A9F07C
S1132240EEEDF1E081E080832D913C913283218396
S1132250938382E00BC080E009C080E007C080E087
S113226005C081E003C080E001C080E028960FB67D
S1132270F894DEBF0FBECDBFDF91CF911F910F91B8
S1132280FF90EF90DF90CF90BF90AF900895CF92E2
S1132290DF92EF92FF921F93CF93DF9300D01F92B0
S11322A0CDB7DEB76B017C012091B3013091B4014D
S11322B04091B5015091B6010E94F40A882309F4B3
S11322C075C084E6C80ED11CE11CF11CC092B30198
S11322D0D092B401E092B501F092B601BE016D5FF7
S11322E07F4FCE0101960E94E510182F811107C07F
S11322F00E942A1E42E055E00E942E0F57C047ED6F
S113230051E065ED71E08B810E94050B882309F48F
S11323104DC01130D1F48091AA01853009F046C036
S113232040E063E081E10E94330E811107C00E9406
S11323302A1E45EE54E00E942E0F38C0EAEAF1E06E
S113234084E0808316A215A231C089819A810E94FB
S1132350160B2091AA012430B1F49093D0018093FC
S1132360CF014AE563E081E10E94330E811107C089
S11323700E942A1E47ED54E00E942E0F17C085E0EC
S11323808093AA0113C0A0E0B0E04091CF01509126
S1132390D00160E070E04C5E5F4F6F4F7F4F841759
S11323A09507A607B70710F00E94B7100F900F907B
S11323B00F90DF91CF911F91FF90EF90DF90CF901E
S11323C00895AF92BF92CF92DF92EF92FF920F9354
S11323D01F93CF93DF93CDB7DEB728970FB6F8944A
S11323E0DEBF0FBECDBF009749F16115710541F104
S11323F06B015C01CE0101967C0100E010E020E05D
S113240042E062E082E10E94D30D8823D9F08E81FC
S1132410D5018C939885F60190838B818730A1F048
S1132420811114C08D81882399F0E9E1F1E081E004
S113243080838C918183928382E00BC080E009C009
S113244080E007C080E005C081E003C080E001C0F7
S113245080E028960FB6F894DEBF0FBECDBFDF91A3
S1132460CF911F910F91FF90EF90DF90CF90BF908D
S1132470AF900895CF92DF92EF92FF921F93CF9384
S1132480DF9300D0CDB7DEB76B017C012091AF01A3
S11324903091B0014091B1015091B2010E94F40A0F
S11324A08823F1F184E6C80ED11CE11CF11CC09212
S11324B0AF01D092B001E092B101F092B201BE013D
S11324C06E5F7F4FCE0101960E94E111182F81119A
S11324D007C00E942A1E42EA56E00E942E0F20C026
S11324E046ED51E064ED71E08A810E94050B88237A
S11324F0B9F0123059F48981811108C08091D80152
S1132500853030F48F5F8093D80102C01092D801D7
S11325108091D801853020F00E942A1E0E949D0FD0
S11325200F900F90DF91CF911F91FF90EF90DF906C
S1132530CF900895CF92DF92EF92FF921F93CF93A3
S1132540DF9300D0CDB7DEB76B017C012091AF01E2
S11325503091B0014091B1015091B2010E94F40A4E
S11325608823F1F184E6C80ED11CE11CF11CC09251
S1132570AF01D092B001E092B101F092B201BE017C
S11325806E5F7F4FCE0101960E94E111182F8111D9
S113259007C00E942A1E4AE154E00E942E0F20C068
S11325A046ED51E064ED71E08A810E94050B8823B9
S11325B0B9F0123059F48981882341F08091D9010E
S11325C0853030F48F5F8093D90102C01092D90115
S11325D08091D901853020F00E942A1E0E94680F44
S11325E00F900F90DF91CF911F91FF90EF90DF90AC
S11325F0CF900895EF92FF920F931F93CF93DF93A1
S1132600CDB7DEB728970FB6F894DEBF0FBECDBFA7
S11326109E012F5F3F4F790100E010E020E04FE77B
S113262061E00E94D30D882321F09B8181E0911108
S113263080E028960FB6F894DEBF0FBECDBFDF91C1
S1132640CF911F910F91FF90EF900895CF92DF9259
S1132650EF92FF926B017C012091C3013091C40180
S11326604091C5015091C6010E94F40A882309F1E2
S113267084EFC80E81E0D81EE11CF11CC092C30196
S1132680D092C401E092C501F092C60181E10E949A
S1132690FA12F82E82E10E94FA12FF2011F0811141
S11326A00AC00E942A1E4BE958E00E942E0F80E0C7
S11326B003C081E001C081E0FF90EF90DF90CF90F4
S11326C00895CF92DF92EF92FF92CF936B017C013A
S11326D02091C3013091C4014091C5015091C601BC
S11326E00E94F40A882301F1D701C6018C509E4F41
S11326F0AF4FBF4F8093C3019093C401A093C50112
S1132700B093C60181E10E94FA12C82F82E10E94AF
S1132710FA12CC2311F0811107C00E942A1E4EEA3E
S113272053E00E942E0F04C0C701B6010E949A1202
S1132730CF91FF90EF90DF90CF900895DF92EF92CA
S1132740FF920F931F93CF93DF93CDB7DEB72897F4
S11327500FB6F894DEBF0FBECDBF8091A9018823C8
S113276009F498C0813051F48AE691E00E94070A86
S11327700F2EF3E0DF2EF02D81E120C0823049F4EA
S11327808FE591E00E94070A6894DD24D2F882E183
S113279015C0833051F482E591E00E94070A0F2EA0
S11327A0F5E0DF2EF02D81E109C086E491E00E947E
S11327B0070A0F2EF6E0DF2EF02D82E19E012F5F37
S11327C03F4F790100E010E020E04D2D61E00E94D0
S11327D0D30D882319F08B81882329F086E391E0B7
S11327E00E94070A4DC08DEF8D0D823048F48D8113
S11327F090E00E94200A8FE291E00E94070A40C004
S113280035E0D3121DC08AE291E00E94070A8D814F
S113281090E00E94200A83E291E00E94070A8E81E0
S113282090E00E94200A8CE191E00E94070A8F81C7
S113283090E00E94200A89E191E00E94070A20C0EA
S113284084E191E00E94070A8D8190E00E94200AB1
S11328508DE091E00E94070A8E8190E00E94200A98
S113286086E091E00E94070A8F8190E0982F8827E4
S11328702885822B0E94200A83E091E00E94070AA7
S11328808091A901843018F01092A90103C08F5FD0
S11328908093A90128960FB6F894DEBF0FBECDBF72
S11328A0DF91CF911F910F91FF90EF90DF900895EA
S11328B00F931F93CF93DF9300D0CDB7DEB700976C
S11328C009F4FCC08C0146E050E06CE171E00E9428
S11328D01327892B09F0F2C00A5F1F4F6CE270E0E6
S11328E0C8010E94FF26009709F4E8C0FC01119278
S11328F0CF01BE016F5F7F4F0E943F0C811105C065
S113290089EB99E00E94070AD9C08091A80181113E
S113291005C08BE899E00E94070AD0C063E271E029
S1132920C8010E940A27892B69F569817A8161307F
S1132930FFEF7F073CF16F3F710509F01CF561154E
S1132940710531F465E081E10E94270E182F0CC057
S113295081E0161617060CF080E0161617060CF028
S113296061950E940510182F112309F49BC06981F9
S11329707A8170930A016093090188E899E00E94C2
S1132980BC0A90C066E271E0C8010E940A27892B44
S1132990C1F449815A815523A4F0453B51058CF477
S11329A063E081E10E94330E182F882309F47AC072
S11329B069817A8160930D0185E899E00E94BC0ADF
S11329C071C069E271E0C8010E940A27892BC1F431
S11329D049815A815523A4F0453B51058CF464E0A8
S11329E082E10E94330E182F882309F45BC06981A9
S11329F07A8160930E0182E899E00E94BC0A52C079
S1132A006CE271E0C8010E940A27892B79F52981BB
S1132A103A8128318CEF38074CF1293EE3E03E0738
S1132A202CF52115310531F466E082E10E94270E70
S1132A30182F0FC081E0121613060CF080E0B901C4
S1132A40332324F466277727621B730B0E945910E3
S1132A50182F112339F169817A8170930C016093E5
S1132A600B018FE799E00E94BC0A1CC06FE271E081
S1132A70C8010E940A27892B81F489819A81892BB4
S1132A8061F40E94750E182F882361F066E779E0DF
S1132A9082E799E00E94D80A05C08AE499E00E947E
S1132AA0070A0CC011110AC082E299E00E94070AC9
S1132AB064E179E080E199E00E94D80A0F900F90D8
S1132AC0DF91CF911F910F9108950E94680688238A
S1132AD061F110927B018CED99E00E94070A25C0F8
S1132AE00E944B068D3009F18A3081F480917B017C
S1132AF0E82FF0E0E458FE4F1082882321F08CE7A1
S1132B0091E00E94581410927B010FC090917B01B8
S1132B10973248F4E92FF0E0E458FE4F80839F5F3A
S1132B2090937B0102C010927B010E9442068111A6
S1132B30D7CF0895CF92DF92EF92FF926B017C0181
S1132B4082EE91E00E943724882321F00E94310D07
S1132B5080E00DC0EAEAF1E081E082AB13AAC58609
S1132B60D686E786F08AC18AD28AE38AF48AFF90FD
S1132B70EF90DF90CF900895CF93DF930E942A1EA9
S1132B800E949A15811107C00E942A1E4FE456E044
S1132B900E942E0F1AC081E00E947A10811107C092
S1132BA00E942A1E46E356E00E942E0F0EC0CAEA77
S1132BB0D1E083E088830E942A1E6D877E878F87F9
S1132BC0988B82E296E00E94000DDF91CF910895E8
S1132BD0CF92DF92EF92FF92CF93DF936B017C0150
S1132BE02091C7013091C8014091C9015091CA0197
S1132BF00E94F40A882309F457C084EFC80E81E0C8
S1132C00D81EE11CF11CC092C701D092C801E09209
S1132C10C901F092CA010E94490E81E10E94FA1290
S1132C20F82E82E10E94FA12FF2011F0811103C0F4
S1132C301092DB0139C0EAEAF1E081A98F5F81AB30
S1132C40833090F10E942A1E0E949A15811107C0B8
S1132C501092DB018DEF93E00E94070A25C00E94C9
S1132C60310D0E94490E811103C01092DB011CC07A
S1132C70CAEAD1E08CE088831FA61AA60E942A1E05
S1132C806D837E838F8398870E942A1EDC01CB018B
S1132C908C509E4FAF4FBF4F898F9A8FAB8FBC8F95
S1132CA082ED93E00E94070ADF91CF91FF90EF90AD
S1132CB0DF90CF900895CF92DF92EF92FF920F931F
S1132CC01F93CF93DF931F92CDB7DEB74115510504
S1132CD009F49CC02091DC01222309F499C08A01E3
S1132CE06B017C018091DD01811131C02091B7011C
S1132CF03091B8014091B9015091BA01C701B601B0
S1132D000E94F40A882309F485C082EE91E00E94AF
S1132D10FC25811181C0EAEAF1E081E083ABC58A38
S1132D20D68AE78AF08ED701C601C296A11DB11DCD
S1132D3085879687A787B08B85E0C80ED11CE11CD8
S1132D40F11CC18AD28AE38AF48A80E070C020919F
S1132D50BB013091BC014091BD015091BE01C7013E
S1132D60B6010E94F40A882309F458C0D701C601A9
S1132D700596A11DB11D8093BB019093BC01A09346
S1132D80BD01B093BE01BE016F5F7F4F82EE91E043
S1132D900E945226811144C08981882359F0B801C8
S1132DA082EE91E00E949F261092DD0181113AC0CB
S1132DB081E03DC04091BF015091C0016091C101CB
S1132DC07091C2018091E5019091E6019A01AB01F5
S1132DD0280F391F411D511DC701B6010E94F40A75
S1132DE0882311F182EE91E00E949626EAEAF1E04E
S1132DF013AA92E3C90ED11CE11CF11CC586D68628
S1132E00E786F08A813091F482E011C082E00FC03D
S1132E1082E00DC080E00BC082E009C080E007C002
S1132E2082E005C082E003C080E001C080E00F9032
S1132E30DF91CF911F910F91FF90EF90DF90CF9092
S1132E400895CF92DF92EF92FF92CF93DF9300D059
S1132E5000D0CDB7DEB76B017C0120910101309128
S1132E60020140910301509104010E94F40A882355
S1132E7009F449C0E1E0F1E0D701C60186509F4F53
S1132E80AF4FBF4F80839183A283B3838685811123
S1132E901CC0BE016D5F7F4FCE0101960E94E510FC
S1132EA0823051F489819A810E94160BBC0187E01B
S1132EB099E00E94BC0A21C08130F9F46FEF7FEFE2
S1132EC083E099E00E94BC0A18C0BE016D5F7F4F89
S1132ED0CE0104960E94E111823039F46C8170E0D5
S1132EE080E099E00E94BC0A08C0813031F46FEFA1
S1132EF07FEF8DEF98E00E94BC0AE1E0F1E0968557
S1132F0081E0892786878091DC0181112AC0209184
S1132F100501309106014091070150910801C70154
S1132F20B6010E94F40A882309F44EC0C701B60111
S1132F300E949A15811148C020EDC20E27E0D21ECE
S1132F40E11CF11CC0920501D0920601E092070138
S1132F50F09208016FEF7FEF8AEF98E00E94BC0ABD
S1132F6033C0AE014F5F5F4FC701B6010E945B16CD
S1132F70813091F469817A81CB0144978D3B9740EC
S1132F8018F5EAEAF1E070A767A381E081A787EF6B
S1132F9098E00E94BC0A18C08230B1F40E94310D3E
S1132FA080EDC80E87E0D81EE11CF11CC09205011B
S1132FB0D0920601E0920701F09208016FEF7FEFD3
S1132FC084EF98E00E94BC0A0F900F900F900F902E
S1132FD0DF91CF91FF90EF90DF90CF900895CF9342
S1132FE0DF9300D0CDB7DEB7AE014F5F5F4F0E94D5
S1132FF05B16823039F40E942A1E4CE056E00E948F
S11330002E0F3AC08130C1F582E096E00E94070A93
S113301089819A810E94200A8CEF95E00E94070A18
S113302089819A819C01245131092D3B374020F537
S1133030EAEAF1E021E021A790A787A320812330C9
S113304039F4895091400697B8F40E94CB0F14C00C
S1133050263039F48D579109069770F40E941E109A
S11330600BC0283049F48734910530F486EF95E09D
S11330700E94070A0E947F100F900F90DF91CF915A
S113308008950F931F9365E081E10E94270E81113B
S113309007C00E942A1E4FE854E00E942E0F45C02C
S11330A082EE91E00E949626882339F00E942A1E1F
S11330B042E754E00E942E0F38C081E00E947A104B
S11330C0811107C00E942A1E4EE554E00E942E0F73
S11330D02CC082EE91E00E94FC25882339F00E94E6
S11330E02A1E43E454E00E942E0F1FC00E942A1E91
S11330F0EAEAF1E028E0208321E023AB658B768BBC
S1133100878B908F8B019C010E5C1F4F2F4F3F4F7D
S1133110058716872787308BDC01CB010596A11D17
S1133120B11D818B928BA38BB48B1F910F9108954A
S11331302091AB013091AC014091AD015091AE01B1
S11331400E94F40A8823D1F0EAEAF1E080A98F5FB3
S113315080AB853018F00E94411808950E942A1E01
S1133160DC01CB0188519C4FAF4FBF4F8093AB0123
S11331709093AC01A093AD01B093AE010895CF93A9
S11331800E944309C82F0E9446096C2F0E94A20A7C
S1133190CF910895DF92EF92FF920F931F93CF93F5
S11331A0DF93CDB7DEB728970FB6F894DEBF0FBE16
S11331B0CDBF8C01D62E86E397E00E94070AC80192
S11331C00E94070A84E397E00E94070A8D2D0E945B
S11331D0920A81E397E00E94070ACE0101967C01DE
S11331E000E010E020E04FE761E08D2D0E94D30D58
S11331F0882349F09B81911106C08CE297E00E94DC
S1133200070A81E01FC08823B1F084E197E00E949F
S1133210070A8B8190E00E94200A8DE097E00E94CB
S1133220070A0E9443090E94920A89E097E00E94DB
S1133230070A80E007C00E94BF1886E097E00E945A
S1133240070A80E028960FB6F894DEBF0FBECDBF04
S1133250DF91CF911F910F91FF90EF90DF90089530
S11332605F926F927F928F929F92AF92BF92CF9212
S1133270DF92EF92FF920F931F93CF93DF9388EE29
S113328097E00E94070A61E181EE97E00E94CA1864
S1133290F82E62E18AED97E00E94CA18E82E8FECBE
S11332A097E00E94070A89E20E94920A8CEC97E058
S11332B00E94070A82EE91E00E943724C82F8111F0
S11332C00CC0EAEAF1E081E082AB13AA87EC97E054
S11332D00E94070A552453941EC08CEB97E00E9469
S11332E0070A8C2F90E00E94200A85EB97E00E9449
S11332F0070A0E94460990E00E94200A8EEA97E09D
S11333000E94070A0E9443090E94920A8AEA97E0EF
S11333100E94070A512C0E94310D6FE781E10E943F
S1133320270EC82F0E944609782E0E944309682E52
S11333306FE782E10E94270ED82F0E944609982E3B
S11333400E944309882E40E063E081E10E94330E2D
S1133350182F0E944609B82E0E944309A82E41E95D
S113336064E082E10E94330E082F0E944609D82EA1
S11333700E944309C82E8AE997E00E94070ACC23D9
S113338059F0DD2349F0112339F0002329F085E9B0
S113339097E00E94070A3CC08DE897E00E94070A64
S11333A0C1110CC08BE797E00E94070A662D872D98
S11333B00E94A20A88E797E00E94070AD1110CC074
S11333C086E697E00E94070A682D892D0E94A20ACA
S11333D083E697E00E94070A11110CC082E597E08A
S11333E00E94070A6A2D8B2D0E94A20A8FE497E09F
S11333F00E94070A01110CC08CE397E00E94070A9F
S11334006C2D8D2D0E94A20A89E397E00E94070A81
S1133410FF2071F0EE2071F0552071F0CC2371F093
S1133420DD2371F0112371F001110EC080E00DC095
S113343080E00BC080E009C080E007C080E005C0E8
S113344080E003C080E001C081E0DF91CF911F9153
S11334500F91FF90EF90DF90CF90BF90AF909F902F
S11334608F907F906F905F9008952091CB01309161
S1133470CC014091CD015091CE010E94F40A8823E1
S1133480B9F161E978E083E898E00E944A0D0E946E
S11334903019882369F08BE698E00E94070A8AE4D1
S11334A098E00E94070A0E942A1E0E94680F08954D
S11334B00E94310D6DE378E083E398E00E944A0DA9
S11334C08DE198E00E94070A80E098E00E94070AD4
S11334D00E942A1EDC01CB0188519C4FAF4FBF4F85
S11334E08093CB019093CC01A093CD01B093CE01F6
S11334F00895CF92DF92EF92FF926B017C0180914D
S1133500AA01882359F08B3049F08C3039F0C70177
S1133510B6010E942613882309F477C0E091AA011A
S11335208E2F90E08D30910508F069C0FC01EF5BAF
S1133530FF4F0C94DF26C701B6010E94351A65C0FF
S1133540C701B6010E943A1260C02091AB013091CC
S1133550AC014091AD015091AE01C701B6010E948A
S1133560F40A882309F451C00E94BC154EC0C70157
S1133570B6010E94EF1749C0C701B6010E94471166
S113358044C0C701B6010E9498183FC02091AB0106
S11335903091AC014091AD015091AE01C701B6012B
S11335A00E94F40A882389F166E082E10E94270ED2
S11335B0811107C00E942A1E4AED58E00E942E0F76
S11335C024C0EAEAF1E08AE0808317A612A6C58245
S11335D0D682E782F08689EC98E00E94000D15C03F
S11335E0C701B6010E949A1210C0C701B6010E9419
S11335F0E8150BC0C701B6010E94611306C00E9402
S11336002A1E4EEA58E00E942E0FFF90EF90DF90A2
S1133610CF900895CF93DF9380911601882399F179
S1133620809117010E949008882379F085EF90E03B
S11336300E94070AC6E1D1E089810E94920A82EFC2
S113364090E00E94070A81E08A83809117018737FE
S1133650B8F080911801811104C082ED90E00E94BD
S1133660070A8091DC01811104C081EB90E00E9483
S1133670070A8CE990E00E94070A1092160103C021
S11336808F5F80931701DF91CF9108958091A901F5
S1133690882319F00E949E1308950E940A1B08951E
S11336A01F920F920FB60F9211248F939F93EF9353
S11336B0FF939091F7018091F801981306C0E1EC13
S11336C0F0E080818F7D80830DC0E091F701F0E010
S11336D0E750FE4F80818093C6008091F7018F5F91
S11336E08093F701FF91EF919F918F910F900FBEFF
S11336F00F901F901895F4B614BE0E94E6090E941C
S1133700B90941E060EA76E881E090E00E9425078B
S113371082EE91E00E94602322E045E250E064E200
S113372070E082EE91E00E947C2382EE91E00E94A0
S1133730B3230E941D1E0E9421060E942A1E0E947D
S11337402C0C789480E59BE00E94070A82E49BE0BD
S11337500E94070A8F2D0E94920A8FE39BE00E9429
S1133760070A8FE09BE00E94070A88EE9AE00E9415
S1133770070A60E070E083EE9AE00E94BC0A0E94AF
S11337802A1E0E94650D0E942A1E6B017C010E9464
S1133790E30E0E946515C701B6010E94D40C809106
S11337A0A801882329F0C701B6010E94211704C08B
S11337B0C701B6010E94791A0E94110D0E94461B8E
S11337C0E2CF9C0190E005C0F901E90FF11D1082E0
S11337D09F5F9617C8F30895CF93DF93DC0190E0C1
S11337E00BC0292F30E0FD01E20FF31FEB01C20FE4
S11337F0D31F288120839F5F941798F3DF91CF9183
S113380008958150863010F481E0089580E0089591
S11338109FEF980F963020F08F3721F481E00895C0
S113382081E0089580E00895893010F481E00895DE
S113383080E008950F931F93CF93DF93009709F4CB
S113384066C0EC011881812F0E94011C882309F4B1
S113385060C00981802F0E94081C882309F45BC082
S11338602A81263008F059C0822F07C0FE01E80FD4
S1133870F11D9381911153C08F5F8530B8F31330DC
S1133880C1F028F4113049F0123059F04AC0153013
S113389019F1C8F0163089F144C0211144C080E008
S11338A05FC00150023008F040C0211140C080E0E8
S11338B057C003500230E8F52130E9F58B81853B90
S11338C0E0F580E04DC00530D1F52230D1F58B8193
S11338D08230C8F580E044C00630B9F52530B9F52A
S11338E08B818230B0F58E8190E0982F88272F81CC
S11338F0822B892B81F180E033C08BEF800F8230E3
S113390010F00F3751F521112AC080E029C086E05C
S113391027C083E025C084E023C085E021C086E081
S11339201FC083E01DC085E01BC084E019C085E092
S113393017C084E015C085E013C086E011C084E0A0
S11339400FC085E00DC086E00BC084E009C085E0AF
S113395007C086E005C086E003C084E001C085E0BE
S1133960DF91CF911F910F910895CF92DF92EF9243
S1133970FF920F931F93CF93DF93009701F12630AB
S113398000F5222319F001151105E9F07801122F31
S1133990EC01688349832A836C0183E0C80ED11C3F
S11339A065E0C6010E94E11B112329F0412FB701F4
S11339B0C6010E94EC1BCE010E941A1C05C086E0C1
S11339C003C085E001C086E0DF91CF911F910F9184
S11339D0FF90EF90DF90CF900895CF93DF93DC01B9
S11339E0EB01892BF1F02097E1F08C9188831196FB
S11339F08C911197898312968C9112978A8390E007
S1133A000EC0292F30E0F9013396AF014C0F5D1F32
S1133A102A0F3B1FF9018381FA0180839F5F953050
S1133A2080F3DF91CF9108951F93CF93DF93FC012F
S1133A30DB01892B39F1109739F180818C938181D5
S1133A4011968C931197828112968C9312971381FD
S1133A5013961C93139790E00BC0292F30E0EF01CD
S1133A60C20FD31F4C81ED01C20FD31F4C839F5F44
S1133A70943098F30E94141C882341F0153040F0D0
S1133A8085E007C086E005C086E003C086E001C08B
S1133A9080E0DF91CF911F910895FF920F931F93C0
S1133AA0CF93DF93009709F48FC06115710509F472
S1133AB08DC0FB012081FC011081211389C0FB0111
S1133AC02181FC010181201385C0EB01FA808F2D37
S1133AD00E94141C882309F47FC02B81253008F030
S1133AE07DC0822F07C0FE01E80FF11D9481911162
S1133AF077C08F5F8430B8F3F6E0FF1548F082E0BA
S1133B00F81660F4FF2001F1E1E0FE16A9F06AC0A6
S1133B10F7E0FF1639F088E0F81264C0211164C0A0
S1133B2080E085C0123009F061C0243009F060C023
S1133B308C8181115FC07BC01350143008F05CC0CD
S1133B4021115CC080E073C0123081F4243009F08C
S1133B5057C08C81813009F055C0023009F054C03F
S1133B608D81823008F052C080E061C0113009F0CC
S1133B704FC0053069F018F4033020F407C0063054
S1133B8019F004C081E005C084E003C080E001C0F6
S1133B9083E082133FC08DEF800F823018F48C8154
S1133BA0853BD0F5053031F48C818230B8F58E81B7
S1133BB08230B0F50630B1F58C818230A8F58D8164
S1133BC08230A0F580E033C086E031C086E02FC0AB
S1133BD086E02DC086E02BC086E029C085E027C0A2
S1133BE086E025C086E023C085E021C085E01FC0B3
S1133BF085E01DC086E01BC086E019C085E017C0C3
S1133C0085E015C086E013C080E011C086E00FC0D7
S1133C1086E00DC085E00BC086E009C086E007C0E1
S1133C2086E005C080E003C086E001C086E0DF9145
S1133C30CF911F910F91FF90089582E084BD83E09E
S1133C4085BD89EF87BD16BCEEE6F0E08081826019
S1133C50808308952FB7F89431E009C06091F90288
S1133C607091FA028091FB029091FC0230E03111D4
S1133C70F5CF2FBF08951F920F920FB60F92112404
S1133C808F939F93AF93BF938091F9029091FA021F
S1133C90A091FB02B091FC020196A11DB11D80937D
S1133CA0F9029093FA02A093FB02B093FC02BF9135
S1133CB0AF919F918F910F900FBE0F901F90189509
S1133CC09C013327A90102C0440F551F9A95E2F7BE
S1133CD0CA0101960895CF92DF92EF92FF92611587
S1133CE0710581059105E9F0DC01CB010197A1097A
S1133CF0B10920E030E006C0B695A7959795879561
S1133D002F5F3F4F6C017D01CC24CD28CE28CF28D6
S1133D1099F7322F2227BC017727CB01822B932BD3
S1133D2002C080E090E0FF90EF90DF90CF90089584
S1133D30A82FB0E020E03FE24AE350E00E94F426DE
S1133D406C507E4F8F4F9F4F28EE33E040E050E0A1
S1133D500E94BD26CA01B9010895CF93DF93EC01F7
S1133D60862F0E94981E9B01AC01DE010E94F4265E
S1133D706C507E4F8F4F9F4F28EE33E040E050E071
S1133D800E94BD26CA01B901DF91CF9108958F9297
S1133D909F92AF92BF92CF92DF92EF92FF924B012C
S1133DA05C01842F0E94981E6B017C01A8EEB3E095
S1133DB0A50194010E94F42646015701B694A794E4
S1133DC097948794680D791D8A1D9B1DA701960100
S1133DD00E94BD26CA01B901FF90EF90DF90CF90F9
S1133DE0BF90AF909F908F900895EF92FF920F93A2
S1133DF01F93CF93DF930097B1F14115510511F44F
S1133E00211133C0D22F7A01C62F8C010E94900752
S1133E10882369F1F8018081880F0E94DC078111F1
S1133E2004C00E94BC0781E023C08C2F0E94DC07E1
S1133E30811112C00E94BC0781E01AC0F701EC0F87
S1133E40F11D80810E94DC07811104C00E94BC071F
S1133E5081E00EC0CF5F01C0C0E0CD1778F30E94AF
S1133E60BC0780E005C084E003C084E001C081E0B9
S1133E70DF91CF911F910F91FF90EF900895CF9311
S1133E80DF9300D0CDB7DEB759834A8322E0AE0179
S1133E904F5F5F4F0E94F51E0F900F90DF91CF91FF
S1133EA008950F931F93CF93DF93009739F1042F55
S1133EB0162FEC010E949007882311F18881880F46
S1133EC00E94DC07811104C00E94BC0781E019C074
S1133ED0812F0E94DC07811104C00E94BC0781E08D
S1133EE010C0802F0E94DC07811104C00E94BC070F
S1133EF081E007C00E94BC0780E003C084E001C0E9
S1133F0081E0DF91CF911F910F910895EF92FF927D
S1133F100F931F93CF93DF93009709F451C041157A
S1133F20510509F44FC0222309F44EC0122F7A011F
S1133F30062FEC010E949007882309F447C088816A
S1133F40880F0E94DC07811104C00E94BC0781E035
S1133F503EC0802F0E94DC07811104C00E94BC0770
S1133F6081E035C00E94A707811104C00E94BC07EC
S1133F7081E02DC08881880F81600E94DC07811157
S1133F8018C00E94BC0781E022C08FEF810FC817C0
S1133F9010F461E001C060E0C7018C0F911D0E9424
S1133FA02D08811104C00E94BC0781E010C0CF5FBE
S1133FB001C0C0E0C11748F30E94BC0780E007C0FD
S1133FC084E005C084E003C084E001C081E0DF91A7
S1133FD0CF911F910F91FF90EF90089521E00E94DF
S1133FE0861F0895AF92BF92CF92DF92EF92FF9215
S1133FF00F931F93CF93DF931F92CDB7DEB7611555
S1134000710509F4CCC04115510509F4CAC07A01FF
S11340106B018C0141E060E80E94511F8111C3C013
S113402041E06FEFC8010E94511F8111BEC040E002
S113403060E0C8010E94511F8111B9C046E06FEFD2
S1134040C8010E94511F8111B4C0AE014F5F5F4F80
S113405063E8C8010E94EE1F8111ADC0498144602C
S113406063E8C8010E94511F8111A7C047E06FEFA8
S1134070C8010E94511F8111A2C041E061E8C8013A
S11340800E94511F81119DC041E060E8C8010E9457
S1134090511F811198C04BE664E9C8010E94511F69
S11340A0811193C040E063E8C8010E94511F81114F
S11340B08EC0A12CB12CAE014F5F5F4F63E8C801E5
S11340C00E94EE1F811185C08981811111C0F80100
S11340D083819481A816B90608F07DC08FE99FE01A
S11340E00197F1F700C000009FEFA91AB90AE3CFC6
S11340F041E063E8C8010E94511F81116EC0AE0106
S11341004F5F5F4F62E9C8010E94EE1F811167C0D3
S11341108981982F9F77F6019083881F8827881FAD
S1134120F701808340E061E8C8010E94511F8111BA
S113413058C046E06FEFC8010E94511F811153C05F
S1134140AE014F5F5F4F63E8C8010E94EE1F81110B
S11341504CC049814B7F63E8C8010E94511F811103
S113416046C041E06FEFC8010E94511F811141C058
S113417041E060E0C8010E94511F81113CC040E051
S11341806FEFC8010E94511F811137C040E060E801
S1134190C8010E94511F882389F181E02FC084E067
S11341A02DC084E02BC081E029C081E027C081E0DC
S11341B025C081E023C081E021C081E01FC081E0EF
S11341C01DC081E01BC081E019C081E017C081E0FF
S11341D015C081E013C083E011C081E00FC081E00D
S11341E00DC081E00BC081E009C081E007C081E01F
S11341F005C081E003C081E001C081E00F90DF9140
S1134200CF911F910F91FF90EF90DF90CF90BF90CF
S1134210AF9008950F931F93CF93DF931F92CDB761
S1134220DEB78B011982AE014F5F5F4F61E00E94E0
S1134230EE1F898184FB992790F9F801908383FB11
S1134240992790F9918382FB992790F9928386FBB1
S1134250992790F99383881F8827881F84830F9058
S1134260DF91CF911F910F910895CF93DF931F9208
S1134270CDB7DEB71982662339F0AE014F5F5F4FC9
S113428060E70E94EE1F06C0AE014F5F5F4F60E51E
S11342900E94EE1F89818F5F880F0F90DF91CF916D
S11342A00895EF92FF920F931F93CF93DF931F9282
S11342B0CDB7DEB78C01462F416060E00E94511FEC
S11342C081112EC0E12CF12CAE014F5F5F4F63E1F1
S11342D0C8010E94EE1F811125C08981877081F475
S11342E0F80183819481E816F906F0F48FE99FE0E0
S11342F00197F1F700C000009FEFE91AF90AE4CF33
S113430041E06BE0C8010E94511F81110FC040E0E1
S113431060E0C8010E94511F882349F081E007C072
S113432081E005C081E003C083E001C081E00F901B
S1134330DF91CF911F910F91FF90EF9008950F930C
S11343401F93CF93DF9300D0CDB7DEB7411551054E
S1134350A1F08A0122E0AE014F5F5F4F0E94861FE9
S113436081110CC0898190E0982F88272A81822BA3
S1134370F8019183808380E001C084E00F900F9066
S1134380DF91CF911F910F910895CF92DF92EF9219
S1134390FF920F931F93CF93DF9300D01F92CDB75B
S11343A0DEB77C016B018A0119821B821A8260E0EC
S11343B00E943521F8018083AE014F5F5F4F66E4B0
S11343C0C7010E94EE1F898190E00196F801938352
S11343D0828360810E94AD1EF801608771878287A5
S11343E09387AE014E5F5F4F61E5C7010E949F2135
S11343F08A819B810E94601EF80195838483608179
S11344000E94AD1EF801648775878687978761E0EF
S1134410C7010E943521F8018183AE014E5F5F4FD1
S113442061E7C7010E949F218A819B810E94601ECF
S1134430F80197838683F6012381222339F0F8015A
S113444024813581821B930B97838683F8016181D4
S1134450868197810E94AD1EF801608B718B828BDF
S1134460938B0F900F900F90DF91CF911F910F912D
S1134470FF90EF90DF90CF9008950F931F93CF9309
S1134480DF93CDB7DEB769970FB6F894DEBF0FBEE2
S1134490CDBF8C01BE016F5F7F4F0E940A21AE0128
S11344A04A5F5F4FBE016F5F7F4FC8010E94C52105
S11344B08981882359F08E859F85A889B989BC0193
S11344C0CD016C57724F8F4F9F4F04C066E37BE062
S11344D080E090E02A81222389F00E851F852889B7
S11344E039890E541D4F2F4F3F4F000F111F221FAC
S11344F0331F600F711F821F931F13C02B81222350
S113450081F00E851F8528893989DC01CB01800F54
S1134510911FA21FB31FBC01CD016C567D4F8F4F5D
S11345209F4F2C81222381F00A891B892C893D8984
S1134530DC01CB01800F911FA21FB31FBC01CD0171
S11345406C567D4F8F4F9F4F2D81222381F00E8912
S11345501F89288D398DDC01CB01800F911FA21F8B
S1134560B31FBC01CD016A5D7D4F8F4F9F4F69968C
S11345700FB6F894DEBF0FBECDBFDF91CF911F9170
S11345800F910895BF92CF92DF92EF92FF920F9313
S11345901F93CF93DF93CDB7DEB769970FB6F89427
S11345A0DEBF0FBECDBF8C016A017B01BE016F5F10
S11345B07F4F0E940A21AE014A5F5F4FBE016F5FC9
S11345C07F4FC8010E94C5218981882349F08E85C7
S11345D09F85A889B9898C57924FAF4FBF4F04C0AC
S11345E086E39BE0A0E0B0E02A81222389F04E8597
S11345F05F85688979894E545D4F6F4F7F4F440FB3
S1134600551F661F771F840F951FA61FB71F0FC066
S11346102B81222361F04E855F8568897989840F17
S1134620951FA61FB71F8C569D4FAF4FBF4FBC8021
S1134630BB2061F04A895B896C897D89840F951F51
S1134640A61FB71F8C569D4FAF4FBF4F2D812223FE
S113465021F18A5D9D4FAF4FBF4FC816D906EA06B8
S1134660FB06E8F0A7019601281B390B4A0B5B0BEC
S1134670CA01B9014F810E94C71EBB2031F02A85AF
S11346803B85620F731F811D911D0E946B1EAC013F
S113469061E7C8010E943F1F03C080E001C084E0BD
S11346A069960FB6F894DEBF0FBECDBFDF91CF91F0
S11346B01F910F91FF90EF90DF90CF90BF900895DE
S11346C0FC01892BC1F089E280831182128288EC7B
S11346D090E0948383831682158210861782128653
S11346E011861386148616861586108A1786128AF2
S11346F0118A138A148A0895009769F16115710566
S113470061F14115510559F1283058F5DC0116962F
S11347107C936E93159718965C934E931797E1E0EC
S1134720F0E0DF0102C0AA0FBB1F2A95E2F79D014A
S1134730FC01A38731E03487DA013C9120952323DF
S11347402C93FB012081DC011B968C9180958223A4
S1134750808380E0089584E0089584E0089584E0EF
S1134760089584E00895009739F1DC011C962C919A
S11347701C97222319F11796ED91FC91189730811B
S11347801B962C911B972095232320831596ED913E
S1134790FC91169730811B962C911B97232B208319
S11347A0EFE9FFE03197F1F700C0000029E22C9314
S11347B012961C9280E0089584E0089584E00895A0
S11347C0FC01892BB1F18485882341F1A781B0854F
S11347D09C918385809589238C93A581B6819C9136
S11347E08385892B8C938FE39FE10197F1F700C0B8
S11347F00000A781B0859C918385809589238C9343
S1134800A581B6819C918385809589238C938FEDB6
S11348109EE20197F1F700C0000006C08FED9EE212
S11348200197F1F700C0000089E28083128280E0E2
S1134830089584E00895CF93DF931F92CDB7DEB738
S11348401982009769F0AE014F5F5F4F60EC0E94E0
S1134850EE1F811107C099819E3E29F082E003C0BA
S113486084E001C081E00F90DF91CF910895CF9251
S1134870DF92EF92FF920F931F93CF93DF93CDB705
S1134880DEB729970FB6F894DEBF0FBECDBF0097F1
S113489009F468C18C010E94E02381119EC1C80102
S11348A00E941B24811199C1AE014F5F5F4F69E8DB
S11348B0C8010E94EE1F811190C14981416069E8DD
S11348C0C8010E94511F811188C140E068E8C801F5
S11348D00E94511F811148C141E060E8C8010E9453
S11348E0511F811143C141E06FEFC8010E94511F64
S11348F081113EC140E060E0C8010E94511F811156
S113490039C1A8014F5F5F4F61E9C8010E94EE1FE2
S1134910811132C141E060E0C8010E94511F811140
S11349202DC140E06FEFC8010E94511F811128C1C1
S113493040E060E8C8010E94511F811123C1AE010B
S11349404F5F5F4F60E6C8010E94EE1F81111CC1DA
S11349504981426160E6C8010E94511F811116C15C
S113496040E250E064E4C8010E943F1F811110C17D
S11349704FEF61E0C8010E94511F81110BC1AE01CC
S11349804D5F5F4FBE016E5F7F4FC8010E94F21FF3
S1134990811123C126E0AE014C5F5F4F60EBC8017B
S11349A00E94861F8111F8C041E06FEFC8010E9488
S11349B0511F8111F3C040E06FE4C8010E94511FF0
S11349C08111EEC04CE26EE4C8010E94511F8111B6
S11349D0E9C040E06FEFC8010E94511F8111E4C09B
S11349E044EB66EBC8010E94511F8111DFC08B812B
S11349F0882311F05CE001C050E080E040E033C067
S1134A00851718F09A81491318C0982F977021E0E0
S1134A1030E002C0220F331F9A95E2F72095982FB9
S1134A20969596959695E4E0F0E0EC0FFD1FE90F5E
S1134A30F11D90819223908315C0982F9695969599
S1134A409695E4E0F0E0EC0FFD1FE90FF11D2081E5
S1134A5030E0982F977002C0359527959A95E2F724
S1134A6020FD4F5F8F5F803358F226E0AE014C5F2C
S1134A705F4F60EBC8010E94F51E811199C0F12CB3
S1134A8012C08F2D90E0880F991FFC01ED59F44F4F
S1134A906491FC01EC59F44F4491C8010E94511FE8
S1134AA0811188C0F3948FE48F1558F744E06AE0CD
S1134AB0C8010E94511F81117FC0AE014F5F5F4F3B
S1134AC064E8C8010E94EE1F811178C049814F7EBD
S1134AD064E8C8010E94511F811172C041E06BE07B
S1134AE0C8010E94511F81116DC0C8010E943D225E
S1134AF06B017C01672B682B692B09F465C048EEB8
S1134B0061E0C8010E94511F811160C0B701A60174
S1134B10C8010E94C222811160C041E061E0C80165
S1134B200E94511F811154C060E4C8010E945121A8
S1134B30811153C042E061E0C8010E94511F8111FC
S1134B4049C060E0C8010E945121811146C048EE6D
S1134B5061E0C8010E94511F81113EC091E0F8013B
S1134B6092833BC084E039C081E037C081E035C026
S1134B7081E033C081E031C081E02FC081E02DC0ED
S1134B8081E02BC081E029C081E027C081E025C0FD
S1134B9081E023C081E021C081E01FC081E01DC00D
S1134BA081E01BC081E019C081E017C081E015C01D
S1134BB081E013C081E011C081E00FC081E00DC02D
S1134BC081E00BC081E009C081E007C081E005C03D
S1134BD081E003C081E001C081E029960FB6F8941A
S1134BE0DEBF0FBECDBFDF91CF911F910F91FF901C
S1134BF0EF90DF90CF900895CF93DF930097F1F17A
S1134C00FC0122812223E1F1EC0141E060E80E94F1
S1134C10511F811137C041E06FEFCE010E94511F37
S1134C20811132C040E060E0CE010E94511F811129
S1134C302DC0498161E9CE010E94511F811128C014
S1134C4041E060E0CE010E94511F811123C040E089
S1134C506FEFCE010E94511F81111EC040E060E839
S1134C60CE010E94511F811119C041E060E0CE01C4
S1134C700E94511F882399F081E011C084E00FC085
S1134C8085E00DC081E00BC081E009C081E007C070
S1134C9081E005C081E003C081E001C081E0DF91D3
S1134CA0CF9108950F931F93CF93DF931F92CDB7A6
S1134CB0DEB7009771F16115710569F1DC01129697
S1134CC02C911297222349F154962C915497222324
S1134CD081F05196ED91FC915297208153968C91DD
S1134CE0822311F481E001C080E0FB01808380E035
S1134CF017C08B01AE014F5F5F4F63E10E94EE1F4F
S1134D0081110DC09981977009F091E0D8019C93AD
S1134D1007C084E005C084E003C085E001C081E0F1
S1134D200F90DF91CF911F910F910895009729F073
S1134D3041E06BE00E94511F089584E00895CF93F1
S1134D40DF93009791F06115710589F0FC012281D0
S1134D50222379F0AB01EC016EE10E949F218111C5
S1134D6009C0CE010E94962605C084E003C084E0F9
S1134D7001C085E0DF91CF910895A1E21A2EAA1B0C
S1134D80BB1BFD010DC0AA1FBB1FEE1FFF1FA217F7
S1134D90B307E407F50720F0A21BB30BE40BF50BF4
S1134DA0661F771F881F991F1A9469F7609570957D
S1134DB0809590959B01AC01BD01CF010895EE0F44
S1134DC0FF1F0590F491E02D0994A29FB001B39FB9
S1134DD0C001A39F700D811D1124911DB29F700D00
S1134DE0811D1124911D08950E94E526A59F900D13
S1134DF0B49F900DA49F800D911D11240895FC0172
S1134E008191861721F08823D9F79927089531973E
S1134E10CF010895FB01DC018D91019080190110EF
S1134E20D9F3990B0895FB01DC014150504030F057
S1134E308D910190801919F40020B9F7881B990B02
S1094E400895F894FFCF71
S1134E46F8000000000000000000000000009100CF
S1134E560101000000000008000001004043572C37
S1134E66432C00444300574100444F00535400531D
S1074E76544F500041
S9030000FC
